{
	"contracts/int_to_roman.sol": {
		"IntToRoman": {
			"abi": [
				{
					"inputs": [
						{
							"internalType": "uint16",
							"name": "num",
							"type": "uint16"
						}
					],
					"name": "intToRoman",
					"outputs": [
						{
							"internalType": "string",
							"name": "",
							"type": "string"
						}
					],
					"stateMutability": "view",
					"type": "function"
				}
			],
			"devdoc": {
				"kind": "dev",
				"methods": {},
				"version": 1
			},
			"evm": {
				"assembly": "    /* \"contracts/int_to_roman.sol\":58:854  contract IntToRoman {... */\n  mstore(0x40, 0x80)\n    /* \"contracts/int_to_roman.sol\":87:214  uint16[] private _values = [... */\n  mload(0x40)\n  dup1\n  0x01c0\n  add\n  0x40\n  mstore\n  dup1\n    /* \"contracts/int_to_roman.sol\":125:129  1000 */\n  0x03e8\n    /* \"contracts/int_to_roman.sol\":87:214  uint16[] private _values = [... */\n  0xffff\n  and\n  dup2\n  mstore\n  0x20\n  add\n    /* \"contracts/int_to_roman.sol\":131:134  900 */\n  0x0384\n    /* \"contracts/int_to_roman.sol\":87:214  uint16[] private _values = [... */\n  0xffff\n  and\n  dup2\n  mstore\n  0x20\n  add\n    /* \"contracts/int_to_roman.sol\":136:139  500 */\n  0x01f4\n    /* \"contracts/int_to_roman.sol\":87:214  uint16[] private _values = [... */\n  0xffff\n  and\n  dup2\n  mstore\n  0x20\n  add\n    /* \"contracts/int_to_roman.sol\":141:144  400 */\n  0x0190\n    /* \"contracts/int_to_roman.sol\":87:214  uint16[] private _values = [... */\n  0xffff\n  and\n  dup2\n  mstore\n  0x20\n  add\n    /* \"contracts/int_to_roman.sol\":155:158  100 */\n  0x64\n    /* \"contracts/int_to_roman.sol\":87:214  uint16[] private _values = [... */\n  0xffff\n  and\n  dup2\n  mstore\n  0x20\n  add\n    /* \"contracts/int_to_roman.sol\":160:162  90 */\n  0x5a\n    /* \"contracts/int_to_roman.sol\":87:214  uint16[] private _values = [... */\n  0xffff\n  and\n  dup2\n  mstore\n  0x20\n  add\n    /* \"contracts/int_to_roman.sol\":164:166  50 */\n  0x32\n    /* \"contracts/int_to_roman.sol\":87:214  uint16[] private _values = [... */\n  0xffff\n  and\n  dup2\n  mstore\n  0x20\n  add\n    /* \"contracts/int_to_roman.sol\":168:170  40 */\n  0x28\n    /* \"contracts/int_to_roman.sol\":87:214  uint16[] private _values = [... */\n  0xffff\n  and\n  dup2\n  mstore\n  0x20\n  add\n    /* \"contracts/int_to_roman.sol\":181:183  10 */\n  0x0a\n    /* \"contracts/int_to_roman.sol\":87:214  uint16[] private _values = [... */\n  0xffff\n  and\n  dup2\n  mstore\n  0x20\n  add\n    /* \"contracts/int_to_roman.sol\":185:186  9 */\n  0x09\n    /* \"contracts/int_to_roman.sol\":87:214  uint16[] private _values = [... */\n  0xffff\n  and\n  dup2\n  mstore\n  0x20\n  add\n    /* \"contracts/int_to_roman.sol\":188:189  5 */\n  0x05\n    /* \"contracts/int_to_roman.sol\":87:214  uint16[] private _values = [... */\n  0xffff\n  and\n  dup2\n  mstore\n  0x20\n  add\n    /* \"contracts/int_to_roman.sol\":191:192  4 */\n  0x04\n    /* \"contracts/int_to_roman.sol\":87:214  uint16[] private _values = [... */\n  0xffff\n  and\n  dup2\n  mstore\n  0x20\n  add\n    /* \"contracts/int_to_roman.sol\":203:204  1 */\n  0x01\n    /* \"contracts/int_to_roman.sol\":87:214  uint16[] private _values = [... */\n  0xffff\n  and\n  dup2\n  mstore\n  0x20\n  add\n    /* \"contracts/int_to_roman.sol\":206:207  0 */\n  0x00\n    /* \"contracts/int_to_roman.sol\":87:214  uint16[] private _values = [... */\n  0xffff\n  and\n  dup2\n  mstore\n  pop\n  0x00\n  swap1\n  0x0e\n  tag_1\n  swap3\n  swap2\n  swap1\n  tag_2\n  jump\t// in\ntag_1:\n  pop\n    /* \"contracts/int_to_roman.sol\":223:369  string[] private _symbols = [... */\n  mload(0x40)\n  dup1\n  0x01c0\n  add\n  0x40\n  mstore\n  dup1\n  mload(0x40)\n  dup1\n  0x40\n  add\n  0x40\n  mstore\n  dup1\n  0x01\n  dup2\n  mstore\n  0x20\n  add\n  0x4d00000000000000000000000000000000000000000000000000000000000000\n  dup2\n  mstore\n  pop\n  dup2\n  mstore\n  0x20\n  add\n  mload(0x40)\n  dup1\n  0x40\n  add\n  0x40\n  mstore\n  dup1\n  0x02\n  dup2\n  mstore\n  0x20\n  add\n  0x434d000000000000000000000000000000000000000000000000000000000000\n  dup2\n  mstore\n  pop\n  dup2\n  mstore\n  0x20\n  add\n  mload(0x40)\n  dup1\n  0x40\n  add\n  0x40\n  mstore\n  dup1\n  0x01\n  dup2\n  mstore\n  0x20\n  add\n  0x4400000000000000000000000000000000000000000000000000000000000000\n  dup2\n  mstore\n  pop\n  dup2\n  mstore\n  0x20\n  add\n  mload(0x40)\n  dup1\n  0x40\n  add\n  0x40\n  mstore\n  dup1\n  0x02\n  dup2\n  mstore\n  0x20\n  add\n  0x4344000000000000000000000000000000000000000000000000000000000000\n  dup2\n  mstore\n  pop\n  dup2\n  mstore\n  0x20\n  add\n  mload(0x40)\n  dup1\n  0x40\n  add\n  0x40\n  mstore\n  dup1\n  0x01\n  dup2\n  mstore\n  0x20\n  add\n  0x4300000000000000000000000000000000000000000000000000000000000000\n  dup2\n  mstore\n  pop\n  dup2\n  mstore\n  0x20\n  add\n  mload(0x40)\n  dup1\n  0x40\n  add\n  0x40\n  mstore\n  dup1\n  0x02\n  dup2\n  mstore\n  0x20\n  add\n  0x5843000000000000000000000000000000000000000000000000000000000000\n  dup2\n  mstore\n  pop\n  dup2\n  mstore\n  0x20\n  add\n  mload(0x40)\n  dup1\n  0x40\n  add\n  0x40\n  mstore\n  dup1\n  0x01\n  dup2\n  mstore\n  0x20\n  add\n  0x4c00000000000000000000000000000000000000000000000000000000000000\n  dup2\n  mstore\n  pop\n  dup2\n  mstore\n  0x20\n  add\n  mload(0x40)\n  dup1\n  0x40\n  add\n  0x40\n  mstore\n  dup1\n  0x02\n  dup2\n  mstore\n  0x20\n  add\n  0x584c000000000000000000000000000000000000000000000000000000000000\n  dup2\n  mstore\n  pop\n  dup2\n  mstore\n  0x20\n  add\n  mload(0x40)\n  dup1\n  0x40\n  add\n  0x40\n  mstore\n  dup1\n  0x01\n  dup2\n  mstore\n  0x20\n  add\n  0x5800000000000000000000000000000000000000000000000000000000000000\n  dup2\n  mstore\n  pop\n  dup2\n  mstore\n  0x20\n  add\n  mload(0x40)\n  dup1\n  0x40\n  add\n  0x40\n  mstore\n  dup1\n  0x02\n  dup2\n  mstore\n  0x20\n  add\n  0x4958000000000000000000000000000000000000000000000000000000000000\n  dup2\n  mstore\n  pop\n  dup2\n  mstore\n  0x20\n  add\n  mload(0x40)\n  dup1\n  0x40\n  add\n  0x40\n  mstore\n  dup1\n  0x01\n  dup2\n  mstore\n  0x20\n  add\n  0x5600000000000000000000000000000000000000000000000000000000000000\n  dup2\n  mstore\n  pop\n  dup2\n  mstore\n  0x20\n  add\n  mload(0x40)\n  dup1\n  0x40\n  add\n  0x40\n  mstore\n  dup1\n  0x02\n  dup2\n  mstore\n  0x20\n  add\n  0x4956000000000000000000000000000000000000000000000000000000000000\n  dup2\n  mstore\n  pop\n  dup2\n  mstore\n  0x20\n  add\n  mload(0x40)\n  dup1\n  0x40\n  add\n  0x40\n  mstore\n  dup1\n  0x01\n  dup2\n  mstore\n  0x20\n  add\n  0x4900000000000000000000000000000000000000000000000000000000000000\n  dup2\n  mstore\n  pop\n  dup2\n  mstore\n  0x20\n  add\n  mload(0x40)\n  dup1\n  0x20\n  add\n  0x40\n  mstore\n  dup1\n  0x00\n  dup2\n  mstore\n  pop\n  dup2\n  mstore\n  pop\n  0x01\n  swap1\n  0x0e\n  tag_3\n  swap3\n  swap2\n  swap1\n  tag_4\n  jump\t// in\ntag_3:\n  pop\n    /* \"contracts/int_to_roman.sol\":58:854  contract IntToRoman {... */\n  callvalue\n  dup1\n  iszero\n  tag_5\n  jumpi\n  revert(0x00, 0x00)\ntag_5:\n  pop\n  jump(tag_6)\ntag_2:\n  dup3\n  dup1\n  sload\n  dup3\n  dup3\n  sstore\n  swap1\n  0x00\n  mstore\n  keccak256(0x00, 0x20)\n  swap1\n  0x0f\n  add\n  0x10\n  swap1\n  div\n  dup2\n  add\n  swap3\n  dup3\n  iszero\n  tag_7\n  jumpi\n  swap2\n  0x20\n  mul\n  dup3\n  add\n  0x00\ntag_8:\n  dup4\n  dup3\n  gt\n  iszero\n  tag_9\n  jumpi\n  dup4\n  mload\n  dup4\n  dup3\n  0x0100\n  exp\n  dup2\n  sload\n  dup2\n  0xffff\n  mul\n  not\n  and\n  swap1\n  dup4\n  0xffff\n  and\n  mul\n  or\n  swap1\n  sstore\n  pop\n  swap3\n  0x20\n  add\n  swap3\n  0x02\n  add\n  0x20\n  dup2\n  0x01\n  add\n  div\n  swap3\n  dup4\n  add\n  swap3\n  0x01\n  sub\n  mul\n  jump(tag_8)\ntag_9:\n  dup1\n  iszero\n  tag_10\n  jumpi\n  dup3\n  dup2\n  0x0100\n  exp\n  dup2\n  sload\n  swap1\n  0xffff\n  mul\n  not\n  and\n  swap1\n  sstore\n  0x02\n  add\n  0x20\n  dup2\n  0x01\n  add\n  div\n  swap3\n  dup4\n  add\n  swap3\n  0x01\n  sub\n  mul\n  jump(tag_9)\ntag_10:\n  pop\ntag_7:\n  pop\n  swap1\n  pop\n  tag_11\n  swap2\n  swap1\n  tag_12\n  jump\t// in\ntag_11:\n  pop\n  swap1\n  jump\t// out\ntag_4:\n  dup3\n  dup1\n  sload\n  dup3\n  dup3\n  sstore\n  swap1\n  0x00\n  mstore\n  keccak256(0x00, 0x20)\n  swap1\n  dup2\n  add\n  swap3\n  dup3\n  iszero\n  tag_13\n  jumpi\n  swap2\n  0x20\n  mul\n  dup3\n  add\ntag_14:\n  dup3\n  dup2\n  gt\n  iszero\n  tag_15\n  jumpi\n  dup3\n  mload\n  dup3\n  swap1\n  dup2\n  tag_16\n  swap2\n  swap1\n  tag_17\n  jump\t// in\ntag_16:\n  pop\n  swap2\n  0x20\n  add\n  swap2\n  swap1\n  0x01\n  add\n  swap1\n  jump(tag_14)\ntag_15:\ntag_13:\n  pop\n  swap1\n  pop\n  tag_18\n  swap2\n  swap1\n  tag_19\n  jump\t// in\ntag_18:\n  pop\n  swap1\n  jump\t// out\ntag_12:\ntag_20:\n  dup1\n  dup3\n  gt\n  iszero\n  tag_21\n  jumpi\n  0x00\n  dup2\n  0x00\n  swap1\n  sstore\n  pop\n  0x01\n  add\n  jump(tag_20)\ntag_21:\n  pop\n  swap1\n  jump\t// out\ntag_19:\ntag_22:\n  dup1\n  dup3\n  gt\n  iszero\n  tag_23\n  jumpi\n  0x00\n  dup2\n  dup2\n  tag_24\n  swap2\n  swap1\n  tag_25\n  jump\t// in\ntag_24:\n  pop\n  0x01\n  add\n  jump(tag_22)\ntag_23:\n  pop\n  swap1\n  jump\t// out\ntag_25:\n  pop\n  dup1\n  sload\n  tag_26\n  swap1\n  tag_27\n  jump\t// in\ntag_26:\n  0x00\n  dup3\n  sstore\n  dup1\n  0x1f\n  lt\n  tag_29\n  jumpi\n  pop\n  jump(tag_28)\ntag_29:\n  0x1f\n  add\n  0x20\n  swap1\n  div\n  swap1\n  0x00\n  mstore\n  keccak256(0x00, 0x20)\n  swap1\n  dup2\n  add\n  swap1\n  tag_30\n  swap2\n  swap1\n  tag_12\n  jump\t// in\ntag_30:\ntag_28:\n  pop\n  jump\t// out\n    /* \"#utility.yul\":7:106   */\ntag_31:\n    /* \"#utility.yul\":59:65   */\n  0x00\n    /* \"#utility.yul\":93:98   */\n  dup2\n    /* \"#utility.yul\":87:99   */\n  mload\n    /* \"#utility.yul\":77:99   */\n  swap1\n  pop\n    /* \"#utility.yul\":7:106   */\n  swap2\n  swap1\n  pop\n  jump\t// out\n    /* \"#utility.yul\":112:292   */\ntag_32:\n    /* \"#utility.yul\":160:237   */\n  0x4e487b7100000000000000000000000000000000000000000000000000000000\n    /* \"#utility.yul\":157:158   */\n  0x00\n    /* \"#utility.yul\":150:238   */\n  mstore\n    /* \"#utility.yul\":257:261   */\n  0x41\n    /* \"#utility.yul\":254:255   */\n  0x04\n    /* \"#utility.yul\":247:262   */\n  mstore\n    /* \"#utility.yul\":281:285   */\n  0x24\n    /* \"#utility.yul\":278:279   */\n  0x00\n    /* \"#utility.yul\":271:286   */\n  revert\n    /* \"#utility.yul\":298:478   */\ntag_33:\n    /* \"#utility.yul\":346:423   */\n  0x4e487b7100000000000000000000000000000000000000000000000000000000\n    /* \"#utility.yul\":343:344   */\n  0x00\n    /* \"#utility.yul\":336:424   */\n  mstore\n    /* \"#utility.yul\":443:447   */\n  0x22\n    /* \"#utility.yul\":440:441   */\n  0x04\n    /* \"#utility.yul\":433:448   */\n  mstore\n    /* \"#utility.yul\":467:471   */\n  0x24\n    /* \"#utility.yul\":464:465   */\n  0x00\n    /* \"#utility.yul\":457:472   */\n  revert\n    /* \"#utility.yul\":484:804   */\ntag_27:\n    /* \"#utility.yul\":528:534   */\n  0x00\n    /* \"#utility.yul\":565:566   */\n  0x02\n    /* \"#utility.yul\":559:563   */\n  dup3\n    /* \"#utility.yul\":555:567   */\n  div\n    /* \"#utility.yul\":545:567   */\n  swap1\n  pop\n    /* \"#utility.yul\":612:613   */\n  0x01\n    /* \"#utility.yul\":606:610   */\n  dup3\n    /* \"#utility.yul\":602:614   */\n  and\n    /* \"#utility.yul\":633:651   */\n  dup1\n    /* \"#utility.yul\":623:704   */\n  tag_55\n  jumpi\n    /* \"#utility.yul\":689:693   */\n  0x7f\n    /* \"#utility.yul\":681:687   */\n  dup3\n    /* \"#utility.yul\":677:694   */\n  and\n    /* \"#utility.yul\":667:694   */\n  swap2\n  pop\n    /* \"#utility.yul\":623:704   */\ntag_55:\n    /* \"#utility.yul\":751:753   */\n  0x20\n    /* \"#utility.yul\":743:749   */\n  dup3\n    /* \"#utility.yul\":740:754   */\n  lt\n    /* \"#utility.yul\":720:738   */\n  dup2\n    /* \"#utility.yul\":717:755   */\n  sub\n    /* \"#utility.yul\":714:798   */\n  tag_56\n  jumpi\n    /* \"#utility.yul\":770:788   */\n  tag_57\n  tag_33\n  jump\t// in\ntag_57:\n    /* \"#utility.yul\":714:798   */\ntag_56:\n    /* \"#utility.yul\":535:804   */\n  pop\n    /* \"#utility.yul\":484:804   */\n  swap2\n  swap1\n  pop\n  jump\t// out\n    /* \"#utility.yul\":810:951   */\ntag_34:\n    /* \"#utility.yul\":859:863   */\n  0x00\n    /* \"#utility.yul\":882:885   */\n  dup2\n    /* \"#utility.yul\":874:885   */\n  swap1\n  pop\n    /* \"#utility.yul\":905:908   */\n  dup2\n    /* \"#utility.yul\":902:903   */\n  0x00\n    /* \"#utility.yul\":895:909   */\n  mstore\n    /* \"#utility.yul\":939:943   */\n  0x20\n    /* \"#utility.yul\":936:937   */\n  0x00\n    /* \"#utility.yul\":926:944   */\n  keccak256\n    /* \"#utility.yul\":918:944   */\n  swap1\n  pop\n    /* \"#utility.yul\":810:951   */\n  swap2\n  swap1\n  pop\n  jump\t// out\n    /* \"#utility.yul\":957:1050   */\ntag_35:\n    /* \"#utility.yul\":994:1000   */\n  0x00\n    /* \"#utility.yul\":1041:1043   */\n  0x20\n    /* \"#utility.yul\":1036:1038   */\n  0x1f\n    /* \"#utility.yul\":1029:1034   */\n  dup4\n    /* \"#utility.yul\":1025:1039   */\n  add\n    /* \"#utility.yul\":1021:1044   */\n  div\n    /* \"#utility.yul\":1011:1044   */\n  swap1\n  pop\n    /* \"#utility.yul\":957:1050   */\n  swap2\n  swap1\n  pop\n  jump\t// out\n    /* \"#utility.yul\":1056:1163   */\ntag_36:\n    /* \"#utility.yul\":1100:1108   */\n  0x00\n    /* \"#utility.yul\":1150:1155   */\n  dup3\n    /* \"#utility.yul\":1144:1148   */\n  dup3\n    /* \"#utility.yul\":1140:1156   */\n  shl\n    /* \"#utility.yul\":1119:1156   */\n  swap1\n  pop\n    /* \"#utility.yul\":1056:1163   */\n  swap3\n  swap2\n  pop\n  pop\n  jump\t// out\n    /* \"#utility.yul\":1169:1562   */\ntag_37:\n    /* \"#utility.yul\":1238:1244   */\n  0x00\n    /* \"#utility.yul\":1288:1289   */\n  0x08\n    /* \"#utility.yul\":1276:1286   */\n  dup4\n    /* \"#utility.yul\":1272:1290   */\n  mul\n    /* \"#utility.yul\":1311:1408   */\n  tag_62\n    /* \"#utility.yul\":1341:1407   */\n  0xffffffffffffffffffffffffffffffffffffffffffffffffffffffffffffffff\n    /* \"#utility.yul\":1330:1339   */\n  dup3\n    /* \"#utility.yul\":1311:1408   */\n  tag_36\n  jump\t// in\ntag_62:\n    /* \"#utility.yul\":1429:1468   */\n  tag_63\n    /* \"#utility.yul\":1459:1467   */\n  dup7\n    /* \"#utility.yul\":1448:1457   */\n  dup4\n    /* \"#utility.yul\":1429:1468   */\n  tag_36\n  jump\t// in\ntag_63:\n    /* \"#utility.yul\":1417:1468   */\n  swap6\n  pop\n    /* \"#utility.yul\":1501:1505   */\n  dup1\n    /* \"#utility.yul\":1497:1506   */\n  not\n    /* \"#utility.yul\":1490:1495   */\n  dup5\n    /* \"#utility.yul\":1486:1507   */\n  and\n    /* \"#utility.yul\":1477:1507   */\n  swap4\n  pop\n    /* \"#utility.yul\":1550:1554   */\n  dup1\n    /* \"#utility.yul\":1540:1548   */\n  dup7\n    /* \"#utility.yul\":1536:1555   */\n  and\n    /* \"#utility.yul\":1529:1534   */\n  dup5\n    /* \"#utility.yul\":1526:1556   */\n  or\n    /* \"#utility.yul\":1516:1556   */\n  swap3\n  pop\n    /* \"#utility.yul\":1245:1562   */\n  pop\n  pop\n    /* \"#utility.yul\":1169:1562   */\n  swap4\n  swap3\n  pop\n  pop\n  pop\n  jump\t// out\n    /* \"#utility.yul\":1568:1645   */\ntag_38:\n    /* \"#utility.yul\":1605:1612   */\n  0x00\n    /* \"#utility.yul\":1634:1639   */\n  dup2\n    /* \"#utility.yul\":1623:1639   */\n  swap1\n  pop\n    /* \"#utility.yul\":1568:1645   */\n  swap2\n  swap1\n  pop\n  jump\t// out\n    /* \"#utility.yul\":1651:1711   */\ntag_39:\n    /* \"#utility.yul\":1679:1682   */\n  0x00\n    /* \"#utility.yul\":1700:1705   */\n  dup2\n    /* \"#utility.yul\":1693:1705   */\n  swap1\n  pop\n    /* \"#utility.yul\":1651:1711   */\n  swap2\n  swap1\n  pop\n  jump\t// out\n    /* \"#utility.yul\":1717:1859   */\ntag_40:\n    /* \"#utility.yul\":1767:1776   */\n  0x00\n    /* \"#utility.yul\":1800:1853   */\n  tag_67\n    /* \"#utility.yul\":1818:1852   */\n  tag_68\n    /* \"#utility.yul\":1827:1851   */\n  tag_69\n    /* \"#utility.yul\":1845:1850   */\n  dup5\n    /* \"#utility.yul\":1827:1851   */\n  tag_38\n  jump\t// in\ntag_69:\n    /* \"#utility.yul\":1818:1852   */\n  tag_39\n  jump\t// in\ntag_68:\n    /* \"#utility.yul\":1800:1853   */\n  tag_38\n  jump\t// in\ntag_67:\n    /* \"#utility.yul\":1787:1853   */\n  swap1\n  pop\n    /* \"#utility.yul\":1717:1859   */\n  swap2\n  swap1\n  pop\n  jump\t// out\n    /* \"#utility.yul\":1865:1940   */\ntag_41:\n    /* \"#utility.yul\":1908:1911   */\n  0x00\n    /* \"#utility.yul\":1929:1934   */\n  dup2\n    /* \"#utility.yul\":1922:1934   */\n  swap1\n  pop\n    /* \"#utility.yul\":1865:1940   */\n  swap2\n  swap1\n  pop\n  jump\t// out\n    /* \"#utility.yul\":1946:2215   */\ntag_42:\n    /* \"#utility.yul\":2056:2095   */\n  tag_72\n    /* \"#utility.yul\":2087:2094   */\n  dup4\n    /* \"#utility.yul\":2056:2095   */\n  tag_40\n  jump\t// in\ntag_72:\n    /* \"#utility.yul\":2117:2208   */\n  tag_73\n    /* \"#utility.yul\":2166:2207   */\n  tag_74\n    /* \"#utility.yul\":2190:2206   */\n  dup3\n    /* \"#utility.yul\":2166:2207   */\n  tag_41\n  jump\t// in\ntag_74:\n    /* \"#utility.yul\":2158:2164   */\n  dup5\n    /* \"#utility.yul\":2151:2155   */\n  dup5\n    /* \"#utility.yul\":2145:2156   */\n  sload\n    /* \"#utility.yul\":2117:2208   */\n  tag_37\n  jump\t// in\ntag_73:\n    /* \"#utility.yul\":2111:2115   */\n  dup3\n    /* \"#utility.yul\":2104:2209   */\n  sstore\n    /* \"#utility.yul\":2022:2215   */\n  pop\n    /* \"#utility.yul\":1946:2215   */\n  pop\n  pop\n  pop\n  jump\t// out\n    /* \"#utility.yul\":2221:2294   */\ntag_43:\n    /* \"#utility.yul\":2266:2269   */\n  0x00\n    /* \"#utility.yul\":2287:2288   */\n  0x00\n    /* \"#utility.yul\":2280:2288   */\n  swap1\n  pop\n    /* \"#utility.yul\":2221:2294   */\n  swap1\n  jump\t// out\n    /* \"#utility.yul\":2300:2489   */\ntag_44:\n    /* \"#utility.yul\":2377:2409   */\n  tag_77\n  tag_43\n  jump\t// in\ntag_77:\n    /* \"#utility.yul\":2418:2483   */\n  tag_78\n    /* \"#utility.yul\":2476:2482   */\n  dup2\n    /* \"#utility.yul\":2468:2474   */\n  dup5\n    /* \"#utility.yul\":2462:2466   */\n  dup5\n    /* \"#utility.yul\":2418:2483   */\n  tag_42\n  jump\t// in\ntag_78:\n    /* \"#utility.yul\":2353:2489   */\n  pop\n    /* \"#utility.yul\":2300:2489   */\n  pop\n  pop\n  jump\t// out\n    /* \"#utility.yul\":2495:2681   */\ntag_45:\n    /* \"#utility.yul\":2555:2675   */\ntag_80:\n    /* \"#utility.yul\":2572:2575   */\n  dup2\n    /* \"#utility.yul\":2565:2570   */\n  dup2\n    /* \"#utility.yul\":2562:2576   */\n  lt\n    /* \"#utility.yul\":2555:2675   */\n  iszero\n  tag_82\n  jumpi\n    /* \"#utility.yul\":2626:2665   */\n  tag_83\n    /* \"#utility.yul\":2663:2664   */\n  0x00\n    /* \"#utility.yul\":2656:2661   */\n  dup3\n    /* \"#utility.yul\":2626:2665   */\n  tag_44\n  jump\t// in\ntag_83:\n    /* \"#utility.yul\":2599:2600   */\n  0x01\n    /* \"#utility.yul\":2592:2597   */\n  dup2\n    /* \"#utility.yul\":2588:2601   */\n  add\n    /* \"#utility.yul\":2579:2601   */\n  swap1\n  pop\n    /* \"#utility.yul\":2555:2675   */\n  jump(tag_80)\ntag_82:\n    /* \"#utility.yul\":2495:2681   */\n  pop\n  pop\n  jump\t// out\n    /* \"#utility.yul\":2687:3230   */\ntag_46:\n    /* \"#utility.yul\":2788:2790   */\n  0x1f\n    /* \"#utility.yul\":2783:2786   */\n  dup3\n    /* \"#utility.yul\":2780:2791   */\n  gt\n    /* \"#utility.yul\":2777:3223   */\n  iszero\n  tag_85\n  jumpi\n    /* \"#utility.yul\":2822:2860   */\n  tag_86\n    /* \"#utility.yul\":2854:2859   */\n  dup2\n    /* \"#utility.yul\":2822:2860   */\n  tag_34\n  jump\t// in\ntag_86:\n    /* \"#utility.yul\":2906:2935   */\n  tag_87\n    /* \"#utility.yul\":2924:2934   */\n  dup5\n    /* \"#utility.yul\":2906:2935   */\n  tag_35\n  jump\t// in\ntag_87:\n    /* \"#utility.yul\":2896:2904   */\n  dup2\n    /* \"#utility.yul\":2892:2936   */\n  add\n    /* \"#utility.yul\":3089:3091   */\n  0x20\n    /* \"#utility.yul\":3077:3087   */\n  dup6\n    /* \"#utility.yul\":3074:3092   */\n  lt\n    /* \"#utility.yul\":3071:3120   */\n  iszero\n  tag_88\n  jumpi\n    /* \"#utility.yul\":3110:3118   */\n  dup2\n    /* \"#utility.yul\":3095:3118   */\n  swap1\n  pop\n    /* \"#utility.yul\":3071:3120   */\ntag_88:\n    /* \"#utility.yul\":3133:3213   */\n  tag_89\n    /* \"#utility.yul\":3189:3211   */\n  tag_90\n    /* \"#utility.yul\":3207:3210   */\n  dup6\n    /* \"#utility.yul\":3189:3211   */\n  tag_35\n  jump\t// in\ntag_90:\n    /* \"#utility.yul\":3179:3187   */\n  dup4\n    /* \"#utility.yul\":3175:3212   */\n  add\n    /* \"#utility.yul\":3162:3173   */\n  dup3\n    /* \"#utility.yul\":3133:3213   */\n  tag_45\n  jump\t// in\ntag_89:\n    /* \"#utility.yul\":2792:3223   */\n  pop\n  pop\n    /* \"#utility.yul\":2777:3223   */\ntag_85:\n    /* \"#utility.yul\":2687:3230   */\n  pop\n  pop\n  pop\n  jump\t// out\n    /* \"#utility.yul\":3236:3353   */\ntag_47:\n    /* \"#utility.yul\":3290:3298   */\n  0x00\n    /* \"#utility.yul\":3340:3345   */\n  dup3\n    /* \"#utility.yul\":3334:3338   */\n  dup3\n    /* \"#utility.yul\":3330:3346   */\n  shr\n    /* \"#utility.yul\":3309:3346   */\n  swap1\n  pop\n    /* \"#utility.yul\":3236:3353   */\n  swap3\n  swap2\n  pop\n  pop\n  jump\t// out\n    /* \"#utility.yul\":3359:3528   */\ntag_48:\n    /* \"#utility.yul\":3403:3409   */\n  0x00\n    /* \"#utility.yul\":3436:3487   */\n  tag_93\n    /* \"#utility.yul\":3484:3485   */\n  0x00\n    /* \"#utility.yul\":3480:3486   */\n  not\n    /* \"#utility.yul\":3472:3477   */\n  dup5\n    /* \"#utility.yul\":3469:3470   */\n  0x08\n    /* \"#utility.yul\":3465:3478   */\n  mul\n    /* \"#utility.yul\":3436:3487   */\n  tag_47\n  jump\t// in\ntag_93:\n    /* \"#utility.yul\":3432:3488   */\n  not\n    /* \"#utility.yul\":3517:3521   */\n  dup1\n    /* \"#utility.yul\":3511:3515   */\n  dup4\n    /* \"#utility.yul\":3507:3522   */\n  and\n    /* \"#utility.yul\":3497:3522   */\n  swap2\n  pop\n    /* \"#utility.yul\":3410:3528   */\n  pop\n    /* \"#utility.yul\":3359:3528   */\n  swap3\n  swap2\n  pop\n  pop\n  jump\t// out\n    /* \"#utility.yul\":3533:3828   */\ntag_49:\n    /* \"#utility.yul\":3609:3613   */\n  0x00\n    /* \"#utility.yul\":3755:3784   */\n  tag_95\n    /* \"#utility.yul\":3780:3783   */\n  dup4\n    /* \"#utility.yul\":3774:3778   */\n  dup4\n    /* \"#utility.yul\":3755:3784   */\n  tag_48\n  jump\t// in\ntag_95:\n    /* \"#utility.yul\":3747:3784   */\n  swap2\n  pop\n    /* \"#utility.yul\":3817:3820   */\n  dup3\n    /* \"#utility.yul\":3814:3815   */\n  0x02\n    /* \"#utility.yul\":3810:3821   */\n  mul\n    /* \"#utility.yul\":3804:3808   */\n  dup3\n    /* \"#utility.yul\":3801:3822   */\n  or\n    /* \"#utility.yul\":3793:3822   */\n  swap1\n  pop\n    /* \"#utility.yul\":3533:3828   */\n  swap3\n  swap2\n  pop\n  pop\n  jump\t// out\n    /* \"#utility.yul\":3833:5228   */\ntag_17:\n    /* \"#utility.yul\":3950:3987   */\n  tag_97\n    /* \"#utility.yul\":3983:3986   */\n  dup3\n    /* \"#utility.yul\":3950:3987   */\n  tag_31\n  jump\t// in\ntag_97:\n    /* \"#utility.yul\":4052:4070   */\n  0xffffffffffffffff\n    /* \"#utility.yul\":4044:4050   */\n  dup2\n    /* \"#utility.yul\":4041:4071   */\n  gt\n    /* \"#utility.yul\":4038:4094   */\n  iszero\n  tag_98\n  jumpi\n    /* \"#utility.yul\":4074:4092   */\n  tag_99\n  tag_32\n  jump\t// in\ntag_99:\n    /* \"#utility.yul\":4038:4094   */\ntag_98:\n    /* \"#utility.yul\":4118:4156   */\n  tag_100\n    /* \"#utility.yul\":4150:4154   */\n  dup3\n    /* \"#utility.yul\":4144:4155   */\n  sload\n    /* \"#utility.yul\":4118:4156   */\n  tag_27\n  jump\t// in\ntag_100:\n    /* \"#utility.yul\":4203:4270   */\n  tag_101\n    /* \"#utility.yul\":4263:4269   */\n  dup3\n    /* \"#utility.yul\":4255:4261   */\n  dup3\n    /* \"#utility.yul\":4249:4253   */\n  dup6\n    /* \"#utility.yul\":4203:4270   */\n  tag_46\n  jump\t// in\ntag_101:\n    /* \"#utility.yul\":4297:4298   */\n  0x00\n    /* \"#utility.yul\":4321:4325   */\n  0x20\n    /* \"#utility.yul\":4308:4325   */\n  swap1\n  pop\n    /* \"#utility.yul\":4353:4355   */\n  0x1f\n    /* \"#utility.yul\":4345:4351   */\n  dup4\n    /* \"#utility.yul\":4342:4356   */\n  gt\n    /* \"#utility.yul\":4370:4371   */\n  0x01\n    /* \"#utility.yul\":4365:4983   */\n  dup2\n  eq\n  tag_103\n  jumpi\n    /* \"#utility.yul\":5027:5028   */\n  0x00\n    /* \"#utility.yul\":5044:5050   */\n  dup5\n    /* \"#utility.yul\":5041:5118   */\n  iszero\n  tag_104\n  jumpi\n    /* \"#utility.yul\":5093:5102   */\n  dup3\n    /* \"#utility.yul\":5088:5091   */\n  dup8\n    /* \"#utility.yul\":5084:5103   */\n  add\n    /* \"#utility.yul\":5078:5104   */\n  mload\n    /* \"#utility.yul\":5069:5104   */\n  swap1\n  pop\n    /* \"#utility.yul\":5041:5118   */\ntag_104:\n    /* \"#utility.yul\":5144:5211   */\n  tag_105\n    /* \"#utility.yul\":5204:5210   */\n  dup6\n    /* \"#utility.yul\":5197:5202   */\n  dup3\n    /* \"#utility.yul\":5144:5211   */\n  tag_49\n  jump\t// in\ntag_105:\n    /* \"#utility.yul\":5138:5142   */\n  dup7\n    /* \"#utility.yul\":5131:5212   */\n  sstore\n    /* \"#utility.yul\":5000:5222   */\n  pop\n    /* \"#utility.yul\":4335:5222   */\n  jump(tag_102)\n    /* \"#utility.yul\":4365:4983   */\ntag_103:\n    /* \"#utility.yul\":4417:4421   */\n  0x1f\n    /* \"#utility.yul\":4413:4422   */\n  not\n    /* \"#utility.yul\":4405:4411   */\n  dup5\n    /* \"#utility.yul\":4401:4423   */\n  and\n    /* \"#utility.yul\":4451:4488   */\n  tag_106\n    /* \"#utility.yul\":4483:4487   */\n  dup7\n    /* \"#utility.yul\":4451:4488   */\n  tag_34\n  jump\t// in\ntag_106:\n    /* \"#utility.yul\":4510:4511   */\n  0x00\n    /* \"#utility.yul\":4524:4732   */\ntag_107:\n    /* \"#utility.yul\":4538:4545   */\n  dup3\n    /* \"#utility.yul\":4535:4536   */\n  dup2\n    /* \"#utility.yul\":4532:4546   */\n  lt\n    /* \"#utility.yul\":4524:4732   */\n  iszero\n  tag_109\n  jumpi\n    /* \"#utility.yul\":4617:4626   */\n  dup5\n    /* \"#utility.yul\":4612:4615   */\n  dup10\n    /* \"#utility.yul\":4608:4627   */\n  add\n    /* \"#utility.yul\":4602:4628   */\n  mload\n    /* \"#utility.yul\":4594:4600   */\n  dup3\n    /* \"#utility.yul\":4587:4629   */\n  sstore\n    /* \"#utility.yul\":4668:4669   */\n  0x01\n    /* \"#utility.yul\":4660:4666   */\n  dup3\n    /* \"#utility.yul\":4656:4670   */\n  add\n    /* \"#utility.yul\":4646:4670   */\n  swap2\n  pop\n    /* \"#utility.yul\":4715:4717   */\n  0x20\n    /* \"#utility.yul\":4704:4713   */\n  dup6\n    /* \"#utility.yul\":4700:4718   */\n  add\n    /* \"#utility.yul\":4687:4718   */\n  swap5\n  pop\n    /* \"#utility.yul\":4561:4565   */\n  0x20\n    /* \"#utility.yul\":4558:4559   */\n  dup2\n    /* \"#utility.yul\":4554:4566   */\n  add\n    /* \"#utility.yul\":4549:4566   */\n  swap1\n  pop\n    /* \"#utility.yul\":4524:4732   */\n  jump(tag_107)\ntag_109:\n    /* \"#utility.yul\":4760:4766   */\n  dup7\n    /* \"#utility.yul\":4751:4758   */\n  dup4\n    /* \"#utility.yul\":4748:4767   */\n  lt\n    /* \"#utility.yul\":4745:4924   */\n  iszero\n  tag_110\n  jumpi\n    /* \"#utility.yul\":4818:4827   */\n  dup5\n    /* \"#utility.yul\":4813:4816   */\n  dup10\n    /* \"#utility.yul\":4809:4828   */\n  add\n    /* \"#utility.yul\":4803:4829   */\n  mload\n    /* \"#utility.yul\":4861:4909   */\n  tag_111\n    /* \"#utility.yul\":4903:4907   */\n  0x1f\n    /* \"#utility.yul\":4895:4901   */\n  dup10\n    /* \"#utility.yul\":4891:4908   */\n  and\n    /* \"#utility.yul\":4880:4889   */\n  dup3\n    /* \"#utility.yul\":4861:4909   */\n  tag_48\n  jump\t// in\ntag_111:\n    /* \"#utility.yul\":4853:4859   */\n  dup4\n    /* \"#utility.yul\":4846:4910   */\n  sstore\n    /* \"#utility.yul\":4768:4924   */\n  pop\n    /* \"#utility.yul\":4745:4924   */\ntag_110:\n    /* \"#utility.yul\":4970:4971   */\n  0x01\n    /* \"#utility.yul\":4966:4967   */\n  0x02\n    /* \"#utility.yul\":4958:4964   */\n  dup9\n    /* \"#utility.yul\":4954:4968   */\n  mul\n    /* \"#utility.yul\":4950:4972   */\n  add\n    /* \"#utility.yul\":4944:4948   */\n  dup9\n    /* \"#utility.yul\":4937:4973   */\n  sstore\n    /* \"#utility.yul\":4372:4983   */\n  pop\n  pop\n  pop\n    /* \"#utility.yul\":4335:5222   */\ntag_102:\n  pop\n    /* \"#utility.yul\":3925:5228   */\n  pop\n  pop\n  pop\n    /* \"#utility.yul\":3833:5228   */\n  pop\n  pop\n  jump\t// out\n    /* \"contracts/int_to_roman.sol\":58:854  contract IntToRoman {... */\ntag_6:\n  dataSize(sub_0)\n  dup1\n  dataOffset(sub_0)\n  0x00\n  codecopy\n  0x00\n  return\nstop\n\nsub_0: assembly {\n        /* \"contracts/int_to_roman.sol\":58:854  contract IntToRoman {... */\n      mstore(0x40, 0x80)\n      callvalue\n      dup1\n      iszero\n      tag_1\n      jumpi\n      revert(0x00, 0x00)\n    tag_1:\n      pop\n      jumpi(tag_2, lt(calldatasize, 0x04))\n      shr(0xe0, calldataload(0x00))\n      dup1\n      0x1e17ecea\n      eq\n      tag_3\n      jumpi\n    tag_2:\n      revert(0x00, 0x00)\n        /* \"contracts/int_to_roman.sol\":378:851  function intToRoman(uint16 num) public view returns (string memory) {... */\n    tag_3:\n      tag_4\n      0x04\n      dup1\n      calldatasize\n      sub\n      dup2\n      add\n      swap1\n      tag_5\n      swap2\n      swap1\n      tag_6\n      jump\t// in\n    tag_5:\n      tag_7\n      jump\t// in\n    tag_4:\n      mload(0x40)\n      tag_8\n      swap2\n      swap1\n      tag_9\n      jump\t// in\n    tag_8:\n      mload(0x40)\n      dup1\n      swap2\n      sub\n      swap1\n      return\n    tag_7:\n        /* \"contracts/int_to_roman.sol\":431:444  string memory */\n      0x60\n        /* \"contracts/int_to_roman.sol\":471:472  0 */\n      0x00\n        /* \"contracts/int_to_roman.sol\":465:468  num */\n      dup3\n        /* \"contracts/int_to_roman.sol\":465:472  num > 0 */\n      0xffff\n      and\n      gt\n        /* \"contracts/int_to_roman.sol\":465:486  num > 0 && num < 4000 */\n      dup1\n      iszero\n      tag_11\n      jumpi\n      pop\n        /* \"contracts/int_to_roman.sol\":482:486  4000 */\n      0x0fa0\n        /* \"contracts/int_to_roman.sol\":476:479  num */\n      dup3\n        /* \"contracts/int_to_roman.sol\":476:486  num < 4000 */\n      0xffff\n      and\n      lt\n        /* \"contracts/int_to_roman.sol\":465:486  num > 0 && num < 4000 */\n    tag_11:\n        /* \"contracts/int_to_roman.sol\":457:525  require(num > 0 && num < 4000, \"Number must be between 1 and 39990\") */\n      tag_12\n      jumpi\n      mload(0x40)\n      0x08c379a000000000000000000000000000000000000000000000000000000000\n      dup2\n      mstore\n      0x04\n      add\n      tag_13\n      swap1\n      tag_14\n      jump\t// in\n    tag_13:\n      mload(0x40)\n      dup1\n      swap2\n      sub\n      swap1\n      revert\n    tag_12:\n        /* \"contracts/int_to_roman.sol\":538:558  string memory result */\n      0x00\n        /* \"contracts/int_to_roman.sol\":538:563  string memory result = \"\" */\n      mload(0x40)\n      dup1\n      0x20\n      add\n      0x40\n      mstore\n      dup1\n      0x00\n      dup2\n      mstore\n      pop\n      swap1\n      pop\n        /* \"contracts/int_to_roman.sol\":574:582  uint16 i */\n      0x00\n        /* \"contracts/int_to_roman.sol\":585:586  0 */\n      0x00\n        /* \"contracts/int_to_roman.sol\":574:586  uint16 i = 0 */\n      swap1\n      pop\n        /* \"contracts/int_to_roman.sol\":597:820  while (num > 0) {... */\n    tag_15:\n        /* \"contracts/int_to_roman.sol\":610:611  0 */\n      0x00\n        /* \"contracts/int_to_roman.sol\":604:607  num */\n      dup5\n        /* \"contracts/int_to_roman.sol\":604:611  num > 0 */\n      0xffff\n      and\n      gt\n        /* \"contracts/int_to_roman.sol\":597:820  while (num > 0) {... */\n      iszero\n      tag_16\n      jumpi\n        /* \"contracts/int_to_roman.sol\":646:649  num */\n      dup4\n        /* \"contracts/int_to_roman.sol\":632:649  _values[i] <= num */\n      0xffff\n      and\n        /* \"contracts/int_to_roman.sol\":632:639  _values */\n      0x00\n        /* \"contracts/int_to_roman.sol\":640:641  i */\n      dup3\n        /* \"contracts/int_to_roman.sol\":632:642  _values[i] */\n      0xffff\n      and\n      dup2\n      sload\n      dup2\n      lt\n      tag_17\n      jumpi\n      tag_18\n      tag_19\n      jump\t// in\n    tag_18:\n    tag_17:\n      swap1\n      0x00\n      mstore\n      keccak256(0x00, 0x20)\n      swap1\n      0x10\n      swap2\n      dup3\n      dup3\n      div\n      add\n      swap2\n      swap1\n      mod\n      0x02\n      mul\n      swap1\n      sload\n      swap1\n      0x0100\n      exp\n      swap1\n      div\n      0xffff\n      and\n        /* \"contracts/int_to_roman.sol\":632:649  _values[i] <= num */\n      0xffff\n      and\n      gt\n        /* \"contracts/int_to_roman.sol\":628:809  if (_values[i] <= num) {... */\n      tag_21\n      jumpi\n        /* \"contracts/int_to_roman.sol\":693:699  result */\n      dup2\n        /* \"contracts/int_to_roman.sol\":701:709  _symbols */\n      0x01\n        /* \"contracts/int_to_roman.sol\":710:711  i */\n      dup3\n        /* \"contracts/int_to_roman.sol\":701:712  _symbols[i] */\n      0xffff\n      and\n      dup2\n      sload\n      dup2\n      lt\n      tag_22\n      jumpi\n      tag_23\n      tag_19\n      jump\t// in\n    tag_23:\n    tag_22:\n      swap1\n      0x00\n      mstore\n      keccak256(0x00, 0x20)\n      add\n        /* \"contracts/int_to_roman.sol\":679:713  string.concat(result, _symbols[i]) */\n      add(0x20, mload(0x40))\n      tag_25\n      swap3\n      swap2\n      swap1\n      tag_26\n      jump\t// in\n    tag_25:\n      mload(0x40)\n      0x20\n      dup2\n      dup4\n      sub\n      sub\n      dup2\n      mstore\n      swap1\n      0x40\n      mstore\n        /* \"contracts/int_to_roman.sol\":670:713  result = string.concat(result, _symbols[i]) */\n      swap2\n      pop\n        /* \"contracts/int_to_roman.sol\":739:746  _values */\n      0x00\n        /* \"contracts/int_to_roman.sol\":747:748  i */\n      dup2\n        /* \"contracts/int_to_roman.sol\":739:749  _values[i] */\n      0xffff\n      and\n      dup2\n      sload\n      dup2\n      lt\n      tag_27\n      jumpi\n      tag_28\n      tag_19\n      jump\t// in\n    tag_28:\n    tag_27:\n      swap1\n      0x00\n      mstore\n      keccak256(0x00, 0x20)\n      swap1\n      0x10\n      swap2\n      dup3\n      dup3\n      div\n      add\n      swap2\n      swap1\n      mod\n      0x02\n      mul\n      swap1\n      sload\n      swap1\n      0x0100\n      exp\n      swap1\n      div\n      0xffff\n      and\n        /* \"contracts/int_to_roman.sol\":732:749  num -= _values[i] */\n      dup5\n      tag_30\n      swap2\n      swap1\n      tag_31\n      jump\t// in\n    tag_30:\n      swap4\n      pop\n        /* \"contracts/int_to_roman.sol\":628:809  if (_values[i] <= num) {... */\n      jump(tag_32)\n    tag_21:\n        /* \"contracts/int_to_roman.sol\":790:793  i++ */\n      dup1\n      dup1\n      tag_33\n      swap1\n      tag_34\n      jump\t// in\n    tag_33:\n      swap2\n      pop\n      pop\n        /* \"contracts/int_to_roman.sol\":628:809  if (_values[i] <= num) {... */\n    tag_32:\n        /* \"contracts/int_to_roman.sol\":597:820  while (num > 0) {... */\n      jump(tag_15)\n    tag_16:\n        /* \"contracts/int_to_roman.sol\":837:843  result */\n      dup2\n        /* \"contracts/int_to_roman.sol\":830:843  return result */\n      swap3\n      pop\n      pop\n      pop\n        /* \"contracts/int_to_roman.sol\":378:851  function intToRoman(uint16 num) public view returns (string memory) {... */\n      swap2\n      swap1\n      pop\n      jump\t// out\n        /* \"#utility.yul\":88:205   */\n    tag_36:\n        /* \"#utility.yul\":197:198   */\n      0x00\n        /* \"#utility.yul\":194:195   */\n      0x00\n        /* \"#utility.yul\":187:199   */\n      revert\n        /* \"#utility.yul\":334:423   */\n    tag_38:\n        /* \"#utility.yul\":370:377   */\n      0x00\n        /* \"#utility.yul\":410:416   */\n      0xffff\n        /* \"#utility.yul\":403:408   */\n      dup3\n        /* \"#utility.yul\":399:417   */\n      and\n        /* \"#utility.yul\":388:417   */\n      swap1\n      pop\n        /* \"#utility.yul\":334:423   */\n      swap2\n      swap1\n      pop\n      jump\t// out\n        /* \"#utility.yul\":429:549   */\n    tag_39:\n        /* \"#utility.yul\":501:524   */\n      tag_61\n        /* \"#utility.yul\":518:523   */\n      dup2\n        /* \"#utility.yul\":501:524   */\n      tag_38\n      jump\t// in\n    tag_61:\n        /* \"#utility.yul\":494:499   */\n      dup2\n        /* \"#utility.yul\":491:525   */\n      eq\n        /* \"#utility.yul\":481:543   */\n      tag_62\n      jumpi\n        /* \"#utility.yul\":539:540   */\n      0x00\n        /* \"#utility.yul\":536:537   */\n      0x00\n        /* \"#utility.yul\":529:541   */\n      revert\n        /* \"#utility.yul\":481:543   */\n    tag_62:\n        /* \"#utility.yul\":429:549   */\n      pop\n      jump\t// out\n        /* \"#utility.yul\":555:692   */\n    tag_40:\n        /* \"#utility.yul\":600:605   */\n      0x00\n        /* \"#utility.yul\":638:644   */\n      dup2\n        /* \"#utility.yul\":625:645   */\n      calldataload\n        /* \"#utility.yul\":616:645   */\n      swap1\n      pop\n        /* \"#utility.yul\":654:686   */\n      tag_64\n        /* \"#utility.yul\":680:685   */\n      dup2\n        /* \"#utility.yul\":654:686   */\n      tag_39\n      jump\t// in\n    tag_64:\n        /* \"#utility.yul\":555:692   */\n      swap3\n      swap2\n      pop\n      pop\n      jump\t// out\n        /* \"#utility.yul\":698:1025   */\n    tag_6:\n        /* \"#utility.yul\":756:762   */\n      0x00\n        /* \"#utility.yul\":805:807   */\n      0x20\n        /* \"#utility.yul\":793:802   */\n      dup3\n        /* \"#utility.yul\":784:791   */\n      dup5\n        /* \"#utility.yul\":780:803   */\n      sub\n        /* \"#utility.yul\":776:808   */\n      slt\n        /* \"#utility.yul\":773:892   */\n      iszero\n      tag_66\n      jumpi\n        /* \"#utility.yul\":811:890   */\n      tag_67\n      tag_36\n      jump\t// in\n    tag_67:\n        /* \"#utility.yul\":773:892   */\n    tag_66:\n        /* \"#utility.yul\":931:932   */\n      0x00\n        /* \"#utility.yul\":956:1008   */\n      tag_68\n        /* \"#utility.yul\":1000:1007   */\n      dup5\n        /* \"#utility.yul\":991:997   */\n      dup3\n        /* \"#utility.yul\":980:989   */\n      dup6\n        /* \"#utility.yul\":976:998   */\n      add\n        /* \"#utility.yul\":956:1008   */\n      tag_40\n      jump\t// in\n    tag_68:\n        /* \"#utility.yul\":946:1008   */\n      swap2\n      pop\n        /* \"#utility.yul\":902:1018   */\n      pop\n        /* \"#utility.yul\":698:1025   */\n      swap3\n      swap2\n      pop\n      pop\n      jump\t// out\n        /* \"#utility.yul\":1031:1130   */\n    tag_41:\n        /* \"#utility.yul\":1083:1089   */\n      0x00\n        /* \"#utility.yul\":1117:1122   */\n      dup2\n        /* \"#utility.yul\":1111:1123   */\n      mload\n        /* \"#utility.yul\":1101:1123   */\n      swap1\n      pop\n        /* \"#utility.yul\":1031:1130   */\n      swap2\n      swap1\n      pop\n      jump\t// out\n        /* \"#utility.yul\":1136:1305   */\n    tag_42:\n        /* \"#utility.yul\":1220:1231   */\n      0x00\n        /* \"#utility.yul\":1254:1260   */\n      dup3\n        /* \"#utility.yul\":1249:1252   */\n      dup3\n        /* \"#utility.yul\":1242:1261   */\n      mstore\n        /* \"#utility.yul\":1294:1298   */\n      0x20\n        /* \"#utility.yul\":1289:1292   */\n      dup3\n        /* \"#utility.yul\":1285:1299   */\n      add\n        /* \"#utility.yul\":1270:1299   */\n      swap1\n      pop\n        /* \"#utility.yul\":1136:1305   */\n      swap3\n      swap2\n      pop\n      pop\n      jump\t// out\n        /* \"#utility.yul\":1311:1559   */\n    tag_43:\n        /* \"#utility.yul\":1393:1394   */\n      0x00\n        /* \"#utility.yul\":1403:1516   */\n    tag_72:\n        /* \"#utility.yul\":1417:1423   */\n      dup4\n        /* \"#utility.yul\":1414:1415   */\n      dup2\n        /* \"#utility.yul\":1411:1424   */\n      lt\n        /* \"#utility.yul\":1403:1516   */\n      iszero\n      tag_74\n      jumpi\n        /* \"#utility.yul\":1502:1503   */\n      dup1\n        /* \"#utility.yul\":1497:1500   */\n      dup3\n        /* \"#utility.yul\":1493:1504   */\n      add\n        /* \"#utility.yul\":1487:1505   */\n      mload\n        /* \"#utility.yul\":1483:1484   */\n      dup2\n        /* \"#utility.yul\":1478:1481   */\n      dup5\n        /* \"#utility.yul\":1474:1485   */\n      add\n        /* \"#utility.yul\":1467:1506   */\n      mstore\n        /* \"#utility.yul\":1439:1441   */\n      0x20\n        /* \"#utility.yul\":1436:1437   */\n      dup2\n        /* \"#utility.yul\":1432:1442   */\n      add\n        /* \"#utility.yul\":1427:1442   */\n      swap1\n      pop\n        /* \"#utility.yul\":1403:1516   */\n      jump(tag_72)\n    tag_74:\n        /* \"#utility.yul\":1550:1551   */\n      0x00\n        /* \"#utility.yul\":1541:1547   */\n      dup5\n        /* \"#utility.yul\":1536:1539   */\n      dup5\n        /* \"#utility.yul\":1532:1548   */\n      add\n        /* \"#utility.yul\":1525:1552   */\n      mstore\n        /* \"#utility.yul\":1373:1559   */\n      pop\n        /* \"#utility.yul\":1311:1559   */\n      pop\n      pop\n      pop\n      jump\t// out\n        /* \"#utility.yul\":1565:1667   */\n    tag_44:\n        /* \"#utility.yul\":1606:1612   */\n      0x00\n        /* \"#utility.yul\":1657:1659   */\n      0x1f\n        /* \"#utility.yul\":1653:1660   */\n      not\n        /* \"#utility.yul\":1648:1650   */\n      0x1f\n        /* \"#utility.yul\":1641:1646   */\n      dup4\n        /* \"#utility.yul\":1637:1651   */\n      add\n        /* \"#utility.yul\":1633:1661   */\n      and\n        /* \"#utility.yul\":1623:1661   */\n      swap1\n      pop\n        /* \"#utility.yul\":1565:1667   */\n      swap2\n      swap1\n      pop\n      jump\t// out\n        /* \"#utility.yul\":1673:2050   */\n    tag_45:\n        /* \"#utility.yul\":1761:1764   */\n      0x00\n        /* \"#utility.yul\":1789:1828   */\n      tag_77\n        /* \"#utility.yul\":1822:1827   */\n      dup3\n        /* \"#utility.yul\":1789:1828   */\n      tag_41\n      jump\t// in\n    tag_77:\n        /* \"#utility.yul\":1844:1915   */\n      tag_78\n        /* \"#utility.yul\":1908:1914   */\n      dup2\n        /* \"#utility.yul\":1903:1906   */\n      dup6\n        /* \"#utility.yul\":1844:1915   */\n      tag_42\n      jump\t// in\n    tag_78:\n        /* \"#utility.yul\":1837:1915   */\n      swap4\n      pop\n        /* \"#utility.yul\":1924:1989   */\n      tag_79\n        /* \"#utility.yul\":1982:1988   */\n      dup2\n        /* \"#utility.yul\":1977:1980   */\n      dup6\n        /* \"#utility.yul\":1970:1974   */\n      0x20\n        /* \"#utility.yul\":1963:1968   */\n      dup7\n        /* \"#utility.yul\":1959:1975   */\n      add\n        /* \"#utility.yul\":1924:1989   */\n      tag_43\n      jump\t// in\n    tag_79:\n        /* \"#utility.yul\":2014:2043   */\n      tag_80\n        /* \"#utility.yul\":2036:2042   */\n      dup2\n        /* \"#utility.yul\":2014:2043   */\n      tag_44\n      jump\t// in\n    tag_80:\n        /* \"#utility.yul\":2009:2012   */\n      dup5\n        /* \"#utility.yul\":2005:2044   */\n      add\n        /* \"#utility.yul\":1998:2044   */\n      swap2\n      pop\n        /* \"#utility.yul\":1765:2050   */\n      pop\n        /* \"#utility.yul\":1673:2050   */\n      swap3\n      swap2\n      pop\n      pop\n      jump\t// out\n        /* \"#utility.yul\":2056:2369   */\n    tag_9:\n        /* \"#utility.yul\":2169:2173   */\n      0x00\n        /* \"#utility.yul\":2207:2209   */\n      0x20\n        /* \"#utility.yul\":2196:2205   */\n      dup3\n        /* \"#utility.yul\":2192:2210   */\n      add\n        /* \"#utility.yul\":2184:2210   */\n      swap1\n      pop\n        /* \"#utility.yul\":2256:2265   */\n      dup2\n        /* \"#utility.yul\":2250:2254   */\n      dup2\n        /* \"#utility.yul\":2246:2266   */\n      sub\n        /* \"#utility.yul\":2242:2243   */\n      0x00\n        /* \"#utility.yul\":2231:2240   */\n      dup4\n        /* \"#utility.yul\":2227:2244   */\n      add\n        /* \"#utility.yul\":2220:2267   */\n      mstore\n        /* \"#utility.yul\":2284:2362   */\n      tag_82\n        /* \"#utility.yul\":2357:2361   */\n      dup2\n        /* \"#utility.yul\":2348:2354   */\n      dup5\n        /* \"#utility.yul\":2284:2362   */\n      tag_45\n      jump\t// in\n    tag_82:\n        /* \"#utility.yul\":2276:2362   */\n      swap1\n      pop\n        /* \"#utility.yul\":2056:2369   */\n      swap3\n      swap2\n      pop\n      pop\n      jump\t// out\n        /* \"#utility.yul\":2375:2596   */\n    tag_46:\n        /* \"#utility.yul\":2515:2549   */\n      0x4e756d626572206d757374206265206265747765656e203120616e6420333939\n        /* \"#utility.yul\":2511:2512   */\n      0x00\n        /* \"#utility.yul\":2503:2509   */\n      dup3\n        /* \"#utility.yul\":2499:2513   */\n      add\n        /* \"#utility.yul\":2492:2550   */\n      mstore\n        /* \"#utility.yul\":2584:2588   */\n      0x3930000000000000000000000000000000000000000000000000000000000000\n        /* \"#utility.yul\":2579:2581   */\n      0x20\n        /* \"#utility.yul\":2571:2577   */\n      dup3\n        /* \"#utility.yul\":2567:2582   */\n      add\n        /* \"#utility.yul\":2560:2589   */\n      mstore\n        /* \"#utility.yul\":2375:2596   */\n      pop\n      jump\t// out\n        /* \"#utility.yul\":2602:2968   */\n    tag_47:\n        /* \"#utility.yul\":2744:2747   */\n      0x00\n        /* \"#utility.yul\":2765:2832   */\n      tag_85\n        /* \"#utility.yul\":2829:2831   */\n      0x22\n        /* \"#utility.yul\":2824:2827   */\n      dup4\n        /* \"#utility.yul\":2765:2832   */\n      tag_42\n      jump\t// in\n    tag_85:\n        /* \"#utility.yul\":2758:2832   */\n      swap2\n      pop\n        /* \"#utility.yul\":2841:2934   */\n      tag_86\n        /* \"#utility.yul\":2930:2933   */\n      dup3\n        /* \"#utility.yul\":2841:2934   */\n      tag_46\n      jump\t// in\n    tag_86:\n        /* \"#utility.yul\":2959:2961   */\n      0x40\n        /* \"#utility.yul\":2954:2957   */\n      dup3\n        /* \"#utility.yul\":2950:2962   */\n      add\n        /* \"#utility.yul\":2943:2962   */\n      swap1\n      pop\n        /* \"#utility.yul\":2602:2968   */\n      swap2\n      swap1\n      pop\n      jump\t// out\n        /* \"#utility.yul\":2974:3393   */\n    tag_14:\n        /* \"#utility.yul\":3140:3144   */\n      0x00\n        /* \"#utility.yul\":3178:3180   */\n      0x20\n        /* \"#utility.yul\":3167:3176   */\n      dup3\n        /* \"#utility.yul\":3163:3181   */\n      add\n        /* \"#utility.yul\":3155:3181   */\n      swap1\n      pop\n        /* \"#utility.yul\":3227:3236   */\n      dup2\n        /* \"#utility.yul\":3221:3225   */\n      dup2\n        /* \"#utility.yul\":3217:3237   */\n      sub\n        /* \"#utility.yul\":3213:3214   */\n      0x00\n        /* \"#utility.yul\":3202:3211   */\n      dup4\n        /* \"#utility.yul\":3198:3215   */\n      add\n        /* \"#utility.yul\":3191:3238   */\n      mstore\n        /* \"#utility.yul\":3255:3386   */\n      tag_88\n        /* \"#utility.yul\":3381:3385   */\n      dup2\n        /* \"#utility.yul\":3255:3386   */\n      tag_47\n      jump\t// in\n    tag_88:\n        /* \"#utility.yul\":3247:3386   */\n      swap1\n      pop\n        /* \"#utility.yul\":2974:3393   */\n      swap2\n      swap1\n      pop\n      jump\t// out\n        /* \"#utility.yul\":3399:3579   */\n    tag_19:\n        /* \"#utility.yul\":3447:3524   */\n      0x4e487b7100000000000000000000000000000000000000000000000000000000\n        /* \"#utility.yul\":3444:3445   */\n      0x00\n        /* \"#utility.yul\":3437:3525   */\n      mstore\n        /* \"#utility.yul\":3544:3548   */\n      0x32\n        /* \"#utility.yul\":3541:3542   */\n      0x04\n        /* \"#utility.yul\":3534:3549   */\n      mstore\n        /* \"#utility.yul\":3568:3572   */\n      0x24\n        /* \"#utility.yul\":3565:3566   */\n      0x00\n        /* \"#utility.yul\":3558:3573   */\n      revert\n        /* \"#utility.yul\":3585:3733   */\n    tag_48:\n        /* \"#utility.yul\":3687:3698   */\n      0x00\n        /* \"#utility.yul\":3724:3727   */\n      dup2\n        /* \"#utility.yul\":3709:3727   */\n      swap1\n      pop\n        /* \"#utility.yul\":3585:3733   */\n      swap3\n      swap2\n      pop\n      pop\n      jump\t// out\n        /* \"#utility.yul\":3739:4129   */\n    tag_49:\n        /* \"#utility.yul\":3845:3848   */\n      0x00\n        /* \"#utility.yul\":3873:3912   */\n      tag_92\n        /* \"#utility.yul\":3906:3911   */\n      dup3\n        /* \"#utility.yul\":3873:3912   */\n      tag_41\n      jump\t// in\n    tag_92:\n        /* \"#utility.yul\":3928:4017   */\n      tag_93\n        /* \"#utility.yul\":4010:4016   */\n      dup2\n        /* \"#utility.yul\":4005:4008   */\n      dup6\n        /* \"#utility.yul\":3928:4017   */\n      tag_48\n      jump\t// in\n    tag_93:\n        /* \"#utility.yul\":3921:4017   */\n      swap4\n      pop\n        /* \"#utility.yul\":4026:4091   */\n      tag_94\n        /* \"#utility.yul\":4084:4090   */\n      dup2\n        /* \"#utility.yul\":4079:4082   */\n      dup6\n        /* \"#utility.yul\":4072:4076   */\n      0x20\n        /* \"#utility.yul\":4065:4070   */\n      dup7\n        /* \"#utility.yul\":4061:4077   */\n      add\n        /* \"#utility.yul\":4026:4091   */\n      tag_43\n      jump\t// in\n    tag_94:\n        /* \"#utility.yul\":4116:4122   */\n      dup1\n        /* \"#utility.yul\":4111:4114   */\n      dup5\n        /* \"#utility.yul\":4107:4123   */\n      add\n        /* \"#utility.yul\":4100:4123   */\n      swap2\n      pop\n        /* \"#utility.yul\":3849:4129   */\n      pop\n        /* \"#utility.yul\":3739:4129   */\n      swap3\n      swap2\n      pop\n      pop\n      jump\t// out\n        /* \"#utility.yul\":4135:4315   */\n    tag_50:\n        /* \"#utility.yul\":4183:4260   */\n      0x4e487b7100000000000000000000000000000000000000000000000000000000\n        /* \"#utility.yul\":4180:4181   */\n      0x00\n        /* \"#utility.yul\":4173:4261   */\n      mstore\n        /* \"#utility.yul\":4280:4284   */\n      0x22\n        /* \"#utility.yul\":4277:4278   */\n      0x04\n        /* \"#utility.yul\":4270:4285   */\n      mstore\n        /* \"#utility.yul\":4304:4308   */\n      0x24\n        /* \"#utility.yul\":4301:4302   */\n      0x00\n        /* \"#utility.yul\":4294:4309   */\n      revert\n        /* \"#utility.yul\":4321:4641   */\n    tag_51:\n        /* \"#utility.yul\":4365:4371   */\n      0x00\n        /* \"#utility.yul\":4402:4403   */\n      0x02\n        /* \"#utility.yul\":4396:4400   */\n      dup3\n        /* \"#utility.yul\":4392:4404   */\n      div\n        /* \"#utility.yul\":4382:4404   */\n      swap1\n      pop\n        /* \"#utility.yul\":4449:4450   */\n      0x01\n        /* \"#utility.yul\":4443:4447   */\n      dup3\n        /* \"#utility.yul\":4439:4451   */\n      and\n        /* \"#utility.yul\":4470:4488   */\n      dup1\n        /* \"#utility.yul\":4460:4541   */\n      tag_97\n      jumpi\n        /* \"#utility.yul\":4526:4530   */\n      0x7f\n        /* \"#utility.yul\":4518:4524   */\n      dup3\n        /* \"#utility.yul\":4514:4531   */\n      and\n        /* \"#utility.yul\":4504:4531   */\n      swap2\n      pop\n        /* \"#utility.yul\":4460:4541   */\n    tag_97:\n        /* \"#utility.yul\":4588:4590   */\n      0x20\n        /* \"#utility.yul\":4580:4586   */\n      dup3\n        /* \"#utility.yul\":4577:4591   */\n      lt\n        /* \"#utility.yul\":4557:4575   */\n      dup2\n        /* \"#utility.yul\":4554:4592   */\n      sub\n        /* \"#utility.yul\":4551:4635   */\n      tag_98\n      jumpi\n        /* \"#utility.yul\":4607:4625   */\n      tag_99\n      tag_50\n      jump\t// in\n    tag_99:\n        /* \"#utility.yul\":4551:4635   */\n    tag_98:\n        /* \"#utility.yul\":4372:4641   */\n      pop\n        /* \"#utility.yul\":4321:4641   */\n      swap2\n      swap1\n      pop\n      jump\t// out\n        /* \"#utility.yul\":4647:4788   */\n    tag_52:\n        /* \"#utility.yul\":4696:4700   */\n      0x00\n        /* \"#utility.yul\":4719:4722   */\n      dup2\n        /* \"#utility.yul\":4711:4722   */\n      swap1\n      pop\n        /* \"#utility.yul\":4742:4745   */\n      dup2\n        /* \"#utility.yul\":4739:4740   */\n      0x00\n        /* \"#utility.yul\":4732:4746   */\n      mstore\n        /* \"#utility.yul\":4776:4780   */\n      0x20\n        /* \"#utility.yul\":4773:4774   */\n      0x00\n        /* \"#utility.yul\":4763:4781   */\n      keccak256\n        /* \"#utility.yul\":4755:4781   */\n      swap1\n      pop\n        /* \"#utility.yul\":4647:4788   */\n      swap2\n      swap1\n      pop\n      jump\t// out\n        /* \"#utility.yul\":4818:5692   */\n    tag_53:\n        /* \"#utility.yul\":4921:4924   */\n      0x00\n        /* \"#utility.yul\":4958:4963   */\n      dup2\n        /* \"#utility.yul\":4952:4964   */\n      sload\n        /* \"#utility.yul\":4987:5023   */\n      tag_102\n        /* \"#utility.yul\":5013:5022   */\n      dup2\n        /* \"#utility.yul\":4987:5023   */\n      tag_51\n      jump\t// in\n    tag_102:\n        /* \"#utility.yul\":5039:5128   */\n      tag_103\n        /* \"#utility.yul\":5121:5127   */\n      dup2\n        /* \"#utility.yul\":5116:5119   */\n      dup7\n        /* \"#utility.yul\":5039:5128   */\n      tag_48\n      jump\t// in\n    tag_103:\n        /* \"#utility.yul\":5032:5128   */\n      swap5\n      pop\n        /* \"#utility.yul\":5159:5160   */\n      0x01\n        /* \"#utility.yul\":5148:5157   */\n      dup3\n        /* \"#utility.yul\":5144:5161   */\n      and\n        /* \"#utility.yul\":5175:5176   */\n      0x00\n        /* \"#utility.yul\":5170:5336   */\n      dup2\n      eq\n      tag_105\n      jumpi\n        /* \"#utility.yul\":5350:5351   */\n      0x01\n        /* \"#utility.yul\":5345:5686   */\n      dup2\n      eq\n      tag_106\n      jumpi\n        /* \"#utility.yul\":5137:5686   */\n      jump(tag_104)\n        /* \"#utility.yul\":5170:5336   */\n    tag_105:\n        /* \"#utility.yul\":5254:5258   */\n      0xff\n        /* \"#utility.yul\":5250:5259   */\n      not\n        /* \"#utility.yul\":5239:5248   */\n      dup4\n        /* \"#utility.yul\":5235:5260   */\n      and\n        /* \"#utility.yul\":5230:5233   */\n      dup7\n        /* \"#utility.yul\":5223:5261   */\n      mstore\n        /* \"#utility.yul\":5316:5322   */\n      dup2\n        /* \"#utility.yul\":5309:5323   */\n      iszero\n        /* \"#utility.yul\":5302:5324   */\n      iszero\n        /* \"#utility.yul\":5294:5300   */\n      dup3\n        /* \"#utility.yul\":5290:5325   */\n      mul\n        /* \"#utility.yul\":5285:5288   */\n      dup7\n        /* \"#utility.yul\":5281:5326   */\n      add\n        /* \"#utility.yul\":5274:5326   */\n      swap4\n      pop\n        /* \"#utility.yul\":5170:5336   */\n      jump(tag_104)\n        /* \"#utility.yul\":5345:5686   */\n    tag_106:\n        /* \"#utility.yul\":5412:5450   */\n      tag_107\n        /* \"#utility.yul\":5444:5449   */\n      dup6\n        /* \"#utility.yul\":5412:5450   */\n      tag_52\n      jump\t// in\n    tag_107:\n        /* \"#utility.yul\":5472:5473   */\n      0x00\n        /* \"#utility.yul\":5486:5640   */\n    tag_108:\n        /* \"#utility.yul\":5500:5506   */\n      dup4\n        /* \"#utility.yul\":5497:5498   */\n      dup2\n        /* \"#utility.yul\":5494:5507   */\n      lt\n        /* \"#utility.yul\":5486:5640   */\n      iszero\n      tag_110\n      jumpi\n        /* \"#utility.yul\":5574:5581   */\n      dup2\n        /* \"#utility.yul\":5568:5582   */\n      sload\n        /* \"#utility.yul\":5564:5565   */\n      dup2\n        /* \"#utility.yul\":5559:5562   */\n      dup10\n        /* \"#utility.yul\":5555:5566   */\n      add\n        /* \"#utility.yul\":5548:5583   */\n      mstore\n        /* \"#utility.yul\":5624:5625   */\n      0x01\n        /* \"#utility.yul\":5615:5622   */\n      dup3\n        /* \"#utility.yul\":5611:5626   */\n      add\n        /* \"#utility.yul\":5600:5626   */\n      swap2\n      pop\n        /* \"#utility.yul\":5522:5526   */\n      0x20\n        /* \"#utility.yul\":5519:5520   */\n      dup2\n        /* \"#utility.yul\":5515:5527   */\n      add\n        /* \"#utility.yul\":5510:5527   */\n      swap1\n      pop\n        /* \"#utility.yul\":5486:5640   */\n      jump(tag_108)\n    tag_110:\n        /* \"#utility.yul\":5669:5675   */\n      dup4\n        /* \"#utility.yul\":5664:5667   */\n      dup9\n        /* \"#utility.yul\":5660:5676   */\n      add\n        /* \"#utility.yul\":5653:5676   */\n      swap6\n      pop\n        /* \"#utility.yul\":5352:5686   */\n      pop\n      pop\n        /* \"#utility.yul\":5137:5686   */\n    tag_104:\n      pop\n        /* \"#utility.yul\":4925:5692   */\n      pop\n      pop\n        /* \"#utility.yul\":4818:5692   */\n      swap3\n      swap2\n      pop\n      pop\n      jump\t// out\n        /* \"#utility.yul\":5698:6127   */\n    tag_26:\n        /* \"#utility.yul\":5875:5878   */\n      0x00\n        /* \"#utility.yul\":5897:5992   */\n      tag_112\n        /* \"#utility.yul\":5988:5991   */\n      dup3\n        /* \"#utility.yul\":5979:5985   */\n      dup6\n        /* \"#utility.yul\":5897:5992   */\n      tag_49\n      jump\t// in\n    tag_112:\n        /* \"#utility.yul\":5890:5992   */\n      swap2\n      pop\n        /* \"#utility.yul\":6009:6101   */\n      tag_113\n        /* \"#utility.yul\":6097:6100   */\n      dup3\n        /* \"#utility.yul\":6088:6094   */\n      dup5\n        /* \"#utility.yul\":6009:6101   */\n      tag_53\n      jump\t// in\n    tag_113:\n        /* \"#utility.yul\":6002:6101   */\n      swap2\n      pop\n        /* \"#utility.yul\":6118:6121   */\n      dup2\n        /* \"#utility.yul\":6111:6121   */\n      swap1\n      pop\n        /* \"#utility.yul\":5698:6127   */\n      swap4\n      swap3\n      pop\n      pop\n      pop\n      jump\t// out\n        /* \"#utility.yul\":6133:6313   */\n    tag_54:\n        /* \"#utility.yul\":6181:6258   */\n      0x4e487b7100000000000000000000000000000000000000000000000000000000\n        /* \"#utility.yul\":6178:6179   */\n      0x00\n        /* \"#utility.yul\":6171:6259   */\n      mstore\n        /* \"#utility.yul\":6278:6282   */\n      0x11\n        /* \"#utility.yul\":6275:6276   */\n      0x04\n        /* \"#utility.yul\":6268:6283   */\n      mstore\n        /* \"#utility.yul\":6302:6306   */\n      0x24\n        /* \"#utility.yul\":6299:6300   */\n      0x00\n        /* \"#utility.yul\":6292:6307   */\n      revert\n        /* \"#utility.yul\":6319:6515   */\n    tag_31:\n        /* \"#utility.yul\":6358:6362   */\n      0x00\n        /* \"#utility.yul\":6378:6397   */\n      tag_116\n        /* \"#utility.yul\":6395:6396   */\n      dup3\n        /* \"#utility.yul\":6378:6397   */\n      tag_38\n      jump\t// in\n    tag_116:\n        /* \"#utility.yul\":6373:6397   */\n      swap2\n      pop\n        /* \"#utility.yul\":6411:6430   */\n      tag_117\n        /* \"#utility.yul\":6428:6429   */\n      dup4\n        /* \"#utility.yul\":6411:6430   */\n      tag_38\n      jump\t// in\n    tag_117:\n        /* \"#utility.yul\":6406:6430   */\n      swap3\n      pop\n        /* \"#utility.yul\":6454:6455   */\n      dup3\n        /* \"#utility.yul\":6451:6452   */\n      dup3\n        /* \"#utility.yul\":6447:6456   */\n      sub\n        /* \"#utility.yul\":6439:6456   */\n      swap1\n      pop\n        /* \"#utility.yul\":6478:6484   */\n      0xffff\n        /* \"#utility.yul\":6472:6476   */\n      dup2\n        /* \"#utility.yul\":6469:6485   */\n      gt\n        /* \"#utility.yul\":6466:6508   */\n      iszero\n      tag_118\n      jumpi\n        /* \"#utility.yul\":6488:6506   */\n      tag_119\n      tag_54\n      jump\t// in\n    tag_119:\n        /* \"#utility.yul\":6466:6508   */\n    tag_118:\n        /* \"#utility.yul\":6319:6515   */\n      swap3\n      swap2\n      pop\n      pop\n      jump\t// out\n        /* \"#utility.yul\":6521:6692   */\n    tag_34:\n        /* \"#utility.yul\":6559:6562   */\n      0x00\n        /* \"#utility.yul\":6582:6605   */\n      tag_121\n        /* \"#utility.yul\":6599:6604   */\n      dup3\n        /* \"#utility.yul\":6582:6605   */\n      tag_38\n      jump\t// in\n    tag_121:\n        /* \"#utility.yul\":6573:6605   */\n      swap2\n      pop\n        /* \"#utility.yul\":6627:6633   */\n      0xffff\n        /* \"#utility.yul\":6620:6625   */\n      dup3\n        /* \"#utility.yul\":6617:6634   */\n      sub\n        /* \"#utility.yul\":6614:6657   */\n      tag_122\n      jumpi\n        /* \"#utility.yul\":6637:6655   */\n      tag_123\n      tag_54\n      jump\t// in\n    tag_123:\n        /* \"#utility.yul\":6614:6657   */\n    tag_122:\n        /* \"#utility.yul\":6684:6685   */\n      0x01\n        /* \"#utility.yul\":6677:6682   */\n      dup3\n        /* \"#utility.yul\":6673:6686   */\n      add\n        /* \"#utility.yul\":6666:6686   */\n      swap1\n      pop\n        /* \"#utility.yul\":6521:6692   */\n      swap2\n      swap1\n      pop\n      jump\t// out\n\n    auxdata: 0xa264697066735822122064290e9dca071e083f2e1951cc956b41e732e9e52d59a08ba1abd44ab3fa23da64736f6c634300081e0033\n}\n",
				"bytecode": {
					"linkReferences": {},
					"object": "6080604052604051806101c001604052806103e861ffff16815260200161038461ffff1681526020016101f461ffff16815260200161019061ffff168152602001606461ffff168152602001605a61ffff168152602001603261ffff168152602001602861ffff168152602001600a61ffff168152602001600961ffff168152602001600561ffff168152602001600461ffff168152602001600161ffff1681526020015f61ffff168152505f90600e6100ba9291906103fa565b50604051806101c001604052806040518060400160405280600181526020017f4d0000000000000000000000000000000000000000000000000000000000000081525081526020016040518060400160405280600281526020017f434d00000000000000000000000000000000000000000000000000000000000081525081526020016040518060400160405280600181526020017f440000000000000000000000000000000000000000000000000000000000000081525081526020016040518060400160405280600281526020017f434400000000000000000000000000000000000000000000000000000000000081525081526020016040518060400160405280600181526020017f430000000000000000000000000000000000000000000000000000000000000081525081526020016040518060400160405280600281526020017f584300000000000000000000000000000000000000000000000000000000000081525081526020016040518060400160405280600181526020017f4c0000000000000000000000000000000000000000000000000000000000000081525081526020016040518060400160405280600281526020017f584c00000000000000000000000000000000000000000000000000000000000081525081526020016040518060400160405280600181526020017f580000000000000000000000000000000000000000000000000000000000000081525081526020016040518060400160405280600281526020017f495800000000000000000000000000000000000000000000000000000000000081525081526020016040518060400160405280600181526020017f560000000000000000000000000000000000000000000000000000000000000081525081526020016040518060400160405280600281526020017f495600000000000000000000000000000000000000000000000000000000000081525081526020016040518060400160405280600181526020017f4900000000000000000000000000000000000000000000000000000000000000815250815260200160405180602001604052805f815250815250600190600e6103e89291906104a1565b503480156103f4575f5ffd5b5061087f565b828054828255905f5260205f2090600f01601090048101928215610490579160200282015f5b8382111561046057835183826101000a81548161ffff021916908361ffff1602179055509260200192600201602081600101049283019260010302610420565b801561048e5782816101000a81549061ffff0219169055600201602081600101049283019260010302610460565b505b50905061049d91906104f8565b5090565b828054828255905f5260205f209081019282156104e7579160200282015b828111156104e65782518290816104d691906107b0565b50916020019190600101906104bf565b5b5090506104f49190610513565b5090565b5b8082111561050f575f815f9055506001016104f9565b5090565b5b80821115610532575f81816105299190610536565b50600101610514565b5090565b508054610542906105d7565b5f825580601f106105535750610570565b601f0160209004905f5260205f209081019061056f91906104f8565b5b50565b5f81519050919050565b7f4e487b71000000000000000000000000000000000000000000000000000000005f52604160045260245ffd5b7f4e487b71000000000000000000000000000000000000000000000000000000005f52602260045260245ffd5b5f60028204905060018216806105ee57607f821691505b602082108103610601576106006105aa565b5b50919050565b5f819050815f5260205f209050919050565b5f6020601f8301049050919050565b5f82821b905092915050565b5f600883026106637fffffffffffffffffffffffffffffffffffffffffffffffffffffffffffffffff82610628565b61066d8683610628565b95508019841693508086168417925050509392505050565b5f819050919050565b5f819050919050565b5f6106b16106ac6106a784610685565b61068e565b610685565b9050919050565b5f819050919050565b6106ca83610697565b6106de6106d6826106b8565b848454610634565b825550505050565b5f5f905090565b6106f56106e6565b6107008184846106c1565b505050565b5b81811015610723576107185f826106ed565b600181019050610706565b5050565b601f8211156107685761073981610607565b61074284610619565b81016020851015610751578190505b61076561075d85610619565b830182610705565b50505b505050565b5f82821c905092915050565b5f6107885f198460080261076d565b1980831691505092915050565b5f6107a08383610779565b9150826002028217905092915050565b6107b982610573565b67ffffffffffffffff8111156107d2576107d161057d565b5b6107dc82546105d7565b6107e7828285610727565b5f60209050601f831160018114610818575f8415610806578287015190505b6108108582610795565b865550610877565b601f19841661082686610607565b5f5b8281101561084d57848901518255600182019150602085019450602081019050610828565b8683101561086a5784890151610866601f891682610779565b8355505b6001600288020188555050505b505050505050565b6105a48061088c5f395ff3fe608060405234801561000f575f5ffd5b5060043610610029575f3560e01c80631e17ecea1461002d575b5f5ffd5b61004760048036038101906100429190610207565b61005d565b60405161005491906102bc565b60405180910390f35b60605f8261ffff161180156100775750610fa08261ffff16105b6100b6576040517f08c379a00000000000000000000000000000000000000000000000000000000081526004016100ad9061034c565b60405180910390fd5b5f60405180602001604052805f81525090505f5f90505b5f8461ffff1611156101c2578361ffff165f8261ffff16815481106100f5576100f461036a565b5b905f5260205f2090601091828204019190066002029054906101000a900461ffff1661ffff16116101ae578160018261ffff16815481106101395761013861036a565b5b905f5260205f20016040516020016101529291906104c0565b60405160208183030381529060405291505f8161ffff168154811061017a5761017961036a565b5b905f5260205f2090601091828204019190066002029054906101000a900461ffff16846101a79190610510565b93506101bd565b80806101b990610545565b9150505b6100cd565b8192505050919050565b5f5ffd5b5f61ffff82169050919050565b6101e6816101d0565b81146101f0575f5ffd5b50565b5f81359050610201816101dd565b92915050565b5f6020828403121561021c5761021b6101cc565b5b5f610229848285016101f3565b91505092915050565b5f81519050919050565b5f82825260208201905092915050565b5f5b8381101561026957808201518184015260208101905061024e565b5f8484015250505050565b5f601f19601f8301169050919050565b5f61028e82610232565b610298818561023c565b93506102a881856020860161024c565b6102b181610274565b840191505092915050565b5f6020820190508181035f8301526102d48184610284565b905092915050565b7f4e756d626572206d757374206265206265747765656e203120616e64203339395f8201527f3930000000000000000000000000000000000000000000000000000000000000602082015250565b5f61033660228361023c565b9150610341826102dc565b604082019050919050565b5f6020820190508181035f8301526103638161032a565b9050919050565b7f4e487b71000000000000000000000000000000000000000000000000000000005f52603260045260245ffd5b5f81905092915050565b5f6103ab82610232565b6103b58185610397565b93506103c581856020860161024c565b80840191505092915050565b7f4e487b71000000000000000000000000000000000000000000000000000000005f52602260045260245ffd5b5f600282049050600182168061041557607f821691505b602082108103610428576104276103d1565b5b50919050565b5f819050815f5260205f209050919050565b5f815461044c816103fe565b6104568186610397565b9450600182165f81146104705760018114610485576104b7565b60ff19831686528115158202860193506104b7565b61048e8561042e565b5f5b838110156104af57815481890152600182019150602081019050610490565b838801955050505b50505092915050565b5f6104cb82856103a1565b91506104d78284610440565b91508190509392505050565b7f4e487b71000000000000000000000000000000000000000000000000000000005f52601160045260245ffd5b5f61051a826101d0565b9150610525836101d0565b9250828203905061ffff81111561053f5761053e6104e3565b5b92915050565b5f61054f826101d0565b915061ffff8203610563576105626104e3565b5b60018201905091905056fea264697066735822122064290e9dca071e083f2e1951cc956b41e732e9e52d59a08ba1abd44ab3fa23da64736f6c634300081e0033",
					"opcodes": "PUSH1 0x80 PUSH1 0x40 MSTORE PUSH1 0x40 MLOAD DUP1 PUSH2 0x1C0 ADD PUSH1 0x40 MSTORE DUP1 PUSH2 0x3E8 PUSH2 0xFFFF AND DUP2 MSTORE PUSH1 0x20 ADD PUSH2 0x384 PUSH2 0xFFFF AND DUP2 MSTORE PUSH1 0x20 ADD PUSH2 0x1F4 PUSH2 0xFFFF AND DUP2 MSTORE PUSH1 0x20 ADD PUSH2 0x190 PUSH2 0xFFFF AND DUP2 MSTORE PUSH1 0x20 ADD PUSH1 0x64 PUSH2 0xFFFF AND DUP2 MSTORE PUSH1 0x20 ADD PUSH1 0x5A PUSH2 0xFFFF AND DUP2 MSTORE PUSH1 0x20 ADD PUSH1 0x32 PUSH2 0xFFFF AND DUP2 MSTORE PUSH1 0x20 ADD PUSH1 0x28 PUSH2 0xFFFF AND DUP2 MSTORE PUSH1 0x20 ADD PUSH1 0xA PUSH2 0xFFFF AND DUP2 MSTORE PUSH1 0x20 ADD PUSH1 0x9 PUSH2 0xFFFF AND DUP2 MSTORE PUSH1 0x20 ADD PUSH1 0x5 PUSH2 0xFFFF AND DUP2 MSTORE PUSH1 0x20 ADD PUSH1 0x4 PUSH2 0xFFFF AND DUP2 MSTORE PUSH1 0x20 ADD PUSH1 0x1 PUSH2 0xFFFF AND DUP2 MSTORE PUSH1 0x20 ADD PUSH0 PUSH2 0xFFFF AND DUP2 MSTORE POP PUSH0 SWAP1 PUSH1 0xE PUSH2 0xBA SWAP3 SWAP2 SWAP1 PUSH2 0x3FA JUMP JUMPDEST POP PUSH1 0x40 MLOAD DUP1 PUSH2 0x1C0 ADD PUSH1 0x40 MSTORE DUP1 PUSH1 0x40 MLOAD DUP1 PUSH1 0x40 ADD PUSH1 0x40 MSTORE DUP1 PUSH1 0x1 DUP2 MSTORE PUSH1 0x20 ADD PUSH32 0x4D00000000000000000000000000000000000000000000000000000000000000 DUP2 MSTORE POP DUP2 MSTORE PUSH1 0x20 ADD PUSH1 0x40 MLOAD DUP1 PUSH1 0x40 ADD PUSH1 0x40 MSTORE DUP1 PUSH1 0x2 DUP2 MSTORE PUSH1 0x20 ADD PUSH32 0x434D000000000000000000000000000000000000000000000000000000000000 DUP2 MSTORE POP DUP2 MSTORE PUSH1 0x20 ADD PUSH1 0x40 MLOAD DUP1 PUSH1 0x40 ADD PUSH1 0x40 MSTORE DUP1 PUSH1 0x1 DUP2 MSTORE PUSH1 0x20 ADD PUSH32 0x4400000000000000000000000000000000000000000000000000000000000000 DUP2 MSTORE POP DUP2 MSTORE PUSH1 0x20 ADD PUSH1 0x40 MLOAD DUP1 PUSH1 0x40 ADD PUSH1 0x40 MSTORE DUP1 PUSH1 0x2 DUP2 MSTORE PUSH1 0x20 ADD PUSH32 0x4344000000000000000000000000000000000000000000000000000000000000 DUP2 MSTORE POP DUP2 MSTORE PUSH1 0x20 ADD PUSH1 0x40 MLOAD DUP1 PUSH1 0x40 ADD PUSH1 0x40 MSTORE DUP1 PUSH1 0x1 DUP2 MSTORE PUSH1 0x20 ADD PUSH32 0x4300000000000000000000000000000000000000000000000000000000000000 DUP2 MSTORE POP DUP2 MSTORE PUSH1 0x20 ADD PUSH1 0x40 MLOAD DUP1 PUSH1 0x40 ADD PUSH1 0x40 MSTORE DUP1 PUSH1 0x2 DUP2 MSTORE PUSH1 0x20 ADD PUSH32 0x5843000000000000000000000000000000000000000000000000000000000000 DUP2 MSTORE POP DUP2 MSTORE PUSH1 0x20 ADD PUSH1 0x40 MLOAD DUP1 PUSH1 0x40 ADD PUSH1 0x40 MSTORE DUP1 PUSH1 0x1 DUP2 MSTORE PUSH1 0x20 ADD PUSH32 0x4C00000000000000000000000000000000000000000000000000000000000000 DUP2 MSTORE POP DUP2 MSTORE PUSH1 0x20 ADD PUSH1 0x40 MLOAD DUP1 PUSH1 0x40 ADD PUSH1 0x40 MSTORE DUP1 PUSH1 0x2 DUP2 MSTORE PUSH1 0x20 ADD PUSH32 0x584C000000000000000000000000000000000000000000000000000000000000 DUP2 MSTORE POP DUP2 MSTORE PUSH1 0x20 ADD PUSH1 0x40 MLOAD DUP1 PUSH1 0x40 ADD PUSH1 0x40 MSTORE DUP1 PUSH1 0x1 DUP2 MSTORE PUSH1 0x20 ADD PUSH32 0x5800000000000000000000000000000000000000000000000000000000000000 DUP2 MSTORE POP DUP2 MSTORE PUSH1 0x20 ADD PUSH1 0x40 MLOAD DUP1 PUSH1 0x40 ADD PUSH1 0x40 MSTORE DUP1 PUSH1 0x2 DUP2 MSTORE PUSH1 0x20 ADD PUSH32 0x4958000000000000000000000000000000000000000000000000000000000000 DUP2 MSTORE POP DUP2 MSTORE PUSH1 0x20 ADD PUSH1 0x40 MLOAD DUP1 PUSH1 0x40 ADD PUSH1 0x40 MSTORE DUP1 PUSH1 0x1 DUP2 MSTORE PUSH1 0x20 ADD PUSH32 0x5600000000000000000000000000000000000000000000000000000000000000 DUP2 MSTORE POP DUP2 MSTORE PUSH1 0x20 ADD PUSH1 0x40 MLOAD DUP1 PUSH1 0x40 ADD PUSH1 0x40 MSTORE DUP1 PUSH1 0x2 DUP2 MSTORE PUSH1 0x20 ADD PUSH32 0x4956000000000000000000000000000000000000000000000000000000000000 DUP2 MSTORE POP DUP2 MSTORE PUSH1 0x20 ADD PUSH1 0x40 MLOAD DUP1 PUSH1 0x40 ADD PUSH1 0x40 MSTORE DUP1 PUSH1 0x1 DUP2 MSTORE PUSH1 0x20 ADD PUSH32 0x4900000000000000000000000000000000000000000000000000000000000000 DUP2 MSTORE POP DUP2 MSTORE PUSH1 0x20 ADD PUSH1 0x40 MLOAD DUP1 PUSH1 0x20 ADD PUSH1 0x40 MSTORE DUP1 PUSH0 DUP2 MSTORE POP DUP2 MSTORE POP PUSH1 0x1 SWAP1 PUSH1 0xE PUSH2 0x3E8 SWAP3 SWAP2 SWAP1 PUSH2 0x4A1 JUMP JUMPDEST POP CALLVALUE DUP1 ISZERO PUSH2 0x3F4 JUMPI PUSH0 PUSH0 REVERT JUMPDEST POP PUSH2 0x87F JUMP JUMPDEST DUP3 DUP1 SLOAD DUP3 DUP3 SSTORE SWAP1 PUSH0 MSTORE PUSH1 0x20 PUSH0 KECCAK256 SWAP1 PUSH1 0xF ADD PUSH1 0x10 SWAP1 DIV DUP2 ADD SWAP3 DUP3 ISZERO PUSH2 0x490 JUMPI SWAP2 PUSH1 0x20 MUL DUP3 ADD PUSH0 JUMPDEST DUP4 DUP3 GT ISZERO PUSH2 0x460 JUMPI DUP4 MLOAD DUP4 DUP3 PUSH2 0x100 EXP DUP2 SLOAD DUP2 PUSH2 0xFFFF MUL NOT AND SWAP1 DUP4 PUSH2 0xFFFF AND MUL OR SWAP1 SSTORE POP SWAP3 PUSH1 0x20 ADD SWAP3 PUSH1 0x2 ADD PUSH1 0x20 DUP2 PUSH1 0x1 ADD DIV SWAP3 DUP4 ADD SWAP3 PUSH1 0x1 SUB MUL PUSH2 0x420 JUMP JUMPDEST DUP1 ISZERO PUSH2 0x48E JUMPI DUP3 DUP2 PUSH2 0x100 EXP DUP2 SLOAD SWAP1 PUSH2 0xFFFF MUL NOT AND SWAP1 SSTORE PUSH1 0x2 ADD PUSH1 0x20 DUP2 PUSH1 0x1 ADD DIV SWAP3 DUP4 ADD SWAP3 PUSH1 0x1 SUB MUL PUSH2 0x460 JUMP JUMPDEST POP JUMPDEST POP SWAP1 POP PUSH2 0x49D SWAP2 SWAP1 PUSH2 0x4F8 JUMP JUMPDEST POP SWAP1 JUMP JUMPDEST DUP3 DUP1 SLOAD DUP3 DUP3 SSTORE SWAP1 PUSH0 MSTORE PUSH1 0x20 PUSH0 KECCAK256 SWAP1 DUP2 ADD SWAP3 DUP3 ISZERO PUSH2 0x4E7 JUMPI SWAP2 PUSH1 0x20 MUL DUP3 ADD JUMPDEST DUP3 DUP2 GT ISZERO PUSH2 0x4E6 JUMPI DUP3 MLOAD DUP3 SWAP1 DUP2 PUSH2 0x4D6 SWAP2 SWAP1 PUSH2 0x7B0 JUMP JUMPDEST POP SWAP2 PUSH1 0x20 ADD SWAP2 SWAP1 PUSH1 0x1 ADD SWAP1 PUSH2 0x4BF JUMP JUMPDEST JUMPDEST POP SWAP1 POP PUSH2 0x4F4 SWAP2 SWAP1 PUSH2 0x513 JUMP JUMPDEST POP SWAP1 JUMP JUMPDEST JUMPDEST DUP1 DUP3 GT ISZERO PUSH2 0x50F JUMPI PUSH0 DUP2 PUSH0 SWAP1 SSTORE POP PUSH1 0x1 ADD PUSH2 0x4F9 JUMP JUMPDEST POP SWAP1 JUMP JUMPDEST JUMPDEST DUP1 DUP3 GT ISZERO PUSH2 0x532 JUMPI PUSH0 DUP2 DUP2 PUSH2 0x529 SWAP2 SWAP1 PUSH2 0x536 JUMP JUMPDEST POP PUSH1 0x1 ADD PUSH2 0x514 JUMP JUMPDEST POP SWAP1 JUMP JUMPDEST POP DUP1 SLOAD PUSH2 0x542 SWAP1 PUSH2 0x5D7 JUMP JUMPDEST PUSH0 DUP3 SSTORE DUP1 PUSH1 0x1F LT PUSH2 0x553 JUMPI POP PUSH2 0x570 JUMP JUMPDEST PUSH1 0x1F ADD PUSH1 0x20 SWAP1 DIV SWAP1 PUSH0 MSTORE PUSH1 0x20 PUSH0 KECCAK256 SWAP1 DUP2 ADD SWAP1 PUSH2 0x56F SWAP2 SWAP1 PUSH2 0x4F8 JUMP JUMPDEST JUMPDEST POP JUMP JUMPDEST PUSH0 DUP2 MLOAD SWAP1 POP SWAP2 SWAP1 POP JUMP JUMPDEST PUSH32 0x4E487B7100000000000000000000000000000000000000000000000000000000 PUSH0 MSTORE PUSH1 0x41 PUSH1 0x4 MSTORE PUSH1 0x24 PUSH0 REVERT JUMPDEST PUSH32 0x4E487B7100000000000000000000000000000000000000000000000000000000 PUSH0 MSTORE PUSH1 0x22 PUSH1 0x4 MSTORE PUSH1 0x24 PUSH0 REVERT JUMPDEST PUSH0 PUSH1 0x2 DUP3 DIV SWAP1 POP PUSH1 0x1 DUP3 AND DUP1 PUSH2 0x5EE JUMPI PUSH1 0x7F DUP3 AND SWAP2 POP JUMPDEST PUSH1 0x20 DUP3 LT DUP2 SUB PUSH2 0x601 JUMPI PUSH2 0x600 PUSH2 0x5AA JUMP JUMPDEST JUMPDEST POP SWAP2 SWAP1 POP JUMP JUMPDEST PUSH0 DUP2 SWAP1 POP DUP2 PUSH0 MSTORE PUSH1 0x20 PUSH0 KECCAK256 SWAP1 POP SWAP2 SWAP1 POP JUMP JUMPDEST PUSH0 PUSH1 0x20 PUSH1 0x1F DUP4 ADD DIV SWAP1 POP SWAP2 SWAP1 POP JUMP JUMPDEST PUSH0 DUP3 DUP3 SHL SWAP1 POP SWAP3 SWAP2 POP POP JUMP JUMPDEST PUSH0 PUSH1 0x8 DUP4 MUL PUSH2 0x663 PUSH32 0xFFFFFFFFFFFFFFFFFFFFFFFFFFFFFFFFFFFFFFFFFFFFFFFFFFFFFFFFFFFFFFFF DUP3 PUSH2 0x628 JUMP JUMPDEST PUSH2 0x66D DUP7 DUP4 PUSH2 0x628 JUMP JUMPDEST SWAP6 POP DUP1 NOT DUP5 AND SWAP4 POP DUP1 DUP7 AND DUP5 OR SWAP3 POP POP POP SWAP4 SWAP3 POP POP POP JUMP JUMPDEST PUSH0 DUP2 SWAP1 POP SWAP2 SWAP1 POP JUMP JUMPDEST PUSH0 DUP2 SWAP1 POP SWAP2 SWAP1 POP JUMP JUMPDEST PUSH0 PUSH2 0x6B1 PUSH2 0x6AC PUSH2 0x6A7 DUP5 PUSH2 0x685 JUMP JUMPDEST PUSH2 0x68E JUMP JUMPDEST PUSH2 0x685 JUMP JUMPDEST SWAP1 POP SWAP2 SWAP1 POP JUMP JUMPDEST PUSH0 DUP2 SWAP1 POP SWAP2 SWAP1 POP JUMP JUMPDEST PUSH2 0x6CA DUP4 PUSH2 0x697 JUMP JUMPDEST PUSH2 0x6DE PUSH2 0x6D6 DUP3 PUSH2 0x6B8 JUMP JUMPDEST DUP5 DUP5 SLOAD PUSH2 0x634 JUMP JUMPDEST DUP3 SSTORE POP POP POP POP JUMP JUMPDEST PUSH0 PUSH0 SWAP1 POP SWAP1 JUMP JUMPDEST PUSH2 0x6F5 PUSH2 0x6E6 JUMP JUMPDEST PUSH2 0x700 DUP2 DUP5 DUP5 PUSH2 0x6C1 JUMP JUMPDEST POP POP POP JUMP JUMPDEST JUMPDEST DUP2 DUP2 LT ISZERO PUSH2 0x723 JUMPI PUSH2 0x718 PUSH0 DUP3 PUSH2 0x6ED JUMP JUMPDEST PUSH1 0x1 DUP2 ADD SWAP1 POP PUSH2 0x706 JUMP JUMPDEST POP POP JUMP JUMPDEST PUSH1 0x1F DUP3 GT ISZERO PUSH2 0x768 JUMPI PUSH2 0x739 DUP2 PUSH2 0x607 JUMP JUMPDEST PUSH2 0x742 DUP5 PUSH2 0x619 JUMP JUMPDEST DUP2 ADD PUSH1 0x20 DUP6 LT ISZERO PUSH2 0x751 JUMPI DUP2 SWAP1 POP JUMPDEST PUSH2 0x765 PUSH2 0x75D DUP6 PUSH2 0x619 JUMP JUMPDEST DUP4 ADD DUP3 PUSH2 0x705 JUMP JUMPDEST POP POP JUMPDEST POP POP POP JUMP JUMPDEST PUSH0 DUP3 DUP3 SHR SWAP1 POP SWAP3 SWAP2 POP POP JUMP JUMPDEST PUSH0 PUSH2 0x788 PUSH0 NOT DUP5 PUSH1 0x8 MUL PUSH2 0x76D JUMP JUMPDEST NOT DUP1 DUP4 AND SWAP2 POP POP SWAP3 SWAP2 POP POP JUMP JUMPDEST PUSH0 PUSH2 0x7A0 DUP4 DUP4 PUSH2 0x779 JUMP JUMPDEST SWAP2 POP DUP3 PUSH1 0x2 MUL DUP3 OR SWAP1 POP SWAP3 SWAP2 POP POP JUMP JUMPDEST PUSH2 0x7B9 DUP3 PUSH2 0x573 JUMP JUMPDEST PUSH8 0xFFFFFFFFFFFFFFFF DUP2 GT ISZERO PUSH2 0x7D2 JUMPI PUSH2 0x7D1 PUSH2 0x57D JUMP JUMPDEST JUMPDEST PUSH2 0x7DC DUP3 SLOAD PUSH2 0x5D7 JUMP JUMPDEST PUSH2 0x7E7 DUP3 DUP3 DUP6 PUSH2 0x727 JUMP JUMPDEST PUSH0 PUSH1 0x20 SWAP1 POP PUSH1 0x1F DUP4 GT PUSH1 0x1 DUP2 EQ PUSH2 0x818 JUMPI PUSH0 DUP5 ISZERO PUSH2 0x806 JUMPI DUP3 DUP8 ADD MLOAD SWAP1 POP JUMPDEST PUSH2 0x810 DUP6 DUP3 PUSH2 0x795 JUMP JUMPDEST DUP7 SSTORE POP PUSH2 0x877 JUMP JUMPDEST PUSH1 0x1F NOT DUP5 AND PUSH2 0x826 DUP7 PUSH2 0x607 JUMP JUMPDEST PUSH0 JUMPDEST DUP3 DUP2 LT ISZERO PUSH2 0x84D JUMPI DUP5 DUP10 ADD MLOAD DUP3 SSTORE PUSH1 0x1 DUP3 ADD SWAP2 POP PUSH1 0x20 DUP6 ADD SWAP5 POP PUSH1 0x20 DUP2 ADD SWAP1 POP PUSH2 0x828 JUMP JUMPDEST DUP7 DUP4 LT ISZERO PUSH2 0x86A JUMPI DUP5 DUP10 ADD MLOAD PUSH2 0x866 PUSH1 0x1F DUP10 AND DUP3 PUSH2 0x779 JUMP JUMPDEST DUP4 SSTORE POP JUMPDEST PUSH1 0x1 PUSH1 0x2 DUP9 MUL ADD DUP9 SSTORE POP POP POP JUMPDEST POP POP POP POP POP POP JUMP JUMPDEST PUSH2 0x5A4 DUP1 PUSH2 0x88C PUSH0 CODECOPY PUSH0 RETURN INVALID PUSH1 0x80 PUSH1 0x40 MSTORE CALLVALUE DUP1 ISZERO PUSH2 0xF JUMPI PUSH0 PUSH0 REVERT JUMPDEST POP PUSH1 0x4 CALLDATASIZE LT PUSH2 0x29 JUMPI PUSH0 CALLDATALOAD PUSH1 0xE0 SHR DUP1 PUSH4 0x1E17ECEA EQ PUSH2 0x2D JUMPI JUMPDEST PUSH0 PUSH0 REVERT JUMPDEST PUSH2 0x47 PUSH1 0x4 DUP1 CALLDATASIZE SUB DUP2 ADD SWAP1 PUSH2 0x42 SWAP2 SWAP1 PUSH2 0x207 JUMP JUMPDEST PUSH2 0x5D JUMP JUMPDEST PUSH1 0x40 MLOAD PUSH2 0x54 SWAP2 SWAP1 PUSH2 0x2BC JUMP JUMPDEST PUSH1 0x40 MLOAD DUP1 SWAP2 SUB SWAP1 RETURN JUMPDEST PUSH1 0x60 PUSH0 DUP3 PUSH2 0xFFFF AND GT DUP1 ISZERO PUSH2 0x77 JUMPI POP PUSH2 0xFA0 DUP3 PUSH2 0xFFFF AND LT JUMPDEST PUSH2 0xB6 JUMPI PUSH1 0x40 MLOAD PUSH32 0x8C379A000000000000000000000000000000000000000000000000000000000 DUP2 MSTORE PUSH1 0x4 ADD PUSH2 0xAD SWAP1 PUSH2 0x34C JUMP JUMPDEST PUSH1 0x40 MLOAD DUP1 SWAP2 SUB SWAP1 REVERT JUMPDEST PUSH0 PUSH1 0x40 MLOAD DUP1 PUSH1 0x20 ADD PUSH1 0x40 MSTORE DUP1 PUSH0 DUP2 MSTORE POP SWAP1 POP PUSH0 PUSH0 SWAP1 POP JUMPDEST PUSH0 DUP5 PUSH2 0xFFFF AND GT ISZERO PUSH2 0x1C2 JUMPI DUP4 PUSH2 0xFFFF AND PUSH0 DUP3 PUSH2 0xFFFF AND DUP2 SLOAD DUP2 LT PUSH2 0xF5 JUMPI PUSH2 0xF4 PUSH2 0x36A JUMP JUMPDEST JUMPDEST SWAP1 PUSH0 MSTORE PUSH1 0x20 PUSH0 KECCAK256 SWAP1 PUSH1 0x10 SWAP2 DUP3 DUP3 DIV ADD SWAP2 SWAP1 MOD PUSH1 0x2 MUL SWAP1 SLOAD SWAP1 PUSH2 0x100 EXP SWAP1 DIV PUSH2 0xFFFF AND PUSH2 0xFFFF AND GT PUSH2 0x1AE JUMPI DUP2 PUSH1 0x1 DUP3 PUSH2 0xFFFF AND DUP2 SLOAD DUP2 LT PUSH2 0x139 JUMPI PUSH2 0x138 PUSH2 0x36A JUMP JUMPDEST JUMPDEST SWAP1 PUSH0 MSTORE PUSH1 0x20 PUSH0 KECCAK256 ADD PUSH1 0x40 MLOAD PUSH1 0x20 ADD PUSH2 0x152 SWAP3 SWAP2 SWAP1 PUSH2 0x4C0 JUMP JUMPDEST PUSH1 0x40 MLOAD PUSH1 0x20 DUP2 DUP4 SUB SUB DUP2 MSTORE SWAP1 PUSH1 0x40 MSTORE SWAP2 POP PUSH0 DUP2 PUSH2 0xFFFF AND DUP2 SLOAD DUP2 LT PUSH2 0x17A JUMPI PUSH2 0x179 PUSH2 0x36A JUMP JUMPDEST JUMPDEST SWAP1 PUSH0 MSTORE PUSH1 0x20 PUSH0 KECCAK256 SWAP1 PUSH1 0x10 SWAP2 DUP3 DUP3 DIV ADD SWAP2 SWAP1 MOD PUSH1 0x2 MUL SWAP1 SLOAD SWAP1 PUSH2 0x100 EXP SWAP1 DIV PUSH2 0xFFFF AND DUP5 PUSH2 0x1A7 SWAP2 SWAP1 PUSH2 0x510 JUMP JUMPDEST SWAP4 POP PUSH2 0x1BD JUMP JUMPDEST DUP1 DUP1 PUSH2 0x1B9 SWAP1 PUSH2 0x545 JUMP JUMPDEST SWAP2 POP POP JUMPDEST PUSH2 0xCD JUMP JUMPDEST DUP2 SWAP3 POP POP POP SWAP2 SWAP1 POP JUMP JUMPDEST PUSH0 PUSH0 REVERT JUMPDEST PUSH0 PUSH2 0xFFFF DUP3 AND SWAP1 POP SWAP2 SWAP1 POP JUMP JUMPDEST PUSH2 0x1E6 DUP2 PUSH2 0x1D0 JUMP JUMPDEST DUP2 EQ PUSH2 0x1F0 JUMPI PUSH0 PUSH0 REVERT JUMPDEST POP JUMP JUMPDEST PUSH0 DUP2 CALLDATALOAD SWAP1 POP PUSH2 0x201 DUP2 PUSH2 0x1DD JUMP JUMPDEST SWAP3 SWAP2 POP POP JUMP JUMPDEST PUSH0 PUSH1 0x20 DUP3 DUP5 SUB SLT ISZERO PUSH2 0x21C JUMPI PUSH2 0x21B PUSH2 0x1CC JUMP JUMPDEST JUMPDEST PUSH0 PUSH2 0x229 DUP5 DUP3 DUP6 ADD PUSH2 0x1F3 JUMP JUMPDEST SWAP2 POP POP SWAP3 SWAP2 POP POP JUMP JUMPDEST PUSH0 DUP2 MLOAD SWAP1 POP SWAP2 SWAP1 POP JUMP JUMPDEST PUSH0 DUP3 DUP3 MSTORE PUSH1 0x20 DUP3 ADD SWAP1 POP SWAP3 SWAP2 POP POP JUMP JUMPDEST PUSH0 JUMPDEST DUP4 DUP2 LT ISZERO PUSH2 0x269 JUMPI DUP1 DUP3 ADD MLOAD DUP2 DUP5 ADD MSTORE PUSH1 0x20 DUP2 ADD SWAP1 POP PUSH2 0x24E JUMP JUMPDEST PUSH0 DUP5 DUP5 ADD MSTORE POP POP POP POP JUMP JUMPDEST PUSH0 PUSH1 0x1F NOT PUSH1 0x1F DUP4 ADD AND SWAP1 POP SWAP2 SWAP1 POP JUMP JUMPDEST PUSH0 PUSH2 0x28E DUP3 PUSH2 0x232 JUMP JUMPDEST PUSH2 0x298 DUP2 DUP6 PUSH2 0x23C JUMP JUMPDEST SWAP4 POP PUSH2 0x2A8 DUP2 DUP6 PUSH1 0x20 DUP7 ADD PUSH2 0x24C JUMP JUMPDEST PUSH2 0x2B1 DUP2 PUSH2 0x274 JUMP JUMPDEST DUP5 ADD SWAP2 POP POP SWAP3 SWAP2 POP POP JUMP JUMPDEST PUSH0 PUSH1 0x20 DUP3 ADD SWAP1 POP DUP2 DUP2 SUB PUSH0 DUP4 ADD MSTORE PUSH2 0x2D4 DUP2 DUP5 PUSH2 0x284 JUMP JUMPDEST SWAP1 POP SWAP3 SWAP2 POP POP JUMP JUMPDEST PUSH32 0x4E756D626572206D757374206265206265747765656E203120616E6420333939 PUSH0 DUP3 ADD MSTORE PUSH32 0x3930000000000000000000000000000000000000000000000000000000000000 PUSH1 0x20 DUP3 ADD MSTORE POP JUMP JUMPDEST PUSH0 PUSH2 0x336 PUSH1 0x22 DUP4 PUSH2 0x23C JUMP JUMPDEST SWAP2 POP PUSH2 0x341 DUP3 PUSH2 0x2DC JUMP JUMPDEST PUSH1 0x40 DUP3 ADD SWAP1 POP SWAP2 SWAP1 POP JUMP JUMPDEST PUSH0 PUSH1 0x20 DUP3 ADD SWAP1 POP DUP2 DUP2 SUB PUSH0 DUP4 ADD MSTORE PUSH2 0x363 DUP2 PUSH2 0x32A JUMP JUMPDEST SWAP1 POP SWAP2 SWAP1 POP JUMP JUMPDEST PUSH32 0x4E487B7100000000000000000000000000000000000000000000000000000000 PUSH0 MSTORE PUSH1 0x32 PUSH1 0x4 MSTORE PUSH1 0x24 PUSH0 REVERT JUMPDEST PUSH0 DUP2 SWAP1 POP SWAP3 SWAP2 POP POP JUMP JUMPDEST PUSH0 PUSH2 0x3AB DUP3 PUSH2 0x232 JUMP JUMPDEST PUSH2 0x3B5 DUP2 DUP6 PUSH2 0x397 JUMP JUMPDEST SWAP4 POP PUSH2 0x3C5 DUP2 DUP6 PUSH1 0x20 DUP7 ADD PUSH2 0x24C JUMP JUMPDEST DUP1 DUP5 ADD SWAP2 POP POP SWAP3 SWAP2 POP POP JUMP JUMPDEST PUSH32 0x4E487B7100000000000000000000000000000000000000000000000000000000 PUSH0 MSTORE PUSH1 0x22 PUSH1 0x4 MSTORE PUSH1 0x24 PUSH0 REVERT JUMPDEST PUSH0 PUSH1 0x2 DUP3 DIV SWAP1 POP PUSH1 0x1 DUP3 AND DUP1 PUSH2 0x415 JUMPI PUSH1 0x7F DUP3 AND SWAP2 POP JUMPDEST PUSH1 0x20 DUP3 LT DUP2 SUB PUSH2 0x428 JUMPI PUSH2 0x427 PUSH2 0x3D1 JUMP JUMPDEST JUMPDEST POP SWAP2 SWAP1 POP JUMP JUMPDEST PUSH0 DUP2 SWAP1 POP DUP2 PUSH0 MSTORE PUSH1 0x20 PUSH0 KECCAK256 SWAP1 POP SWAP2 SWAP1 POP JUMP JUMPDEST PUSH0 DUP2 SLOAD PUSH2 0x44C DUP2 PUSH2 0x3FE JUMP JUMPDEST PUSH2 0x456 DUP2 DUP7 PUSH2 0x397 JUMP JUMPDEST SWAP5 POP PUSH1 0x1 DUP3 AND PUSH0 DUP2 EQ PUSH2 0x470 JUMPI PUSH1 0x1 DUP2 EQ PUSH2 0x485 JUMPI PUSH2 0x4B7 JUMP JUMPDEST PUSH1 0xFF NOT DUP4 AND DUP7 MSTORE DUP2 ISZERO ISZERO DUP3 MUL DUP7 ADD SWAP4 POP PUSH2 0x4B7 JUMP JUMPDEST PUSH2 0x48E DUP6 PUSH2 0x42E JUMP JUMPDEST PUSH0 JUMPDEST DUP4 DUP2 LT ISZERO PUSH2 0x4AF JUMPI DUP2 SLOAD DUP2 DUP10 ADD MSTORE PUSH1 0x1 DUP3 ADD SWAP2 POP PUSH1 0x20 DUP2 ADD SWAP1 POP PUSH2 0x490 JUMP JUMPDEST DUP4 DUP9 ADD SWAP6 POP POP POP JUMPDEST POP POP POP SWAP3 SWAP2 POP POP JUMP JUMPDEST PUSH0 PUSH2 0x4CB DUP3 DUP6 PUSH2 0x3A1 JUMP JUMPDEST SWAP2 POP PUSH2 0x4D7 DUP3 DUP5 PUSH2 0x440 JUMP JUMPDEST SWAP2 POP DUP2 SWAP1 POP SWAP4 SWAP3 POP POP POP JUMP JUMPDEST PUSH32 0x4E487B7100000000000000000000000000000000000000000000000000000000 PUSH0 MSTORE PUSH1 0x11 PUSH1 0x4 MSTORE PUSH1 0x24 PUSH0 REVERT JUMPDEST PUSH0 PUSH2 0x51A DUP3 PUSH2 0x1D0 JUMP JUMPDEST SWAP2 POP PUSH2 0x525 DUP4 PUSH2 0x1D0 JUMP JUMPDEST SWAP3 POP DUP3 DUP3 SUB SWAP1 POP PUSH2 0xFFFF DUP2 GT ISZERO PUSH2 0x53F JUMPI PUSH2 0x53E PUSH2 0x4E3 JUMP JUMPDEST JUMPDEST SWAP3 SWAP2 POP POP JUMP JUMPDEST PUSH0 PUSH2 0x54F DUP3 PUSH2 0x1D0 JUMP JUMPDEST SWAP2 POP PUSH2 0xFFFF DUP3 SUB PUSH2 0x563 JUMPI PUSH2 0x562 PUSH2 0x4E3 JUMP JUMPDEST JUMPDEST PUSH1 0x1 DUP3 ADD SWAP1 POP SWAP2 SWAP1 POP JUMP INVALID LOG2 PUSH5 0x6970667358 0x22 SLT KECCAK256 PUSH5 0x290E9DCA07 0x1E ADDMOD EXTCODEHASH 0x2E NOT MLOAD 0xCC SWAP6 PUSH12 0x41E732E9E52D59A08BA1ABD4 BLOBBASEFEE 0xB3 STATICCALL 0x23 0xDA PUSH5 0x736F6C6343 STOP ADDMOD 0x1E STOP CALLER "
				},
				"gasEstimates": {
					"creation": {
						"codeDepositCost": "288800",
						"executionCost": "infinite",
						"totalCost": "infinite"
					},
					"external": {
						"intToRoman(uint16)": "infinite"
					}
				},
				"methodIdentifiers": {
					"intToRoman(uint16)": "1e17ecea"
				}
			},
			"storageLayout": {
				"storage": [
					{
						"astId": 19,
						"contract": "contracts/int_to_roman.sol:IntToRoman",
						"label": "_values",
						"offset": 0,
						"slot": "0",
						"type": "t_array(t_uint16)dyn_storage"
					},
					{
						"astId": 37,
						"contract": "contracts/int_to_roman.sol:IntToRoman",
						"label": "_symbols",
						"offset": 0,
						"slot": "1",
						"type": "t_array(t_string_storage)dyn_storage"
					}
				],
				"types": {
					"t_array(t_string_storage)dyn_storage": {
						"base": "t_string_storage",
						"encoding": "dynamic_array",
						"label": "string[]",
						"numberOfBytes": "32"
					},
					"t_array(t_uint16)dyn_storage": {
						"base": "t_uint16",
						"encoding": "dynamic_array",
						"label": "uint16[]",
						"numberOfBytes": "32"
					},
					"t_string_storage": {
						"encoding": "bytes",
						"label": "string",
						"numberOfBytes": "32"
					},
					"t_uint16": {
						"encoding": "inplace",
						"label": "uint16",
						"numberOfBytes": "2"
					}
				}
			},
			"userdoc": {
				"kind": "user",
				"methods": {},
				"version": 1
			}
		}
	}
}