{
	"contracts/array_merger.sol": {
		"ArrayMerger": {
			"abi": [
				{
					"inputs": [
						{
							"internalType": "uint256[]",
							"name": "arr1",
							"type": "uint256[]"
						},
						{
							"internalType": "uint256[]",
							"name": "arr2",
							"type": "uint256[]"
						}
					],
					"name": "mergeSortedArrays",
					"outputs": [
						{
							"internalType": "uint256[]",
							"name": "mergedArr",
							"type": "uint256[]"
						}
					],
					"stateMutability": "pure",
					"type": "function"
				}
			],
			"devdoc": {
				"kind": "dev",
				"methods": {},
				"version": 1
			},
			"evm": {
				"assembly": "    /* \"contracts/array_merger.sol\":58:1011  contract ArrayMerger {... */\n  mstore(0x40, 0x80)\n  callvalue\n  dup1\n  iszero\n  tag_1\n  jumpi\n  revert(0x00, 0x00)\ntag_1:\n  pop\n  dataSize(sub_0)\n  dup1\n  dataOffset(sub_0)\n  0x00\n  codecopy\n  0x00\n  return\nstop\n\nsub_0: assembly {\n        /* \"contracts/array_merger.sol\":58:1011  contract ArrayMerger {... */\n      mstore(0x40, 0x80)\n      callvalue\n      dup1\n      iszero\n      tag_1\n      jumpi\n      revert(0x00, 0x00)\n    tag_1:\n      pop\n      jumpi(tag_2, lt(calldatasize, 0x04))\n      shr(0xe0, calldataload(0x00))\n      dup1\n      0x4cf0cc0d\n      eq\n      tag_3\n      jumpi\n    tag_2:\n      revert(0x00, 0x00)\n        /* \"contracts/array_merger.sol\":143:1008  function mergeSortedArrays(uint256[] calldata arr1, uint256[] calldata arr2) public pure returns (uint256[] memory mergedArr) {... */\n    tag_3:\n      tag_4\n      0x04\n      dup1\n      calldatasize\n      sub\n      dup2\n      add\n      swap1\n      tag_5\n      swap2\n      swap1\n      tag_6\n      jump\t// in\n    tag_5:\n      tag_7\n      jump\t// in\n    tag_4:\n      mload(0x40)\n      tag_8\n      swap2\n      swap1\n      tag_9\n      jump\t// in\n    tag_8:\n      mload(0x40)\n      dup1\n      swap2\n      sub\n      swap1\n      return\n    tag_7:\n        /* \"contracts/array_merger.sol\":241:267  uint256[] memory mergedArr */\n      0x60\n        /* \"contracts/array_merger.sol\":280:292  uint256 len1 */\n      0x00\n        /* \"contracts/array_merger.sol\":295:299  arr1 */\n      dup6\n      dup6\n        /* \"contracts/array_merger.sol\":295:306  arr1.length */\n      swap1\n      pop\n        /* \"contracts/array_merger.sol\":280:306  uint256 len1 = arr1.length */\n      swap1\n      pop\n        /* \"contracts/array_merger.sol\":317:329  uint256 len2 */\n      0x00\n        /* \"contracts/array_merger.sol\":332:336  arr2 */\n      dup5\n      dup5\n        /* \"contracts/array_merger.sol\":332:343  arr2.length */\n      swap1\n      pop\n        /* \"contracts/array_merger.sol\":317:343  uint256 len2 = arr2.length */\n      swap1\n      pop\n        /* \"contracts/array_merger.sol\":354:371  uint256 mergedLen */\n      0x00\n        /* \"contracts/array_merger.sol\":381:385  len2 */\n      dup2\n        /* \"contracts/array_merger.sol\":374:378  len1 */\n      dup4\n        /* \"contracts/array_merger.sol\":374:385  len1 + len2 */\n      tag_11\n      swap2\n      swap1\n      tag_12\n      jump\t// in\n    tag_11:\n        /* \"contracts/array_merger.sol\":354:385  uint256 mergedLen = len1 + len2 */\n      swap1\n      pop\n        /* \"contracts/array_merger.sol\":422:431  mergedLen */\n      dup1\n        /* \"contracts/array_merger.sol\":408:432  new uint256[](mergedLen) */\n      0xffffffffffffffff\n      dup2\n      gt\n      iszero\n      tag_13\n      jumpi\n      tag_14\n      tag_15\n      jump\t// in\n    tag_14:\n    tag_13:\n      mload(0x40)\n      swap1\n      dup1\n      dup3\n      mstore\n      dup1\n      0x20\n      mul\n      0x20\n      add\n      dup3\n      add\n      0x40\n      mstore\n      dup1\n      iszero\n      tag_16\n      jumpi\n      dup2\n      0x20\n      add\n      0x20\n      dup3\n      mul\n      dup1\n      calldatasize\n      dup4\n      calldatacopy\n      dup1\n      dup3\n      add\n      swap2\n      pop\n      pop\n      swap1\n      pop\n    tag_16:\n      pop\n        /* \"contracts/array_merger.sol\":396:432  mergedArr = new uint256[](mergedLen) */\n      swap4\n      pop\n        /* \"contracts/array_merger.sol\":443:452  uint256 i */\n      0x00\n        /* \"contracts/array_merger.sol\":455:456  0 */\n      0x00\n        /* \"contracts/array_merger.sol\":443:456  uint256 i = 0 */\n      swap1\n      pop\n        /* \"contracts/array_merger.sol\":467:476  uint256 j */\n      0x00\n        /* \"contracts/array_merger.sol\":479:480  0 */\n      0x00\n        /* \"contracts/array_merger.sol\":467:480  uint256 j = 0 */\n      swap1\n      pop\n        /* \"contracts/array_merger.sol\":491:500  uint256 k */\n      0x00\n        /* \"contracts/array_merger.sol\":503:504  0 */\n      0x00\n        /* \"contracts/array_merger.sol\":491:504  uint256 k = 0 */\n      swap1\n      pop\n        /* \"contracts/array_merger.sol\":517:777  while(i < len1 && j < len2) {... */\n    tag_17:\n        /* \"contracts/array_merger.sol\":527:531  len1 */\n      dup6\n        /* \"contracts/array_merger.sol\":523:524  i */\n      dup4\n        /* \"contracts/array_merger.sol\":523:531  i < len1 */\n      lt\n        /* \"contracts/array_merger.sol\":523:543  i < len1 && j < len2 */\n      dup1\n      iszero\n      tag_19\n      jumpi\n      pop\n        /* \"contracts/array_merger.sol\":539:543  len2 */\n      dup5\n        /* \"contracts/array_merger.sol\":535:536  j */\n      dup3\n        /* \"contracts/array_merger.sol\":535:543  j < len2 */\n      lt\n        /* \"contracts/array_merger.sol\":523:543  i < len1 && j < len2 */\n    tag_19:\n        /* \"contracts/array_merger.sol\":517:777  while(i < len1 && j < len2) {... */\n      iszero\n      tag_18\n      jumpi\n        /* \"contracts/array_merger.sol\":575:579  arr2 */\n      dup9\n      dup9\n        /* \"contracts/array_merger.sol\":580:581  j */\n      dup4\n        /* \"contracts/array_merger.sol\":575:582  arr2[j] */\n      dup2\n      dup2\n      lt\n      tag_20\n      jumpi\n      tag_21\n      tag_22\n      jump\t// in\n    tag_21:\n    tag_20:\n      swap1\n      pop\n      0x20\n      mul\n      add\n      calldataload\n        /* \"contracts/array_merger.sol\":564:568  arr1 */\n      dup12\n      dup12\n        /* \"contracts/array_merger.sol\":569:570  i */\n      dup6\n        /* \"contracts/array_merger.sol\":564:571  arr1[i] */\n      dup2\n      dup2\n      lt\n      tag_23\n      jumpi\n      tag_24\n      tag_22\n      jump\t// in\n    tag_24:\n    tag_23:\n      swap1\n      pop\n      0x20\n      mul\n      add\n      calldataload\n        /* \"contracts/array_merger.sol\":564:582  arr1[i] <= arr2[j] */\n      gt\n        /* \"contracts/array_merger.sol\":560:748  if (arr1[i] <= arr2[j]) {... */\n      tag_25\n      jumpi\n        /* \"contracts/array_merger.sol\":618:622  arr1 */\n      dup11\n      dup11\n        /* \"contracts/array_merger.sol\":623:624  i */\n      dup5\n        /* \"contracts/array_merger.sol\":618:625  arr1[i] */\n      dup2\n      dup2\n      lt\n      tag_26\n      jumpi\n      tag_27\n      tag_22\n      jump\t// in\n    tag_27:\n    tag_26:\n      swap1\n      pop\n      0x20\n      mul\n      add\n      calldataload\n        /* \"contracts/array_merger.sol\":603:612  mergedArr */\n      dup8\n        /* \"contracts/array_merger.sol\":613:614  k */\n      dup3\n        /* \"contracts/array_merger.sol\":603:615  mergedArr[k] */\n      dup2\n      mload\n      dup2\n      lt\n      tag_28\n      jumpi\n      tag_29\n      tag_22\n      jump\t// in\n    tag_29:\n    tag_28:\n      0x20\n      mul\n      0x20\n      add\n      add\n        /* \"contracts/array_merger.sol\":603:625  mergedArr[k] = arr1[i] */\n      dup2\n      dup2\n      mstore\n      pop\n      pop\n        /* \"contracts/array_merger.sol\":644:647  i++ */\n      dup3\n      dup1\n      tag_30\n      swap1\n      tag_31\n      jump\t// in\n    tag_30:\n      swap4\n      pop\n      pop\n        /* \"contracts/array_merger.sol\":560:748  if (arr1[i] <= arr2[j]) {... */\n      jump(tag_32)\n    tag_25:\n        /* \"contracts/array_merger.sol\":703:707  arr2 */\n      dup9\n      dup9\n        /* \"contracts/array_merger.sol\":708:709  j */\n      dup4\n        /* \"contracts/array_merger.sol\":703:710  arr2[j] */\n      dup2\n      dup2\n      lt\n      tag_33\n      jumpi\n      tag_34\n      tag_22\n      jump\t// in\n    tag_34:\n    tag_33:\n      swap1\n      pop\n      0x20\n      mul\n      add\n      calldataload\n        /* \"contracts/array_merger.sol\":688:697  mergedArr */\n      dup8\n        /* \"contracts/array_merger.sol\":698:699  k */\n      dup3\n        /* \"contracts/array_merger.sol\":688:700  mergedArr[k] */\n      dup2\n      mload\n      dup2\n      lt\n      tag_35\n      jumpi\n      tag_36\n      tag_22\n      jump\t// in\n    tag_36:\n    tag_35:\n      0x20\n      mul\n      0x20\n      add\n      add\n        /* \"contracts/array_merger.sol\":688:710  mergedArr[k] = arr2[j] */\n      dup2\n      dup2\n      mstore\n      pop\n      pop\n        /* \"contracts/array_merger.sol\":729:732  j++ */\n      dup2\n      dup1\n      tag_37\n      swap1\n      tag_31\n      jump\t// in\n    tag_37:\n      swap3\n      pop\n      pop\n        /* \"contracts/array_merger.sol\":560:748  if (arr1[i] <= arr2[j]) {... */\n    tag_32:\n        /* \"contracts/array_merger.sol\":762:765  k++ */\n      dup1\n      dup1\n      tag_38\n      swap1\n      tag_31\n      jump\t// in\n    tag_38:\n      swap2\n      pop\n      pop\n        /* \"contracts/array_merger.sol\":517:777  while(i < len1 && j < len2) {... */\n      jump(tag_17)\n    tag_18:\n        /* \"contracts/array_merger.sol\":787:889  while (i < len1) {... */\n    tag_39:\n        /* \"contracts/array_merger.sol\":798:802  len1 */\n      dup6\n        /* \"contracts/array_merger.sol\":794:795  i */\n      dup4\n        /* \"contracts/array_merger.sol\":794:802  i < len1 */\n      lt\n        /* \"contracts/array_merger.sol\":787:889  while (i < len1) {... */\n      iszero\n      tag_40\n      jumpi\n        /* \"contracts/array_merger.sol\":834:838  arr1 */\n      dup11\n      dup11\n        /* \"contracts/array_merger.sol\":839:840  i */\n      dup5\n        /* \"contracts/array_merger.sol\":834:841  arr1[i] */\n      dup2\n      dup2\n      lt\n      tag_41\n      jumpi\n      tag_42\n      tag_22\n      jump\t// in\n    tag_42:\n    tag_41:\n      swap1\n      pop\n      0x20\n      mul\n      add\n      calldataload\n        /* \"contracts/array_merger.sol\":819:828  mergedArr */\n      dup8\n        /* \"contracts/array_merger.sol\":829:830  k */\n      dup3\n        /* \"contracts/array_merger.sol\":819:831  mergedArr[k] */\n      dup2\n      mload\n      dup2\n      lt\n      tag_43\n      jumpi\n      tag_44\n      tag_22\n      jump\t// in\n    tag_44:\n    tag_43:\n      0x20\n      mul\n      0x20\n      add\n      add\n        /* \"contracts/array_merger.sol\":819:841  mergedArr[k] = arr1[i] */\n      dup2\n      dup2\n      mstore\n      pop\n      pop\n        /* \"contracts/array_merger.sol\":856:859  i++ */\n      dup3\n      dup1\n      tag_45\n      swap1\n      tag_31\n      jump\t// in\n    tag_45:\n      swap4\n      pop\n      pop\n        /* \"contracts/array_merger.sol\":874:877  k++ */\n      dup1\n      dup1\n      tag_46\n      swap1\n      tag_31\n      jump\t// in\n    tag_46:\n      swap2\n      pop\n      pop\n        /* \"contracts/array_merger.sol\":787:889  while (i < len1) {... */\n      jump(tag_39)\n    tag_40:\n        /* \"contracts/array_merger.sol\":899:1001  while (j < len2) {... */\n    tag_47:\n        /* \"contracts/array_merger.sol\":910:914  len2 */\n      dup5\n        /* \"contracts/array_merger.sol\":906:907  j */\n      dup3\n        /* \"contracts/array_merger.sol\":906:914  j < len2 */\n      lt\n        /* \"contracts/array_merger.sol\":899:1001  while (j < len2) {... */\n      iszero\n      tag_48\n      jumpi\n        /* \"contracts/array_merger.sol\":946:950  arr2 */\n      dup9\n      dup9\n        /* \"contracts/array_merger.sol\":951:952  j */\n      dup4\n        /* \"contracts/array_merger.sol\":946:953  arr2[j] */\n      dup2\n      dup2\n      lt\n      tag_49\n      jumpi\n      tag_50\n      tag_22\n      jump\t// in\n    tag_50:\n    tag_49:\n      swap1\n      pop\n      0x20\n      mul\n      add\n      calldataload\n        /* \"contracts/array_merger.sol\":931:940  mergedArr */\n      dup8\n        /* \"contracts/array_merger.sol\":941:942  k */\n      dup3\n        /* \"contracts/array_merger.sol\":931:943  mergedArr[k] */\n      dup2\n      mload\n      dup2\n      lt\n      tag_51\n      jumpi\n      tag_52\n      tag_22\n      jump\t// in\n    tag_52:\n    tag_51:\n      0x20\n      mul\n      0x20\n      add\n      add\n        /* \"contracts/array_merger.sol\":931:953  mergedArr[k] = arr2[j] */\n      dup2\n      dup2\n      mstore\n      pop\n      pop\n        /* \"contracts/array_merger.sol\":968:971  j++ */\n      dup2\n      dup1\n      tag_53\n      swap1\n      tag_31\n      jump\t// in\n    tag_53:\n      swap3\n      pop\n      pop\n        /* \"contracts/array_merger.sol\":986:989  k++ */\n      dup1\n      dup1\n      tag_54\n      swap1\n      tag_31\n      jump\t// in\n    tag_54:\n      swap2\n      pop\n      pop\n        /* \"contracts/array_merger.sol\":899:1001  while (j < len2) {... */\n      jump(tag_47)\n    tag_48:\n        /* \"contracts/array_merger.sol\":269:1008  {... */\n      pop\n      pop\n      pop\n      pop\n      pop\n      pop\n        /* \"contracts/array_merger.sol\":143:1008  function mergeSortedArrays(uint256[] calldata arr1, uint256[] calldata arr2) public pure returns (uint256[] memory mergedArr) {... */\n      swap5\n      swap4\n      pop\n      pop\n      pop\n      pop\n      jump\t// out\n        /* \"#utility.yul\":88:205   */\n    tag_56:\n        /* \"#utility.yul\":197:198   */\n      0x00\n        /* \"#utility.yul\":194:195   */\n      0x00\n        /* \"#utility.yul\":187:199   */\n      revert\n        /* \"#utility.yul\":211:328   */\n    tag_57:\n        /* \"#utility.yul\":320:321   */\n      0x00\n        /* \"#utility.yul\":317:318   */\n      0x00\n        /* \"#utility.yul\":310:322   */\n      revert\n        /* \"#utility.yul\":334:451   */\n    tag_58:\n        /* \"#utility.yul\":443:444   */\n      0x00\n        /* \"#utility.yul\":440:441   */\n      0x00\n        /* \"#utility.yul\":433:445   */\n      revert\n        /* \"#utility.yul\":457:574   */\n    tag_59:\n        /* \"#utility.yul\":566:567   */\n      0x00\n        /* \"#utility.yul\":563:564   */\n      0x00\n        /* \"#utility.yul\":556:568   */\n      revert\n        /* \"#utility.yul\":580:697   */\n    tag_60:\n        /* \"#utility.yul\":689:690   */\n      0x00\n        /* \"#utility.yul\":686:687   */\n      0x00\n        /* \"#utility.yul\":679:691   */\n      revert\n        /* \"#utility.yul\":720:1288   */\n    tag_61:\n        /* \"#utility.yul\":793:801   */\n      0x00\n        /* \"#utility.yul\":803:809   */\n      0x00\n        /* \"#utility.yul\":853:856   */\n      dup4\n        /* \"#utility.yul\":846:850   */\n      0x1f\n        /* \"#utility.yul\":838:844   */\n      dup5\n        /* \"#utility.yul\":834:851   */\n      add\n        /* \"#utility.yul\":830:857   */\n      slt\n        /* \"#utility.yul\":820:942   */\n      tag_79\n      jumpi\n        /* \"#utility.yul\":861:940   */\n      tag_80\n      tag_58\n      jump\t// in\n    tag_80:\n        /* \"#utility.yul\":820:942   */\n    tag_79:\n        /* \"#utility.yul\":974:980   */\n      dup3\n        /* \"#utility.yul\":961:981   */\n      calldataload\n        /* \"#utility.yul\":951:981   */\n      swap1\n      pop\n        /* \"#utility.yul\":1004:1022   */\n      0xffffffffffffffff\n        /* \"#utility.yul\":996:1002   */\n      dup2\n        /* \"#utility.yul\":993:1023   */\n      gt\n        /* \"#utility.yul\":990:1107   */\n      iszero\n      tag_81\n      jumpi\n        /* \"#utility.yul\":1026:1105   */\n      tag_82\n      tag_59\n      jump\t// in\n    tag_82:\n        /* \"#utility.yul\":990:1107   */\n    tag_81:\n        /* \"#utility.yul\":1140:1144   */\n      0x20\n        /* \"#utility.yul\":1132:1138   */\n      dup4\n        /* \"#utility.yul\":1128:1145   */\n      add\n        /* \"#utility.yul\":1116:1145   */\n      swap2\n      pop\n        /* \"#utility.yul\":1194:1197   */\n      dup4\n        /* \"#utility.yul\":1186:1190   */\n      0x20\n        /* \"#utility.yul\":1178:1184   */\n      dup3\n        /* \"#utility.yul\":1174:1191   */\n      mul\n        /* \"#utility.yul\":1164:1172   */\n      dup4\n        /* \"#utility.yul\":1160:1192   */\n      add\n        /* \"#utility.yul\":1157:1198   */\n      gt\n        /* \"#utility.yul\":1154:1282   */\n      iszero\n      tag_83\n      jumpi\n        /* \"#utility.yul\":1201:1280   */\n      tag_84\n      tag_60\n      jump\t// in\n    tag_84:\n        /* \"#utility.yul\":1154:1282   */\n    tag_83:\n        /* \"#utility.yul\":720:1288   */\n      swap3\n      pop\n      swap3\n      swap1\n      pop\n      jump\t// out\n        /* \"#utility.yul\":1294:2228   */\n    tag_6:\n        /* \"#utility.yul\":1416:1422   */\n      0x00\n        /* \"#utility.yul\":1424:1430   */\n      0x00\n        /* \"#utility.yul\":1432:1438   */\n      0x00\n        /* \"#utility.yul\":1440:1446   */\n      0x00\n        /* \"#utility.yul\":1489:1491   */\n      0x40\n        /* \"#utility.yul\":1477:1486   */\n      dup6\n        /* \"#utility.yul\":1468:1475   */\n      dup8\n        /* \"#utility.yul\":1464:1487   */\n      sub\n        /* \"#utility.yul\":1460:1492   */\n      slt\n        /* \"#utility.yul\":1457:1576   */\n      iszero\n      tag_86\n      jumpi\n        /* \"#utility.yul\":1495:1574   */\n      tag_87\n      tag_56\n      jump\t// in\n    tag_87:\n        /* \"#utility.yul\":1457:1576   */\n    tag_86:\n        /* \"#utility.yul\":1643:1644   */\n      0x00\n        /* \"#utility.yul\":1632:1641   */\n      dup6\n        /* \"#utility.yul\":1628:1645   */\n      add\n        /* \"#utility.yul\":1615:1646   */\n      calldataload\n        /* \"#utility.yul\":1673:1691   */\n      0xffffffffffffffff\n        /* \"#utility.yul\":1665:1671   */\n      dup2\n        /* \"#utility.yul\":1662:1692   */\n      gt\n        /* \"#utility.yul\":1659:1776   */\n      iszero\n      tag_88\n      jumpi\n        /* \"#utility.yul\":1695:1774   */\n      tag_89\n      tag_57\n      jump\t// in\n    tag_89:\n        /* \"#utility.yul\":1659:1776   */\n    tag_88:\n        /* \"#utility.yul\":1808:1888   */\n      tag_90\n        /* \"#utility.yul\":1880:1887   */\n      dup8\n        /* \"#utility.yul\":1871:1877   */\n      dup3\n        /* \"#utility.yul\":1860:1869   */\n      dup9\n        /* \"#utility.yul\":1856:1878   */\n      add\n        /* \"#utility.yul\":1808:1888   */\n      tag_61\n      jump\t// in\n    tag_90:\n        /* \"#utility.yul\":1790:1888   */\n      swap5\n      pop\n      swap5\n      pop\n        /* \"#utility.yul\":1586:1898   */\n      pop\n        /* \"#utility.yul\":1965:1967   */\n      0x20\n        /* \"#utility.yul\":1954:1963   */\n      dup6\n        /* \"#utility.yul\":1950:1968   */\n      add\n        /* \"#utility.yul\":1937:1969   */\n      calldataload\n        /* \"#utility.yul\":1996:2014   */\n      0xffffffffffffffff\n        /* \"#utility.yul\":1988:1994   */\n      dup2\n        /* \"#utility.yul\":1985:2015   */\n      gt\n        /* \"#utility.yul\":1982:2099   */\n      iszero\n      tag_91\n      jumpi\n        /* \"#utility.yul\":2018:2097   */\n      tag_92\n      tag_57\n      jump\t// in\n    tag_92:\n        /* \"#utility.yul\":1982:2099   */\n    tag_91:\n        /* \"#utility.yul\":2131:2211   */\n      tag_93\n        /* \"#utility.yul\":2203:2210   */\n      dup8\n        /* \"#utility.yul\":2194:2200   */\n      dup3\n        /* \"#utility.yul\":2183:2192   */\n      dup9\n        /* \"#utility.yul\":2179:2201   */\n      add\n        /* \"#utility.yul\":2131:2211   */\n      tag_61\n      jump\t// in\n    tag_93:\n        /* \"#utility.yul\":2113:2211   */\n      swap3\n      pop\n      swap3\n      pop\n        /* \"#utility.yul\":1908:2221   */\n      pop\n        /* \"#utility.yul\":1294:2228   */\n      swap3\n      swap6\n      swap2\n      swap5\n      pop\n      swap3\n      pop\n      jump\t// out\n        /* \"#utility.yul\":2234:2348   */\n    tag_62:\n        /* \"#utility.yul\":2301:2307   */\n      0x00\n        /* \"#utility.yul\":2335:2340   */\n      dup2\n        /* \"#utility.yul\":2329:2341   */\n      mload\n        /* \"#utility.yul\":2319:2341   */\n      swap1\n      pop\n        /* \"#utility.yul\":2234:2348   */\n      swap2\n      swap1\n      pop\n      jump\t// out\n        /* \"#utility.yul\":2354:2538   */\n    tag_63:\n        /* \"#utility.yul\":2453:2464   */\n      0x00\n        /* \"#utility.yul\":2487:2493   */\n      dup3\n        /* \"#utility.yul\":2482:2485   */\n      dup3\n        /* \"#utility.yul\":2475:2494   */\n      mstore\n        /* \"#utility.yul\":2527:2531   */\n      0x20\n        /* \"#utility.yul\":2522:2525   */\n      dup3\n        /* \"#utility.yul\":2518:2532   */\n      add\n        /* \"#utility.yul\":2503:2532   */\n      swap1\n      pop\n        /* \"#utility.yul\":2354:2538   */\n      swap3\n      swap2\n      pop\n      pop\n      jump\t// out\n        /* \"#utility.yul\":2544:2676   */\n    tag_64:\n        /* \"#utility.yul\":2611:2615   */\n      0x00\n        /* \"#utility.yul\":2634:2637   */\n      dup2\n        /* \"#utility.yul\":2626:2637   */\n      swap1\n      pop\n        /* \"#utility.yul\":2664:2668   */\n      0x20\n        /* \"#utility.yul\":2659:2662   */\n      dup3\n        /* \"#utility.yul\":2655:2669   */\n      add\n        /* \"#utility.yul\":2647:2669   */\n      swap1\n      pop\n        /* \"#utility.yul\":2544:2676   */\n      swap2\n      swap1\n      pop\n      jump\t// out\n        /* \"#utility.yul\":2682:2759   */\n    tag_65:\n        /* \"#utility.yul\":2719:2726   */\n      0x00\n        /* \"#utility.yul\":2748:2753   */\n      dup2\n        /* \"#utility.yul\":2737:2753   */\n      swap1\n      pop\n        /* \"#utility.yul\":2682:2759   */\n      swap2\n      swap1\n      pop\n      jump\t// out\n        /* \"#utility.yul\":2765:2873   */\n    tag_66:\n        /* \"#utility.yul\":2842:2866   */\n      tag_99\n        /* \"#utility.yul\":2860:2865   */\n      dup2\n        /* \"#utility.yul\":2842:2866   */\n      tag_65\n      jump\t// in\n    tag_99:\n        /* \"#utility.yul\":2837:2840   */\n      dup3\n        /* \"#utility.yul\":2830:2867   */\n      mstore\n        /* \"#utility.yul\":2765:2873   */\n      pop\n      pop\n      jump\t// out\n        /* \"#utility.yul\":2879:3058   */\n    tag_67:\n        /* \"#utility.yul\":2948:2958   */\n      0x00\n        /* \"#utility.yul\":2969:3015   */\n      tag_101\n        /* \"#utility.yul\":3011:3014   */\n      dup4\n        /* \"#utility.yul\":3003:3009   */\n      dup4\n        /* \"#utility.yul\":2969:3015   */\n      tag_66\n      jump\t// in\n    tag_101:\n        /* \"#utility.yul\":3047:3051   */\n      0x20\n        /* \"#utility.yul\":3042:3045   */\n      dup4\n        /* \"#utility.yul\":3038:3052   */\n      add\n        /* \"#utility.yul\":3024:3052   */\n      swap1\n      pop\n        /* \"#utility.yul\":2879:3058   */\n      swap3\n      swap2\n      pop\n      pop\n      jump\t// out\n        /* \"#utility.yul\":3064:3177   */\n    tag_68:\n        /* \"#utility.yul\":3134:3138   */\n      0x00\n        /* \"#utility.yul\":3166:3170   */\n      0x20\n        /* \"#utility.yul\":3161:3164   */\n      dup3\n        /* \"#utility.yul\":3157:3171   */\n      add\n        /* \"#utility.yul\":3149:3171   */\n      swap1\n      pop\n        /* \"#utility.yul\":3064:3177   */\n      swap2\n      swap1\n      pop\n      jump\t// out\n        /* \"#utility.yul\":3213:3945   */\n    tag_69:\n        /* \"#utility.yul\":3332:3335   */\n      0x00\n        /* \"#utility.yul\":3361:3415   */\n      tag_104\n        /* \"#utility.yul\":3409:3414   */\n      dup3\n        /* \"#utility.yul\":3361:3415   */\n      tag_62\n      jump\t// in\n    tag_104:\n        /* \"#utility.yul\":3431:3517   */\n      tag_105\n        /* \"#utility.yul\":3510:3516   */\n      dup2\n        /* \"#utility.yul\":3505:3508   */\n      dup6\n        /* \"#utility.yul\":3431:3517   */\n      tag_63\n      jump\t// in\n    tag_105:\n        /* \"#utility.yul\":3424:3517   */\n      swap4\n      pop\n        /* \"#utility.yul\":3541:3597   */\n      tag_106\n        /* \"#utility.yul\":3591:3596   */\n      dup4\n        /* \"#utility.yul\":3541:3597   */\n      tag_64\n      jump\t// in\n    tag_106:\n        /* \"#utility.yul\":3620:3627   */\n      dup1\n        /* \"#utility.yul\":3651:3652   */\n      0x00\n        /* \"#utility.yul\":3636:3920   */\n    tag_107:\n        /* \"#utility.yul\":3661:3667   */\n      dup4\n        /* \"#utility.yul\":3658:3659   */\n      dup2\n        /* \"#utility.yul\":3655:3668   */\n      lt\n        /* \"#utility.yul\":3636:3920   */\n      iszero\n      tag_109\n      jumpi\n        /* \"#utility.yul\":3737:3743   */\n      dup2\n        /* \"#utility.yul\":3731:3744   */\n      mload\n        /* \"#utility.yul\":3764:3827   */\n      tag_110\n        /* \"#utility.yul\":3823:3826   */\n      dup9\n        /* \"#utility.yul\":3808:3821   */\n      dup3\n        /* \"#utility.yul\":3764:3827   */\n      tag_67\n      jump\t// in\n    tag_110:\n        /* \"#utility.yul\":3757:3827   */\n      swap8\n      pop\n        /* \"#utility.yul\":3850:3910   */\n      tag_111\n        /* \"#utility.yul\":3903:3909   */\n      dup4\n        /* \"#utility.yul\":3850:3910   */\n      tag_68\n      jump\t// in\n    tag_111:\n        /* \"#utility.yul\":3840:3910   */\n      swap3\n      pop\n        /* \"#utility.yul\":3696:3920   */\n      pop\n        /* \"#utility.yul\":3683:3684   */\n      0x01\n        /* \"#utility.yul\":3680:3681   */\n      dup2\n        /* \"#utility.yul\":3676:3685   */\n      add\n        /* \"#utility.yul\":3671:3685   */\n      swap1\n      pop\n        /* \"#utility.yul\":3636:3920   */\n      jump(tag_107)\n    tag_109:\n        /* \"#utility.yul\":3640:3654   */\n      pop\n        /* \"#utility.yul\":3936:3939   */\n      dup6\n        /* \"#utility.yul\":3929:3939   */\n      swap4\n      pop\n        /* \"#utility.yul\":3337:3945   */\n      pop\n      pop\n      pop\n        /* \"#utility.yul\":3213:3945   */\n      swap3\n      swap2\n      pop\n      pop\n      jump\t// out\n        /* \"#utility.yul\":3951:4324   */\n    tag_9:\n        /* \"#utility.yul\":4094:4098   */\n      0x00\n        /* \"#utility.yul\":4132:4134   */\n      0x20\n        /* \"#utility.yul\":4121:4130   */\n      dup3\n        /* \"#utility.yul\":4117:4135   */\n      add\n        /* \"#utility.yul\":4109:4135   */\n      swap1\n      pop\n        /* \"#utility.yul\":4181:4190   */\n      dup2\n        /* \"#utility.yul\":4175:4179   */\n      dup2\n        /* \"#utility.yul\":4171:4191   */\n      sub\n        /* \"#utility.yul\":4167:4168   */\n      0x00\n        /* \"#utility.yul\":4156:4165   */\n      dup4\n        /* \"#utility.yul\":4152:4169   */\n      add\n        /* \"#utility.yul\":4145:4192   */\n      mstore\n        /* \"#utility.yul\":4209:4317   */\n      tag_113\n        /* \"#utility.yul\":4312:4316   */\n      dup2\n        /* \"#utility.yul\":4303:4309   */\n      dup5\n        /* \"#utility.yul\":4209:4317   */\n      tag_69\n      jump\t// in\n    tag_113:\n        /* \"#utility.yul\":4201:4317   */\n      swap1\n      pop\n        /* \"#utility.yul\":3951:4324   */\n      swap3\n      swap2\n      pop\n      pop\n      jump\t// out\n        /* \"#utility.yul\":4330:4510   */\n    tag_70:\n        /* \"#utility.yul\":4378:4455   */\n      0x4e487b7100000000000000000000000000000000000000000000000000000000\n        /* \"#utility.yul\":4375:4376   */\n      0x00\n        /* \"#utility.yul\":4368:4456   */\n      mstore\n        /* \"#utility.yul\":4475:4479   */\n      0x11\n        /* \"#utility.yul\":4472:4473   */\n      0x04\n        /* \"#utility.yul\":4465:4480   */\n      mstore\n        /* \"#utility.yul\":4499:4503   */\n      0x24\n        /* \"#utility.yul\":4496:4497   */\n      0x00\n        /* \"#utility.yul\":4489:4504   */\n      revert\n        /* \"#utility.yul\":4516:4707   */\n    tag_12:\n        /* \"#utility.yul\":4556:4559   */\n      0x00\n        /* \"#utility.yul\":4575:4595   */\n      tag_116\n        /* \"#utility.yul\":4593:4594   */\n      dup3\n        /* \"#utility.yul\":4575:4595   */\n      tag_65\n      jump\t// in\n    tag_116:\n        /* \"#utility.yul\":4570:4595   */\n      swap2\n      pop\n        /* \"#utility.yul\":4609:4629   */\n      tag_117\n        /* \"#utility.yul\":4627:4628   */\n      dup4\n        /* \"#utility.yul\":4609:4629   */\n      tag_65\n      jump\t// in\n    tag_117:\n        /* \"#utility.yul\":4604:4629   */\n      swap3\n      pop\n        /* \"#utility.yul\":4652:4653   */\n      dup3\n        /* \"#utility.yul\":4649:4650   */\n      dup3\n        /* \"#utility.yul\":4645:4654   */\n      add\n        /* \"#utility.yul\":4638:4654   */\n      swap1\n      pop\n        /* \"#utility.yul\":4673:4676   */\n      dup1\n        /* \"#utility.yul\":4670:4671   */\n      dup3\n        /* \"#utility.yul\":4667:4677   */\n      gt\n        /* \"#utility.yul\":4664:4700   */\n      iszero\n      tag_118\n      jumpi\n        /* \"#utility.yul\":4680:4698   */\n      tag_119\n      tag_70\n      jump\t// in\n    tag_119:\n        /* \"#utility.yul\":4664:4700   */\n    tag_118:\n        /* \"#utility.yul\":4516:4707   */\n      swap3\n      swap2\n      pop\n      pop\n      jump\t// out\n        /* \"#utility.yul\":4713:4893   */\n    tag_15:\n        /* \"#utility.yul\":4761:4838   */\n      0x4e487b7100000000000000000000000000000000000000000000000000000000\n        /* \"#utility.yul\":4758:4759   */\n      0x00\n        /* \"#utility.yul\":4751:4839   */\n      mstore\n        /* \"#utility.yul\":4858:4862   */\n      0x41\n        /* \"#utility.yul\":4855:4856   */\n      0x04\n        /* \"#utility.yul\":4848:4863   */\n      mstore\n        /* \"#utility.yul\":4882:4886   */\n      0x24\n        /* \"#utility.yul\":4879:4880   */\n      0x00\n        /* \"#utility.yul\":4872:4887   */\n      revert\n        /* \"#utility.yul\":4899:5079   */\n    tag_22:\n        /* \"#utility.yul\":4947:5024   */\n      0x4e487b7100000000000000000000000000000000000000000000000000000000\n        /* \"#utility.yul\":4944:4945   */\n      0x00\n        /* \"#utility.yul\":4937:5025   */\n      mstore\n        /* \"#utility.yul\":5044:5048   */\n      0x32\n        /* \"#utility.yul\":5041:5042   */\n      0x04\n        /* \"#utility.yul\":5034:5049   */\n      mstore\n        /* \"#utility.yul\":5068:5072   */\n      0x24\n        /* \"#utility.yul\":5065:5066   */\n      0x00\n        /* \"#utility.yul\":5058:5073   */\n      revert\n        /* \"#utility.yul\":5085:5318   */\n    tag_31:\n        /* \"#utility.yul\":5124:5127   */\n      0x00\n        /* \"#utility.yul\":5147:5171   */\n      tag_123\n        /* \"#utility.yul\":5165:5170   */\n      dup3\n        /* \"#utility.yul\":5147:5171   */\n      tag_65\n      jump\t// in\n    tag_123:\n        /* \"#utility.yul\":5138:5171   */\n      swap2\n      pop\n        /* \"#utility.yul\":5193:5259   */\n      0xffffffffffffffffffffffffffffffffffffffffffffffffffffffffffffffff\n        /* \"#utility.yul\":5186:5191   */\n      dup3\n        /* \"#utility.yul\":5183:5260   */\n      sub\n        /* \"#utility.yul\":5180:5283   */\n      tag_124\n      jumpi\n        /* \"#utility.yul\":5263:5281   */\n      tag_125\n      tag_70\n      jump\t// in\n    tag_125:\n        /* \"#utility.yul\":5180:5283   */\n    tag_124:\n        /* \"#utility.yul\":5310:5311   */\n      0x01\n        /* \"#utility.yul\":5303:5308   */\n      dup3\n        /* \"#utility.yul\":5299:5312   */\n      add\n        /* \"#utility.yul\":5292:5312   */\n      swap1\n      pop\n        /* \"#utility.yul\":5085:5318   */\n      swap2\n      swap1\n      pop\n      jump\t// out\n\n    auxdata: 0xa2646970667358221220ec909f839c956d86b4e683002518e42af50d77e6a23696659a9701f73128b91364736f6c634300081e0033\n}\n",
				"bytecode": {
					"linkReferences": {},
					"object": "6080604052348015600e575f5ffd5b506105998061001c5f395ff3fe608060405234801561000f575f5ffd5b5060043610610029575f3560e01c80634cf0cc0d1461002d575b5f5ffd5b61004760048036038101906100429190610304565b61005d565b6040516100549190610442565b60405180910390f35b60605f8585905090505f8484905090505f818361007a919061048f565b90508067ffffffffffffffff811115610096576100956104c2565b5b6040519080825280602002602001820160405280156100c45781602001602082028036833780820191505090505b5093505f5f90505f5f90505f5f90505b85831080156100e257508482105b156101c7578888838181106100fa576100f96104ef565b5b905060200201358b8b85818110610114576101136104ef565b5b905060200201351161016c578a8a84818110610133576101326104ef565b5b9050602002013587828151811061014d5761014c6104ef565b5b60200260200101818152505082806101649061051c565b9350506101b4565b88888381811061017f5761017e6104ef565b5b90506020020135878281518110610199576101986104ef565b5b60200260200101818152505081806101b09061051c565b9250505b80806101bf9061051c565b9150506100d4565b5b8583101561022a578a8a848181106101e3576101e26104ef565b5b905060200201358782815181106101fd576101fc6104ef565b5b60200260200101818152505082806102149061051c565b93505080806102229061051c565b9150506101c8565b5b8482101561028d57888883818110610246576102456104ef565b5b905060200201358782815181106102605761025f6104ef565b5b60200260200101818152505081806102779061051c565b92505080806102859061051c565b91505061022b565b505050505050949350505050565b5f5ffd5b5f5ffd5b5f5ffd5b5f5ffd5b5f5ffd5b5f5f83601f8401126102c4576102c36102a3565b5b8235905067ffffffffffffffff8111156102e1576102e06102a7565b5b6020830191508360208202830111156102fd576102fc6102ab565b5b9250929050565b5f5f5f5f6040858703121561031c5761031b61029b565b5b5f85013567ffffffffffffffff8111156103395761033861029f565b5b610345878288016102af565b9450945050602085013567ffffffffffffffff8111156103685761036761029f565b5b610374878288016102af565b925092505092959194509250565b5f81519050919050565b5f82825260208201905092915050565b5f819050602082019050919050565b5f819050919050565b6103bd816103ab565b82525050565b5f6103ce83836103b4565b60208301905092915050565b5f602082019050919050565b5f6103f082610382565b6103fa818561038c565b93506104058361039c565b805f5b8381101561043557815161041c88826103c3565b9750610427836103da565b925050600181019050610408565b5085935050505092915050565b5f6020820190508181035f83015261045a81846103e6565b905092915050565b7f4e487b71000000000000000000000000000000000000000000000000000000005f52601160045260245ffd5b5f610499826103ab565b91506104a4836103ab565b92508282019050808211156104bc576104bb610462565b5b92915050565b7f4e487b71000000000000000000000000000000000000000000000000000000005f52604160045260245ffd5b7f4e487b71000000000000000000000000000000000000000000000000000000005f52603260045260245ffd5b5f610526826103ab565b91507fffffffffffffffffffffffffffffffffffffffffffffffffffffffffffffffff820361055857610557610462565b5b60018201905091905056fea2646970667358221220ec909f839c956d86b4e683002518e42af50d77e6a23696659a9701f73128b91364736f6c634300081e0033",
					"opcodes": "PUSH1 0x80 PUSH1 0x40 MSTORE CALLVALUE DUP1 ISZERO PUSH1 0xE JUMPI PUSH0 PUSH0 REVERT JUMPDEST POP PUSH2 0x599 DUP1 PUSH2 0x1C PUSH0 CODECOPY PUSH0 RETURN INVALID PUSH1 0x80 PUSH1 0x40 MSTORE CALLVALUE DUP1 ISZERO PUSH2 0xF JUMPI PUSH0 PUSH0 REVERT JUMPDEST POP PUSH1 0x4 CALLDATASIZE LT PUSH2 0x29 JUMPI PUSH0 CALLDATALOAD PUSH1 0xE0 SHR DUP1 PUSH4 0x4CF0CC0D EQ PUSH2 0x2D JUMPI JUMPDEST PUSH0 PUSH0 REVERT JUMPDEST PUSH2 0x47 PUSH1 0x4 DUP1 CALLDATASIZE SUB DUP2 ADD SWAP1 PUSH2 0x42 SWAP2 SWAP1 PUSH2 0x304 JUMP JUMPDEST PUSH2 0x5D JUMP JUMPDEST PUSH1 0x40 MLOAD PUSH2 0x54 SWAP2 SWAP1 PUSH2 0x442 JUMP JUMPDEST PUSH1 0x40 MLOAD DUP1 SWAP2 SUB SWAP1 RETURN JUMPDEST PUSH1 0x60 PUSH0 DUP6 DUP6 SWAP1 POP SWAP1 POP PUSH0 DUP5 DUP5 SWAP1 POP SWAP1 POP PUSH0 DUP2 DUP4 PUSH2 0x7A SWAP2 SWAP1 PUSH2 0x48F JUMP JUMPDEST SWAP1 POP DUP1 PUSH8 0xFFFFFFFFFFFFFFFF DUP2 GT ISZERO PUSH2 0x96 JUMPI PUSH2 0x95 PUSH2 0x4C2 JUMP JUMPDEST JUMPDEST PUSH1 0x40 MLOAD SWAP1 DUP1 DUP3 MSTORE DUP1 PUSH1 0x20 MUL PUSH1 0x20 ADD DUP3 ADD PUSH1 0x40 MSTORE DUP1 ISZERO PUSH2 0xC4 JUMPI DUP2 PUSH1 0x20 ADD PUSH1 0x20 DUP3 MUL DUP1 CALLDATASIZE DUP4 CALLDATACOPY DUP1 DUP3 ADD SWAP2 POP POP SWAP1 POP JUMPDEST POP SWAP4 POP PUSH0 PUSH0 SWAP1 POP PUSH0 PUSH0 SWAP1 POP PUSH0 PUSH0 SWAP1 POP JUMPDEST DUP6 DUP4 LT DUP1 ISZERO PUSH2 0xE2 JUMPI POP DUP5 DUP3 LT JUMPDEST ISZERO PUSH2 0x1C7 JUMPI DUP9 DUP9 DUP4 DUP2 DUP2 LT PUSH2 0xFA JUMPI PUSH2 0xF9 PUSH2 0x4EF JUMP JUMPDEST JUMPDEST SWAP1 POP PUSH1 0x20 MUL ADD CALLDATALOAD DUP12 DUP12 DUP6 DUP2 DUP2 LT PUSH2 0x114 JUMPI PUSH2 0x113 PUSH2 0x4EF JUMP JUMPDEST JUMPDEST SWAP1 POP PUSH1 0x20 MUL ADD CALLDATALOAD GT PUSH2 0x16C JUMPI DUP11 DUP11 DUP5 DUP2 DUP2 LT PUSH2 0x133 JUMPI PUSH2 0x132 PUSH2 0x4EF JUMP JUMPDEST JUMPDEST SWAP1 POP PUSH1 0x20 MUL ADD CALLDATALOAD DUP8 DUP3 DUP2 MLOAD DUP2 LT PUSH2 0x14D JUMPI PUSH2 0x14C PUSH2 0x4EF JUMP JUMPDEST JUMPDEST PUSH1 0x20 MUL PUSH1 0x20 ADD ADD DUP2 DUP2 MSTORE POP POP DUP3 DUP1 PUSH2 0x164 SWAP1 PUSH2 0x51C JUMP JUMPDEST SWAP4 POP POP PUSH2 0x1B4 JUMP JUMPDEST DUP9 DUP9 DUP4 DUP2 DUP2 LT PUSH2 0x17F JUMPI PUSH2 0x17E PUSH2 0x4EF JUMP JUMPDEST JUMPDEST SWAP1 POP PUSH1 0x20 MUL ADD CALLDATALOAD DUP8 DUP3 DUP2 MLOAD DUP2 LT PUSH2 0x199 JUMPI PUSH2 0x198 PUSH2 0x4EF JUMP JUMPDEST JUMPDEST PUSH1 0x20 MUL PUSH1 0x20 ADD ADD DUP2 DUP2 MSTORE POP POP DUP2 DUP1 PUSH2 0x1B0 SWAP1 PUSH2 0x51C JUMP JUMPDEST SWAP3 POP POP JUMPDEST DUP1 DUP1 PUSH2 0x1BF SWAP1 PUSH2 0x51C JUMP JUMPDEST SWAP2 POP POP PUSH2 0xD4 JUMP JUMPDEST JUMPDEST DUP6 DUP4 LT ISZERO PUSH2 0x22A JUMPI DUP11 DUP11 DUP5 DUP2 DUP2 LT PUSH2 0x1E3 JUMPI PUSH2 0x1E2 PUSH2 0x4EF JUMP JUMPDEST JUMPDEST SWAP1 POP PUSH1 0x20 MUL ADD CALLDATALOAD DUP8 DUP3 DUP2 MLOAD DUP2 LT PUSH2 0x1FD JUMPI PUSH2 0x1FC PUSH2 0x4EF JUMP JUMPDEST JUMPDEST PUSH1 0x20 MUL PUSH1 0x20 ADD ADD DUP2 DUP2 MSTORE POP POP DUP3 DUP1 PUSH2 0x214 SWAP1 PUSH2 0x51C JUMP JUMPDEST SWAP4 POP POP DUP1 DUP1 PUSH2 0x222 SWAP1 PUSH2 0x51C JUMP JUMPDEST SWAP2 POP POP PUSH2 0x1C8 JUMP JUMPDEST JUMPDEST DUP5 DUP3 LT ISZERO PUSH2 0x28D JUMPI DUP9 DUP9 DUP4 DUP2 DUP2 LT PUSH2 0x246 JUMPI PUSH2 0x245 PUSH2 0x4EF JUMP JUMPDEST JUMPDEST SWAP1 POP PUSH1 0x20 MUL ADD CALLDATALOAD DUP8 DUP3 DUP2 MLOAD DUP2 LT PUSH2 0x260 JUMPI PUSH2 0x25F PUSH2 0x4EF JUMP JUMPDEST JUMPDEST PUSH1 0x20 MUL PUSH1 0x20 ADD ADD DUP2 DUP2 MSTORE POP POP DUP2 DUP1 PUSH2 0x277 SWAP1 PUSH2 0x51C JUMP JUMPDEST SWAP3 POP POP DUP1 DUP1 PUSH2 0x285 SWAP1 PUSH2 0x51C JUMP JUMPDEST SWAP2 POP POP PUSH2 0x22B JUMP JUMPDEST POP POP POP POP POP POP SWAP5 SWAP4 POP POP POP POP JUMP JUMPDEST PUSH0 PUSH0 REVERT JUMPDEST PUSH0 PUSH0 REVERT JUMPDEST PUSH0 PUSH0 REVERT JUMPDEST PUSH0 PUSH0 REVERT JUMPDEST PUSH0 PUSH0 REVERT JUMPDEST PUSH0 PUSH0 DUP4 PUSH1 0x1F DUP5 ADD SLT PUSH2 0x2C4 JUMPI PUSH2 0x2C3 PUSH2 0x2A3 JUMP JUMPDEST JUMPDEST DUP3 CALLDATALOAD SWAP1 POP PUSH8 0xFFFFFFFFFFFFFFFF DUP2 GT ISZERO PUSH2 0x2E1 JUMPI PUSH2 0x2E0 PUSH2 0x2A7 JUMP JUMPDEST JUMPDEST PUSH1 0x20 DUP4 ADD SWAP2 POP DUP4 PUSH1 0x20 DUP3 MUL DUP4 ADD GT ISZERO PUSH2 0x2FD JUMPI PUSH2 0x2FC PUSH2 0x2AB JUMP JUMPDEST JUMPDEST SWAP3 POP SWAP3 SWAP1 POP JUMP JUMPDEST PUSH0 PUSH0 PUSH0 PUSH0 PUSH1 0x40 DUP6 DUP8 SUB SLT ISZERO PUSH2 0x31C JUMPI PUSH2 0x31B PUSH2 0x29B JUMP JUMPDEST JUMPDEST PUSH0 DUP6 ADD CALLDATALOAD PUSH8 0xFFFFFFFFFFFFFFFF DUP2 GT ISZERO PUSH2 0x339 JUMPI PUSH2 0x338 PUSH2 0x29F JUMP JUMPDEST JUMPDEST PUSH2 0x345 DUP8 DUP3 DUP9 ADD PUSH2 0x2AF JUMP JUMPDEST SWAP5 POP SWAP5 POP POP PUSH1 0x20 DUP6 ADD CALLDATALOAD PUSH8 0xFFFFFFFFFFFFFFFF DUP2 GT ISZERO PUSH2 0x368 JUMPI PUSH2 0x367 PUSH2 0x29F JUMP JUMPDEST JUMPDEST PUSH2 0x374 DUP8 DUP3 DUP9 ADD PUSH2 0x2AF JUMP JUMPDEST SWAP3 POP SWAP3 POP POP SWAP3 SWAP6 SWAP2 SWAP5 POP SWAP3 POP JUMP JUMPDEST PUSH0 DUP2 MLOAD SWAP1 POP SWAP2 SWAP1 POP JUMP JUMPDEST PUSH0 DUP3 DUP3 MSTORE PUSH1 0x20 DUP3 ADD SWAP1 POP SWAP3 SWAP2 POP POP JUMP JUMPDEST PUSH0 DUP2 SWAP1 POP PUSH1 0x20 DUP3 ADD SWAP1 POP SWAP2 SWAP1 POP JUMP JUMPDEST PUSH0 DUP2 SWAP1 POP SWAP2 SWAP1 POP JUMP JUMPDEST PUSH2 0x3BD DUP2 PUSH2 0x3AB JUMP JUMPDEST DUP3 MSTORE POP POP JUMP JUMPDEST PUSH0 PUSH2 0x3CE DUP4 DUP4 PUSH2 0x3B4 JUMP JUMPDEST PUSH1 0x20 DUP4 ADD SWAP1 POP SWAP3 SWAP2 POP POP JUMP JUMPDEST PUSH0 PUSH1 0x20 DUP3 ADD SWAP1 POP SWAP2 SWAP1 POP JUMP JUMPDEST PUSH0 PUSH2 0x3F0 DUP3 PUSH2 0x382 JUMP JUMPDEST PUSH2 0x3FA DUP2 DUP6 PUSH2 0x38C JUMP JUMPDEST SWAP4 POP PUSH2 0x405 DUP4 PUSH2 0x39C JUMP JUMPDEST DUP1 PUSH0 JUMPDEST DUP4 DUP2 LT ISZERO PUSH2 0x435 JUMPI DUP2 MLOAD PUSH2 0x41C DUP9 DUP3 PUSH2 0x3C3 JUMP JUMPDEST SWAP8 POP PUSH2 0x427 DUP4 PUSH2 0x3DA JUMP JUMPDEST SWAP3 POP POP PUSH1 0x1 DUP2 ADD SWAP1 POP PUSH2 0x408 JUMP JUMPDEST POP DUP6 SWAP4 POP POP POP POP SWAP3 SWAP2 POP POP JUMP JUMPDEST PUSH0 PUSH1 0x20 DUP3 ADD SWAP1 POP DUP2 DUP2 SUB PUSH0 DUP4 ADD MSTORE PUSH2 0x45A DUP2 DUP5 PUSH2 0x3E6 JUMP JUMPDEST SWAP1 POP SWAP3 SWAP2 POP POP JUMP JUMPDEST PUSH32 0x4E487B7100000000000000000000000000000000000000000000000000000000 PUSH0 MSTORE PUSH1 0x11 PUSH1 0x4 MSTORE PUSH1 0x24 PUSH0 REVERT JUMPDEST PUSH0 PUSH2 0x499 DUP3 PUSH2 0x3AB JUMP JUMPDEST SWAP2 POP PUSH2 0x4A4 DUP4 PUSH2 0x3AB JUMP JUMPDEST SWAP3 POP DUP3 DUP3 ADD SWAP1 POP DUP1 DUP3 GT ISZERO PUSH2 0x4BC JUMPI PUSH2 0x4BB PUSH2 0x462 JUMP JUMPDEST JUMPDEST SWAP3 SWAP2 POP POP JUMP JUMPDEST PUSH32 0x4E487B7100000000000000000000000000000000000000000000000000000000 PUSH0 MSTORE PUSH1 0x41 PUSH1 0x4 MSTORE PUSH1 0x24 PUSH0 REVERT JUMPDEST PUSH32 0x4E487B7100000000000000000000000000000000000000000000000000000000 PUSH0 MSTORE PUSH1 0x32 PUSH1 0x4 MSTORE PUSH1 0x24 PUSH0 REVERT JUMPDEST PUSH0 PUSH2 0x526 DUP3 PUSH2 0x3AB JUMP JUMPDEST SWAP2 POP PUSH32 0xFFFFFFFFFFFFFFFFFFFFFFFFFFFFFFFFFFFFFFFFFFFFFFFFFFFFFFFFFFFFFFFF DUP3 SUB PUSH2 0x558 JUMPI PUSH2 0x557 PUSH2 0x462 JUMP JUMPDEST JUMPDEST PUSH1 0x1 DUP3 ADD SWAP1 POP SWAP2 SWAP1 POP JUMP INVALID LOG2 PUSH5 0x6970667358 0x22 SLT KECCAK256 EOFCREATE 0x90 SWAP16 DUP4 SWAP13 SWAP6 PUSH14 0x86B4E683002518E42AF50D77E6A2 CALLDATASIZE SWAP7 PUSH6 0x9A9701F73128 0xB9 SGT PUSH5 0x736F6C6343 STOP ADDMOD 0x1E STOP CALLER "
				},
				"gasEstimates": {
					"creation": {
						"codeDepositCost": "286600",
						"executionCost": "322",
						"totalCost": "286922"
					},
					"external": {
						"mergeSortedArrays(uint256[],uint256[])": "infinite"
					}
				},
				"methodIdentifiers": {
					"mergeSortedArrays(uint256[],uint256[])": "4cf0cc0d"
				}
			},
			"storageLayout": {
				"storage": [],
				"types": null
			},
			"userdoc": {
				"kind": "user",
				"methods": {},
				"version": 1
			}
		}
	}
}