{
	"contracts/roman_converter.sol": {
		"RomanConverter": {
			"abi": [
				{
					"inputs": [
						{
							"internalType": "uint16",
							"name": "num",
							"type": "uint16"
						}
					],
					"name": "intToRoman",
					"outputs": [
						{
							"internalType": "string",
							"name": "",
							"type": "string"
						}
					],
					"stateMutability": "view",
					"type": "function"
				},
				{
					"inputs": [
						{
							"internalType": "string",
							"name": "roman",
							"type": "string"
						}
					],
					"name": "romanToInt",
					"outputs": [
						{
							"internalType": "uint16",
							"name": "",
							"type": "uint16"
						}
					],
					"stateMutability": "pure",
					"type": "function"
				}
			],
			"devdoc": {
				"kind": "dev",
				"methods": {},
				"version": 1
			},
			"evm": {
				"assembly": "    /* \"contracts/roman_converter.sol\":58:2161  contract RomanConverter {... */\n  mstore(0x40, 0x80)\n    /* \"contracts/roman_converter.sol\":91:218  uint16[] private _values = [... */\n  mload(0x40)\n  dup1\n  0x01c0\n  add\n  0x40\n  mstore\n  dup1\n    /* \"contracts/roman_converter.sol\":129:133  1000 */\n  0x03e8\n    /* \"contracts/roman_converter.sol\":91:218  uint16[] private _values = [... */\n  0xffff\n  and\n  dup2\n  mstore\n  0x20\n  add\n    /* \"contracts/roman_converter.sol\":135:138  900 */\n  0x0384\n    /* \"contracts/roman_converter.sol\":91:218  uint16[] private _values = [... */\n  0xffff\n  and\n  dup2\n  mstore\n  0x20\n  add\n    /* \"contracts/roman_converter.sol\":140:143  500 */\n  0x01f4\n    /* \"contracts/roman_converter.sol\":91:218  uint16[] private _values = [... */\n  0xffff\n  and\n  dup2\n  mstore\n  0x20\n  add\n    /* \"contracts/roman_converter.sol\":145:148  400 */\n  0x0190\n    /* \"contracts/roman_converter.sol\":91:218  uint16[] private _values = [... */\n  0xffff\n  and\n  dup2\n  mstore\n  0x20\n  add\n    /* \"contracts/roman_converter.sol\":159:162  100 */\n  0x64\n    /* \"contracts/roman_converter.sol\":91:218  uint16[] private _values = [... */\n  0xffff\n  and\n  dup2\n  mstore\n  0x20\n  add\n    /* \"contracts/roman_converter.sol\":164:166  90 */\n  0x5a\n    /* \"contracts/roman_converter.sol\":91:218  uint16[] private _values = [... */\n  0xffff\n  and\n  dup2\n  mstore\n  0x20\n  add\n    /* \"contracts/roman_converter.sol\":168:170  50 */\n  0x32\n    /* \"contracts/roman_converter.sol\":91:218  uint16[] private _values = [... */\n  0xffff\n  and\n  dup2\n  mstore\n  0x20\n  add\n    /* \"contracts/roman_converter.sol\":172:174  40 */\n  0x28\n    /* \"contracts/roman_converter.sol\":91:218  uint16[] private _values = [... */\n  0xffff\n  and\n  dup2\n  mstore\n  0x20\n  add\n    /* \"contracts/roman_converter.sol\":185:187  10 */\n  0x0a\n    /* \"contracts/roman_converter.sol\":91:218  uint16[] private _values = [... */\n  0xffff\n  and\n  dup2\n  mstore\n  0x20\n  add\n    /* \"contracts/roman_converter.sol\":189:190  9 */\n  0x09\n    /* \"contracts/roman_converter.sol\":91:218  uint16[] private _values = [... */\n  0xffff\n  and\n  dup2\n  mstore\n  0x20\n  add\n    /* \"contracts/roman_converter.sol\":192:193  5 */\n  0x05\n    /* \"contracts/roman_converter.sol\":91:218  uint16[] private _values = [... */\n  0xffff\n  and\n  dup2\n  mstore\n  0x20\n  add\n    /* \"contracts/roman_converter.sol\":195:196  4 */\n  0x04\n    /* \"contracts/roman_converter.sol\":91:218  uint16[] private _values = [... */\n  0xffff\n  and\n  dup2\n  mstore\n  0x20\n  add\n    /* \"contracts/roman_converter.sol\":207:208  1 */\n  0x01\n    /* \"contracts/roman_converter.sol\":91:218  uint16[] private _values = [... */\n  0xffff\n  and\n  dup2\n  mstore\n  0x20\n  add\n    /* \"contracts/roman_converter.sol\":210:211  0 */\n  0x00\n    /* \"contracts/roman_converter.sol\":91:218  uint16[] private _values = [... */\n  0xffff\n  and\n  dup2\n  mstore\n  pop\n  0x00\n  swap1\n  0x0e\n  tag_1\n  swap3\n  swap2\n  swap1\n  tag_2\n  jump\t// in\ntag_1:\n  pop\n    /* \"contracts/roman_converter.sol\":227:373  string[] private _symbols = [... */\n  mload(0x40)\n  dup1\n  0x01c0\n  add\n  0x40\n  mstore\n  dup1\n  mload(0x40)\n  dup1\n  0x40\n  add\n  0x40\n  mstore\n  dup1\n  0x01\n  dup2\n  mstore\n  0x20\n  add\n  0x4d00000000000000000000000000000000000000000000000000000000000000\n  dup2\n  mstore\n  pop\n  dup2\n  mstore\n  0x20\n  add\n  mload(0x40)\n  dup1\n  0x40\n  add\n  0x40\n  mstore\n  dup1\n  0x02\n  dup2\n  mstore\n  0x20\n  add\n  0x434d000000000000000000000000000000000000000000000000000000000000\n  dup2\n  mstore\n  pop\n  dup2\n  mstore\n  0x20\n  add\n  mload(0x40)\n  dup1\n  0x40\n  add\n  0x40\n  mstore\n  dup1\n  0x01\n  dup2\n  mstore\n  0x20\n  add\n  0x4400000000000000000000000000000000000000000000000000000000000000\n  dup2\n  mstore\n  pop\n  dup2\n  mstore\n  0x20\n  add\n  mload(0x40)\n  dup1\n  0x40\n  add\n  0x40\n  mstore\n  dup1\n  0x02\n  dup2\n  mstore\n  0x20\n  add\n  0x4344000000000000000000000000000000000000000000000000000000000000\n  dup2\n  mstore\n  pop\n  dup2\n  mstore\n  0x20\n  add\n  mload(0x40)\n  dup1\n  0x40\n  add\n  0x40\n  mstore\n  dup1\n  0x01\n  dup2\n  mstore\n  0x20\n  add\n  0x4300000000000000000000000000000000000000000000000000000000000000\n  dup2\n  mstore\n  pop\n  dup2\n  mstore\n  0x20\n  add\n  mload(0x40)\n  dup1\n  0x40\n  add\n  0x40\n  mstore\n  dup1\n  0x02\n  dup2\n  mstore\n  0x20\n  add\n  0x5843000000000000000000000000000000000000000000000000000000000000\n  dup2\n  mstore\n  pop\n  dup2\n  mstore\n  0x20\n  add\n  mload(0x40)\n  dup1\n  0x40\n  add\n  0x40\n  mstore\n  dup1\n  0x01\n  dup2\n  mstore\n  0x20\n  add\n  0x4c00000000000000000000000000000000000000000000000000000000000000\n  dup2\n  mstore\n  pop\n  dup2\n  mstore\n  0x20\n  add\n  mload(0x40)\n  dup1\n  0x40\n  add\n  0x40\n  mstore\n  dup1\n  0x02\n  dup2\n  mstore\n  0x20\n  add\n  0x584c000000000000000000000000000000000000000000000000000000000000\n  dup2\n  mstore\n  pop\n  dup2\n  mstore\n  0x20\n  add\n  mload(0x40)\n  dup1\n  0x40\n  add\n  0x40\n  mstore\n  dup1\n  0x01\n  dup2\n  mstore\n  0x20\n  add\n  0x5800000000000000000000000000000000000000000000000000000000000000\n  dup2\n  mstore\n  pop\n  dup2\n  mstore\n  0x20\n  add\n  mload(0x40)\n  dup1\n  0x40\n  add\n  0x40\n  mstore\n  dup1\n  0x02\n  dup2\n  mstore\n  0x20\n  add\n  0x4958000000000000000000000000000000000000000000000000000000000000\n  dup2\n  mstore\n  pop\n  dup2\n  mstore\n  0x20\n  add\n  mload(0x40)\n  dup1\n  0x40\n  add\n  0x40\n  mstore\n  dup1\n  0x01\n  dup2\n  mstore\n  0x20\n  add\n  0x5600000000000000000000000000000000000000000000000000000000000000\n  dup2\n  mstore\n  pop\n  dup2\n  mstore\n  0x20\n  add\n  mload(0x40)\n  dup1\n  0x40\n  add\n  0x40\n  mstore\n  dup1\n  0x02\n  dup2\n  mstore\n  0x20\n  add\n  0x4956000000000000000000000000000000000000000000000000000000000000\n  dup2\n  mstore\n  pop\n  dup2\n  mstore\n  0x20\n  add\n  mload(0x40)\n  dup1\n  0x40\n  add\n  0x40\n  mstore\n  dup1\n  0x01\n  dup2\n  mstore\n  0x20\n  add\n  0x4900000000000000000000000000000000000000000000000000000000000000\n  dup2\n  mstore\n  pop\n  dup2\n  mstore\n  0x20\n  add\n  mload(0x40)\n  dup1\n  0x20\n  add\n  0x40\n  mstore\n  dup1\n  0x00\n  dup2\n  mstore\n  pop\n  dup2\n  mstore\n  pop\n  0x01\n  swap1\n  0x0e\n  tag_3\n  swap3\n  swap2\n  swap1\n  tag_4\n  jump\t// in\ntag_3:\n  pop\n    /* \"contracts/roman_converter.sol\":58:2161  contract RomanConverter {... */\n  callvalue\n  dup1\n  iszero\n  tag_5\n  jumpi\n  revert(0x00, 0x00)\ntag_5:\n  pop\n  jump(tag_6)\ntag_2:\n  dup3\n  dup1\n  sload\n  dup3\n  dup3\n  sstore\n  swap1\n  0x00\n  mstore\n  keccak256(0x00, 0x20)\n  swap1\n  0x0f\n  add\n  0x10\n  swap1\n  div\n  dup2\n  add\n  swap3\n  dup3\n  iszero\n  tag_7\n  jumpi\n  swap2\n  0x20\n  mul\n  dup3\n  add\n  0x00\ntag_8:\n  dup4\n  dup3\n  gt\n  iszero\n  tag_9\n  jumpi\n  dup4\n  mload\n  dup4\n  dup3\n  0x0100\n  exp\n  dup2\n  sload\n  dup2\n  0xffff\n  mul\n  not\n  and\n  swap1\n  dup4\n  0xffff\n  and\n  mul\n  or\n  swap1\n  sstore\n  pop\n  swap3\n  0x20\n  add\n  swap3\n  0x02\n  add\n  0x20\n  dup2\n  0x01\n  add\n  div\n  swap3\n  dup4\n  add\n  swap3\n  0x01\n  sub\n  mul\n  jump(tag_8)\ntag_9:\n  dup1\n  iszero\n  tag_10\n  jumpi\n  dup3\n  dup2\n  0x0100\n  exp\n  dup2\n  sload\n  swap1\n  0xffff\n  mul\n  not\n  and\n  swap1\n  sstore\n  0x02\n  add\n  0x20\n  dup2\n  0x01\n  add\n  div\n  swap3\n  dup4\n  add\n  swap3\n  0x01\n  sub\n  mul\n  jump(tag_9)\ntag_10:\n  pop\ntag_7:\n  pop\n  swap1\n  pop\n  tag_11\n  swap2\n  swap1\n  tag_12\n  jump\t// in\ntag_11:\n  pop\n  swap1\n  jump\t// out\ntag_4:\n  dup3\n  dup1\n  sload\n  dup3\n  dup3\n  sstore\n  swap1\n  0x00\n  mstore\n  keccak256(0x00, 0x20)\n  swap1\n  dup2\n  add\n  swap3\n  dup3\n  iszero\n  tag_13\n  jumpi\n  swap2\n  0x20\n  mul\n  dup3\n  add\ntag_14:\n  dup3\n  dup2\n  gt\n  iszero\n  tag_15\n  jumpi\n  dup3\n  mload\n  dup3\n  swap1\n  dup2\n  tag_16\n  swap2\n  swap1\n  tag_17\n  jump\t// in\ntag_16:\n  pop\n  swap2\n  0x20\n  add\n  swap2\n  swap1\n  0x01\n  add\n  swap1\n  jump(tag_14)\ntag_15:\ntag_13:\n  pop\n  swap1\n  pop\n  tag_18\n  swap2\n  swap1\n  tag_19\n  jump\t// in\ntag_18:\n  pop\n  swap1\n  jump\t// out\ntag_12:\ntag_20:\n  dup1\n  dup3\n  gt\n  iszero\n  tag_21\n  jumpi\n  0x00\n  dup2\n  0x00\n  swap1\n  sstore\n  pop\n  0x01\n  add\n  jump(tag_20)\ntag_21:\n  pop\n  swap1\n  jump\t// out\ntag_19:\ntag_22:\n  dup1\n  dup3\n  gt\n  iszero\n  tag_23\n  jumpi\n  0x00\n  dup2\n  dup2\n  tag_24\n  swap2\n  swap1\n  tag_25\n  jump\t// in\ntag_24:\n  pop\n  0x01\n  add\n  jump(tag_22)\ntag_23:\n  pop\n  swap1\n  jump\t// out\ntag_25:\n  pop\n  dup1\n  sload\n  tag_26\n  swap1\n  tag_27\n  jump\t// in\ntag_26:\n  0x00\n  dup3\n  sstore\n  dup1\n  0x1f\n  lt\n  tag_29\n  jumpi\n  pop\n  jump(tag_28)\ntag_29:\n  0x1f\n  add\n  0x20\n  swap1\n  div\n  swap1\n  0x00\n  mstore\n  keccak256(0x00, 0x20)\n  swap1\n  dup2\n  add\n  swap1\n  tag_30\n  swap2\n  swap1\n  tag_12\n  jump\t// in\ntag_30:\ntag_28:\n  pop\n  jump\t// out\n    /* \"#utility.yul\":7:106   */\ntag_31:\n    /* \"#utility.yul\":59:65   */\n  0x00\n    /* \"#utility.yul\":93:98   */\n  dup2\n    /* \"#utility.yul\":87:99   */\n  mload\n    /* \"#utility.yul\":77:99   */\n  swap1\n  pop\n    /* \"#utility.yul\":7:106   */\n  swap2\n  swap1\n  pop\n  jump\t// out\n    /* \"#utility.yul\":112:292   */\ntag_32:\n    /* \"#utility.yul\":160:237   */\n  0x4e487b7100000000000000000000000000000000000000000000000000000000\n    /* \"#utility.yul\":157:158   */\n  0x00\n    /* \"#utility.yul\":150:238   */\n  mstore\n    /* \"#utility.yul\":257:261   */\n  0x41\n    /* \"#utility.yul\":254:255   */\n  0x04\n    /* \"#utility.yul\":247:262   */\n  mstore\n    /* \"#utility.yul\":281:285   */\n  0x24\n    /* \"#utility.yul\":278:279   */\n  0x00\n    /* \"#utility.yul\":271:286   */\n  revert\n    /* \"#utility.yul\":298:478   */\ntag_33:\n    /* \"#utility.yul\":346:423   */\n  0x4e487b7100000000000000000000000000000000000000000000000000000000\n    /* \"#utility.yul\":343:344   */\n  0x00\n    /* \"#utility.yul\":336:424   */\n  mstore\n    /* \"#utility.yul\":443:447   */\n  0x22\n    /* \"#utility.yul\":440:441   */\n  0x04\n    /* \"#utility.yul\":433:448   */\n  mstore\n    /* \"#utility.yul\":467:471   */\n  0x24\n    /* \"#utility.yul\":464:465   */\n  0x00\n    /* \"#utility.yul\":457:472   */\n  revert\n    /* \"#utility.yul\":484:804   */\ntag_27:\n    /* \"#utility.yul\":528:534   */\n  0x00\n    /* \"#utility.yul\":565:566   */\n  0x02\n    /* \"#utility.yul\":559:563   */\n  dup3\n    /* \"#utility.yul\":555:567   */\n  div\n    /* \"#utility.yul\":545:567   */\n  swap1\n  pop\n    /* \"#utility.yul\":612:613   */\n  0x01\n    /* \"#utility.yul\":606:610   */\n  dup3\n    /* \"#utility.yul\":602:614   */\n  and\n    /* \"#utility.yul\":633:651   */\n  dup1\n    /* \"#utility.yul\":623:704   */\n  tag_55\n  jumpi\n    /* \"#utility.yul\":689:693   */\n  0x7f\n    /* \"#utility.yul\":681:687   */\n  dup3\n    /* \"#utility.yul\":677:694   */\n  and\n    /* \"#utility.yul\":667:694   */\n  swap2\n  pop\n    /* \"#utility.yul\":623:704   */\ntag_55:\n    /* \"#utility.yul\":751:753   */\n  0x20\n    /* \"#utility.yul\":743:749   */\n  dup3\n    /* \"#utility.yul\":740:754   */\n  lt\n    /* \"#utility.yul\":720:738   */\n  dup2\n    /* \"#utility.yul\":717:755   */\n  sub\n    /* \"#utility.yul\":714:798   */\n  tag_56\n  jumpi\n    /* \"#utility.yul\":770:788   */\n  tag_57\n  tag_33\n  jump\t// in\ntag_57:\n    /* \"#utility.yul\":714:798   */\ntag_56:\n    /* \"#utility.yul\":535:804   */\n  pop\n    /* \"#utility.yul\":484:804   */\n  swap2\n  swap1\n  pop\n  jump\t// out\n    /* \"#utility.yul\":810:951   */\ntag_34:\n    /* \"#utility.yul\":859:863   */\n  0x00\n    /* \"#utility.yul\":882:885   */\n  dup2\n    /* \"#utility.yul\":874:885   */\n  swap1\n  pop\n    /* \"#utility.yul\":905:908   */\n  dup2\n    /* \"#utility.yul\":902:903   */\n  0x00\n    /* \"#utility.yul\":895:909   */\n  mstore\n    /* \"#utility.yul\":939:943   */\n  0x20\n    /* \"#utility.yul\":936:937   */\n  0x00\n    /* \"#utility.yul\":926:944   */\n  keccak256\n    /* \"#utility.yul\":918:944   */\n  swap1\n  pop\n    /* \"#utility.yul\":810:951   */\n  swap2\n  swap1\n  pop\n  jump\t// out\n    /* \"#utility.yul\":957:1050   */\ntag_35:\n    /* \"#utility.yul\":994:1000   */\n  0x00\n    /* \"#utility.yul\":1041:1043   */\n  0x20\n    /* \"#utility.yul\":1036:1038   */\n  0x1f\n    /* \"#utility.yul\":1029:1034   */\n  dup4\n    /* \"#utility.yul\":1025:1039   */\n  add\n    /* \"#utility.yul\":1021:1044   */\n  div\n    /* \"#utility.yul\":1011:1044   */\n  swap1\n  pop\n    /* \"#utility.yul\":957:1050   */\n  swap2\n  swap1\n  pop\n  jump\t// out\n    /* \"#utility.yul\":1056:1163   */\ntag_36:\n    /* \"#utility.yul\":1100:1108   */\n  0x00\n    /* \"#utility.yul\":1150:1155   */\n  dup3\n    /* \"#utility.yul\":1144:1148   */\n  dup3\n    /* \"#utility.yul\":1140:1156   */\n  shl\n    /* \"#utility.yul\":1119:1156   */\n  swap1\n  pop\n    /* \"#utility.yul\":1056:1163   */\n  swap3\n  swap2\n  pop\n  pop\n  jump\t// out\n    /* \"#utility.yul\":1169:1562   */\ntag_37:\n    /* \"#utility.yul\":1238:1244   */\n  0x00\n    /* \"#utility.yul\":1288:1289   */\n  0x08\n    /* \"#utility.yul\":1276:1286   */\n  dup4\n    /* \"#utility.yul\":1272:1290   */\n  mul\n    /* \"#utility.yul\":1311:1408   */\n  tag_62\n    /* \"#utility.yul\":1341:1407   */\n  0xffffffffffffffffffffffffffffffffffffffffffffffffffffffffffffffff\n    /* \"#utility.yul\":1330:1339   */\n  dup3\n    /* \"#utility.yul\":1311:1408   */\n  tag_36\n  jump\t// in\ntag_62:\n    /* \"#utility.yul\":1429:1468   */\n  tag_63\n    /* \"#utility.yul\":1459:1467   */\n  dup7\n    /* \"#utility.yul\":1448:1457   */\n  dup4\n    /* \"#utility.yul\":1429:1468   */\n  tag_36\n  jump\t// in\ntag_63:\n    /* \"#utility.yul\":1417:1468   */\n  swap6\n  pop\n    /* \"#utility.yul\":1501:1505   */\n  dup1\n    /* \"#utility.yul\":1497:1506   */\n  not\n    /* \"#utility.yul\":1490:1495   */\n  dup5\n    /* \"#utility.yul\":1486:1507   */\n  and\n    /* \"#utility.yul\":1477:1507   */\n  swap4\n  pop\n    /* \"#utility.yul\":1550:1554   */\n  dup1\n    /* \"#utility.yul\":1540:1548   */\n  dup7\n    /* \"#utility.yul\":1536:1555   */\n  and\n    /* \"#utility.yul\":1529:1534   */\n  dup5\n    /* \"#utility.yul\":1526:1556   */\n  or\n    /* \"#utility.yul\":1516:1556   */\n  swap3\n  pop\n    /* \"#utility.yul\":1245:1562   */\n  pop\n  pop\n    /* \"#utility.yul\":1169:1562   */\n  swap4\n  swap3\n  pop\n  pop\n  pop\n  jump\t// out\n    /* \"#utility.yul\":1568:1645   */\ntag_38:\n    /* \"#utility.yul\":1605:1612   */\n  0x00\n    /* \"#utility.yul\":1634:1639   */\n  dup2\n    /* \"#utility.yul\":1623:1639   */\n  swap1\n  pop\n    /* \"#utility.yul\":1568:1645   */\n  swap2\n  swap1\n  pop\n  jump\t// out\n    /* \"#utility.yul\":1651:1711   */\ntag_39:\n    /* \"#utility.yul\":1679:1682   */\n  0x00\n    /* \"#utility.yul\":1700:1705   */\n  dup2\n    /* \"#utility.yul\":1693:1705   */\n  swap1\n  pop\n    /* \"#utility.yul\":1651:1711   */\n  swap2\n  swap1\n  pop\n  jump\t// out\n    /* \"#utility.yul\":1717:1859   */\ntag_40:\n    /* \"#utility.yul\":1767:1776   */\n  0x00\n    /* \"#utility.yul\":1800:1853   */\n  tag_67\n    /* \"#utility.yul\":1818:1852   */\n  tag_68\n    /* \"#utility.yul\":1827:1851   */\n  tag_69\n    /* \"#utility.yul\":1845:1850   */\n  dup5\n    /* \"#utility.yul\":1827:1851   */\n  tag_38\n  jump\t// in\ntag_69:\n    /* \"#utility.yul\":1818:1852   */\n  tag_39\n  jump\t// in\ntag_68:\n    /* \"#utility.yul\":1800:1853   */\n  tag_38\n  jump\t// in\ntag_67:\n    /* \"#utility.yul\":1787:1853   */\n  swap1\n  pop\n    /* \"#utility.yul\":1717:1859   */\n  swap2\n  swap1\n  pop\n  jump\t// out\n    /* \"#utility.yul\":1865:1940   */\ntag_41:\n    /* \"#utility.yul\":1908:1911   */\n  0x00\n    /* \"#utility.yul\":1929:1934   */\n  dup2\n    /* \"#utility.yul\":1922:1934   */\n  swap1\n  pop\n    /* \"#utility.yul\":1865:1940   */\n  swap2\n  swap1\n  pop\n  jump\t// out\n    /* \"#utility.yul\":1946:2215   */\ntag_42:\n    /* \"#utility.yul\":2056:2095   */\n  tag_72\n    /* \"#utility.yul\":2087:2094   */\n  dup4\n    /* \"#utility.yul\":2056:2095   */\n  tag_40\n  jump\t// in\ntag_72:\n    /* \"#utility.yul\":2117:2208   */\n  tag_73\n    /* \"#utility.yul\":2166:2207   */\n  tag_74\n    /* \"#utility.yul\":2190:2206   */\n  dup3\n    /* \"#utility.yul\":2166:2207   */\n  tag_41\n  jump\t// in\ntag_74:\n    /* \"#utility.yul\":2158:2164   */\n  dup5\n    /* \"#utility.yul\":2151:2155   */\n  dup5\n    /* \"#utility.yul\":2145:2156   */\n  sload\n    /* \"#utility.yul\":2117:2208   */\n  tag_37\n  jump\t// in\ntag_73:\n    /* \"#utility.yul\":2111:2115   */\n  dup3\n    /* \"#utility.yul\":2104:2209   */\n  sstore\n    /* \"#utility.yul\":2022:2215   */\n  pop\n    /* \"#utility.yul\":1946:2215   */\n  pop\n  pop\n  pop\n  jump\t// out\n    /* \"#utility.yul\":2221:2294   */\ntag_43:\n    /* \"#utility.yul\":2266:2269   */\n  0x00\n    /* \"#utility.yul\":2287:2288   */\n  0x00\n    /* \"#utility.yul\":2280:2288   */\n  swap1\n  pop\n    /* \"#utility.yul\":2221:2294   */\n  swap1\n  jump\t// out\n    /* \"#utility.yul\":2300:2489   */\ntag_44:\n    /* \"#utility.yul\":2377:2409   */\n  tag_77\n  tag_43\n  jump\t// in\ntag_77:\n    /* \"#utility.yul\":2418:2483   */\n  tag_78\n    /* \"#utility.yul\":2476:2482   */\n  dup2\n    /* \"#utility.yul\":2468:2474   */\n  dup5\n    /* \"#utility.yul\":2462:2466   */\n  dup5\n    /* \"#utility.yul\":2418:2483   */\n  tag_42\n  jump\t// in\ntag_78:\n    /* \"#utility.yul\":2353:2489   */\n  pop\n    /* \"#utility.yul\":2300:2489   */\n  pop\n  pop\n  jump\t// out\n    /* \"#utility.yul\":2495:2681   */\ntag_45:\n    /* \"#utility.yul\":2555:2675   */\ntag_80:\n    /* \"#utility.yul\":2572:2575   */\n  dup2\n    /* \"#utility.yul\":2565:2570   */\n  dup2\n    /* \"#utility.yul\":2562:2576   */\n  lt\n    /* \"#utility.yul\":2555:2675   */\n  iszero\n  tag_82\n  jumpi\n    /* \"#utility.yul\":2626:2665   */\n  tag_83\n    /* \"#utility.yul\":2663:2664   */\n  0x00\n    /* \"#utility.yul\":2656:2661   */\n  dup3\n    /* \"#utility.yul\":2626:2665   */\n  tag_44\n  jump\t// in\ntag_83:\n    /* \"#utility.yul\":2599:2600   */\n  0x01\n    /* \"#utility.yul\":2592:2597   */\n  dup2\n    /* \"#utility.yul\":2588:2601   */\n  add\n    /* \"#utility.yul\":2579:2601   */\n  swap1\n  pop\n    /* \"#utility.yul\":2555:2675   */\n  jump(tag_80)\ntag_82:\n    /* \"#utility.yul\":2495:2681   */\n  pop\n  pop\n  jump\t// out\n    /* \"#utility.yul\":2687:3230   */\ntag_46:\n    /* \"#utility.yul\":2788:2790   */\n  0x1f\n    /* \"#utility.yul\":2783:2786   */\n  dup3\n    /* \"#utility.yul\":2780:2791   */\n  gt\n    /* \"#utility.yul\":2777:3223   */\n  iszero\n  tag_85\n  jumpi\n    /* \"#utility.yul\":2822:2860   */\n  tag_86\n    /* \"#utility.yul\":2854:2859   */\n  dup2\n    /* \"#utility.yul\":2822:2860   */\n  tag_34\n  jump\t// in\ntag_86:\n    /* \"#utility.yul\":2906:2935   */\n  tag_87\n    /* \"#utility.yul\":2924:2934   */\n  dup5\n    /* \"#utility.yul\":2906:2935   */\n  tag_35\n  jump\t// in\ntag_87:\n    /* \"#utility.yul\":2896:2904   */\n  dup2\n    /* \"#utility.yul\":2892:2936   */\n  add\n    /* \"#utility.yul\":3089:3091   */\n  0x20\n    /* \"#utility.yul\":3077:3087   */\n  dup6\n    /* \"#utility.yul\":3074:3092   */\n  lt\n    /* \"#utility.yul\":3071:3120   */\n  iszero\n  tag_88\n  jumpi\n    /* \"#utility.yul\":3110:3118   */\n  dup2\n    /* \"#utility.yul\":3095:3118   */\n  swap1\n  pop\n    /* \"#utility.yul\":3071:3120   */\ntag_88:\n    /* \"#utility.yul\":3133:3213   */\n  tag_89\n    /* \"#utility.yul\":3189:3211   */\n  tag_90\n    /* \"#utility.yul\":3207:3210   */\n  dup6\n    /* \"#utility.yul\":3189:3211   */\n  tag_35\n  jump\t// in\ntag_90:\n    /* \"#utility.yul\":3179:3187   */\n  dup4\n    /* \"#utility.yul\":3175:3212   */\n  add\n    /* \"#utility.yul\":3162:3173   */\n  dup3\n    /* \"#utility.yul\":3133:3213   */\n  tag_45\n  jump\t// in\ntag_89:\n    /* \"#utility.yul\":2792:3223   */\n  pop\n  pop\n    /* \"#utility.yul\":2777:3223   */\ntag_85:\n    /* \"#utility.yul\":2687:3230   */\n  pop\n  pop\n  pop\n  jump\t// out\n    /* \"#utility.yul\":3236:3353   */\ntag_47:\n    /* \"#utility.yul\":3290:3298   */\n  0x00\n    /* \"#utility.yul\":3340:3345   */\n  dup3\n    /* \"#utility.yul\":3334:3338   */\n  dup3\n    /* \"#utility.yul\":3330:3346   */\n  shr\n    /* \"#utility.yul\":3309:3346   */\n  swap1\n  pop\n    /* \"#utility.yul\":3236:3353   */\n  swap3\n  swap2\n  pop\n  pop\n  jump\t// out\n    /* \"#utility.yul\":3359:3528   */\ntag_48:\n    /* \"#utility.yul\":3403:3409   */\n  0x00\n    /* \"#utility.yul\":3436:3487   */\n  tag_93\n    /* \"#utility.yul\":3484:3485   */\n  0x00\n    /* \"#utility.yul\":3480:3486   */\n  not\n    /* \"#utility.yul\":3472:3477   */\n  dup5\n    /* \"#utility.yul\":3469:3470   */\n  0x08\n    /* \"#utility.yul\":3465:3478   */\n  mul\n    /* \"#utility.yul\":3436:3487   */\n  tag_47\n  jump\t// in\ntag_93:\n    /* \"#utility.yul\":3432:3488   */\n  not\n    /* \"#utility.yul\":3517:3521   */\n  dup1\n    /* \"#utility.yul\":3511:3515   */\n  dup4\n    /* \"#utility.yul\":3507:3522   */\n  and\n    /* \"#utility.yul\":3497:3522   */\n  swap2\n  pop\n    /* \"#utility.yul\":3410:3528   */\n  pop\n    /* \"#utility.yul\":3359:3528   */\n  swap3\n  swap2\n  pop\n  pop\n  jump\t// out\n    /* \"#utility.yul\":3533:3828   */\ntag_49:\n    /* \"#utility.yul\":3609:3613   */\n  0x00\n    /* \"#utility.yul\":3755:3784   */\n  tag_95\n    /* \"#utility.yul\":3780:3783   */\n  dup4\n    /* \"#utility.yul\":3774:3778   */\n  dup4\n    /* \"#utility.yul\":3755:3784   */\n  tag_48\n  jump\t// in\ntag_95:\n    /* \"#utility.yul\":3747:3784   */\n  swap2\n  pop\n    /* \"#utility.yul\":3817:3820   */\n  dup3\n    /* \"#utility.yul\":3814:3815   */\n  0x02\n    /* \"#utility.yul\":3810:3821   */\n  mul\n    /* \"#utility.yul\":3804:3808   */\n  dup3\n    /* \"#utility.yul\":3801:3822   */\n  or\n    /* \"#utility.yul\":3793:3822   */\n  swap1\n  pop\n    /* \"#utility.yul\":3533:3828   */\n  swap3\n  swap2\n  pop\n  pop\n  jump\t// out\n    /* \"#utility.yul\":3833:5228   */\ntag_17:\n    /* \"#utility.yul\":3950:3987   */\n  tag_97\n    /* \"#utility.yul\":3983:3986   */\n  dup3\n    /* \"#utility.yul\":3950:3987   */\n  tag_31\n  jump\t// in\ntag_97:\n    /* \"#utility.yul\":4052:4070   */\n  0xffffffffffffffff\n    /* \"#utility.yul\":4044:4050   */\n  dup2\n    /* \"#utility.yul\":4041:4071   */\n  gt\n    /* \"#utility.yul\":4038:4094   */\n  iszero\n  tag_98\n  jumpi\n    /* \"#utility.yul\":4074:4092   */\n  tag_99\n  tag_32\n  jump\t// in\ntag_99:\n    /* \"#utility.yul\":4038:4094   */\ntag_98:\n    /* \"#utility.yul\":4118:4156   */\n  tag_100\n    /* \"#utility.yul\":4150:4154   */\n  dup3\n    /* \"#utility.yul\":4144:4155   */\n  sload\n    /* \"#utility.yul\":4118:4156   */\n  tag_27\n  jump\t// in\ntag_100:\n    /* \"#utility.yul\":4203:4270   */\n  tag_101\n    /* \"#utility.yul\":4263:4269   */\n  dup3\n    /* \"#utility.yul\":4255:4261   */\n  dup3\n    /* \"#utility.yul\":4249:4253   */\n  dup6\n    /* \"#utility.yul\":4203:4270   */\n  tag_46\n  jump\t// in\ntag_101:\n    /* \"#utility.yul\":4297:4298   */\n  0x00\n    /* \"#utility.yul\":4321:4325   */\n  0x20\n    /* \"#utility.yul\":4308:4325   */\n  swap1\n  pop\n    /* \"#utility.yul\":4353:4355   */\n  0x1f\n    /* \"#utility.yul\":4345:4351   */\n  dup4\n    /* \"#utility.yul\":4342:4356   */\n  gt\n    /* \"#utility.yul\":4370:4371   */\n  0x01\n    /* \"#utility.yul\":4365:4983   */\n  dup2\n  eq\n  tag_103\n  jumpi\n    /* \"#utility.yul\":5027:5028   */\n  0x00\n    /* \"#utility.yul\":5044:5050   */\n  dup5\n    /* \"#utility.yul\":5041:5118   */\n  iszero\n  tag_104\n  jumpi\n    /* \"#utility.yul\":5093:5102   */\n  dup3\n    /* \"#utility.yul\":5088:5091   */\n  dup8\n    /* \"#utility.yul\":5084:5103   */\n  add\n    /* \"#utility.yul\":5078:5104   */\n  mload\n    /* \"#utility.yul\":5069:5104   */\n  swap1\n  pop\n    /* \"#utility.yul\":5041:5118   */\ntag_104:\n    /* \"#utility.yul\":5144:5211   */\n  tag_105\n    /* \"#utility.yul\":5204:5210   */\n  dup6\n    /* \"#utility.yul\":5197:5202   */\n  dup3\n    /* \"#utility.yul\":5144:5211   */\n  tag_49\n  jump\t// in\ntag_105:\n    /* \"#utility.yul\":5138:5142   */\n  dup7\n    /* \"#utility.yul\":5131:5212   */\n  sstore\n    /* \"#utility.yul\":5000:5222   */\n  pop\n    /* \"#utility.yul\":4335:5222   */\n  jump(tag_102)\n    /* \"#utility.yul\":4365:4983   */\ntag_103:\n    /* \"#utility.yul\":4417:4421   */\n  0x1f\n    /* \"#utility.yul\":4413:4422   */\n  not\n    /* \"#utility.yul\":4405:4411   */\n  dup5\n    /* \"#utility.yul\":4401:4423   */\n  and\n    /* \"#utility.yul\":4451:4488   */\n  tag_106\n    /* \"#utility.yul\":4483:4487   */\n  dup7\n    /* \"#utility.yul\":4451:4488   */\n  tag_34\n  jump\t// in\ntag_106:\n    /* \"#utility.yul\":4510:4511   */\n  0x00\n    /* \"#utility.yul\":4524:4732   */\ntag_107:\n    /* \"#utility.yul\":4538:4545   */\n  dup3\n    /* \"#utility.yul\":4535:4536   */\n  dup2\n    /* \"#utility.yul\":4532:4546   */\n  lt\n    /* \"#utility.yul\":4524:4732   */\n  iszero\n  tag_109\n  jumpi\n    /* \"#utility.yul\":4617:4626   */\n  dup5\n    /* \"#utility.yul\":4612:4615   */\n  dup10\n    /* \"#utility.yul\":4608:4627   */\n  add\n    /* \"#utility.yul\":4602:4628   */\n  mload\n    /* \"#utility.yul\":4594:4600   */\n  dup3\n    /* \"#utility.yul\":4587:4629   */\n  sstore\n    /* \"#utility.yul\":4668:4669   */\n  0x01\n    /* \"#utility.yul\":4660:4666   */\n  dup3\n    /* \"#utility.yul\":4656:4670   */\n  add\n    /* \"#utility.yul\":4646:4670   */\n  swap2\n  pop\n    /* \"#utility.yul\":4715:4717   */\n  0x20\n    /* \"#utility.yul\":4704:4713   */\n  dup6\n    /* \"#utility.yul\":4700:4718   */\n  add\n    /* \"#utility.yul\":4687:4718   */\n  swap5\n  pop\n    /* \"#utility.yul\":4561:4565   */\n  0x20\n    /* \"#utility.yul\":4558:4559   */\n  dup2\n    /* \"#utility.yul\":4554:4566   */\n  add\n    /* \"#utility.yul\":4549:4566   */\n  swap1\n  pop\n    /* \"#utility.yul\":4524:4732   */\n  jump(tag_107)\ntag_109:\n    /* \"#utility.yul\":4760:4766   */\n  dup7\n    /* \"#utility.yul\":4751:4758   */\n  dup4\n    /* \"#utility.yul\":4748:4767   */\n  lt\n    /* \"#utility.yul\":4745:4924   */\n  iszero\n  tag_110\n  jumpi\n    /* \"#utility.yul\":4818:4827   */\n  dup5\n    /* \"#utility.yul\":4813:4816   */\n  dup10\n    /* \"#utility.yul\":4809:4828   */\n  add\n    /* \"#utility.yul\":4803:4829   */\n  mload\n    /* \"#utility.yul\":4861:4909   */\n  tag_111\n    /* \"#utility.yul\":4903:4907   */\n  0x1f\n    /* \"#utility.yul\":4895:4901   */\n  dup10\n    /* \"#utility.yul\":4891:4908   */\n  and\n    /* \"#utility.yul\":4880:4889   */\n  dup3\n    /* \"#utility.yul\":4861:4909   */\n  tag_48\n  jump\t// in\ntag_111:\n    /* \"#utility.yul\":4853:4859   */\n  dup4\n    /* \"#utility.yul\":4846:4910   */\n  sstore\n    /* \"#utility.yul\":4768:4924   */\n  pop\n    /* \"#utility.yul\":4745:4924   */\ntag_110:\n    /* \"#utility.yul\":4970:4971   */\n  0x01\n    /* \"#utility.yul\":4966:4967   */\n  0x02\n    /* \"#utility.yul\":4958:4964   */\n  dup9\n    /* \"#utility.yul\":4954:4968   */\n  mul\n    /* \"#utility.yul\":4950:4972   */\n  add\n    /* \"#utility.yul\":4944:4948   */\n  dup9\n    /* \"#utility.yul\":4937:4973   */\n  sstore\n    /* \"#utility.yul\":4372:4983   */\n  pop\n  pop\n  pop\n    /* \"#utility.yul\":4335:5222   */\ntag_102:\n  pop\n    /* \"#utility.yul\":3925:5228   */\n  pop\n  pop\n  pop\n    /* \"#utility.yul\":3833:5228   */\n  pop\n  pop\n  jump\t// out\n    /* \"contracts/roman_converter.sol\":58:2161  contract RomanConverter {... */\ntag_6:\n  dataSize(sub_0)\n  dup1\n  dataOffset(sub_0)\n  0x00\n  codecopy\n  0x00\n  return\nstop\n\nsub_0: assembly {\n        /* \"contracts/roman_converter.sol\":58:2161  contract RomanConverter {... */\n      mstore(0x40, 0x80)\n      callvalue\n      dup1\n      iszero\n      tag_1\n      jumpi\n      revert(0x00, 0x00)\n    tag_1:\n      pop\n      jumpi(tag_2, lt(calldatasize, 0x04))\n      shr(0xe0, calldataload(0x00))\n      dup1\n      0x1e17ecea\n      eq\n      tag_3\n      jumpi\n      dup1\n      0xcb159dfe\n      eq\n      tag_4\n      jumpi\n    tag_2:\n      revert(0x00, 0x00)\n        /* \"contracts/roman_converter.sol\":382:855  function intToRoman(uint16 num) public view returns (string memory) {... */\n    tag_3:\n      tag_5\n      0x04\n      dup1\n      calldatasize\n      sub\n      dup2\n      add\n      swap1\n      tag_6\n      swap2\n      swap1\n      tag_7\n      jump\t// in\n    tag_6:\n      tag_8\n      jump\t// in\n    tag_5:\n      mload(0x40)\n      tag_9\n      swap2\n      swap1\n      tag_10\n      jump\t// in\n    tag_9:\n      mload(0x40)\n      dup1\n      swap2\n      sub\n      swap1\n      return\n        /* \"contracts/roman_converter.sol\":863:1730  function romanToInt(string calldata roman) public pure returns (uint16) {... */\n    tag_4:\n      tag_11\n      0x04\n      dup1\n      calldatasize\n      sub\n      dup2\n      add\n      swap1\n      tag_12\n      swap2\n      swap1\n      tag_13\n      jump\t// in\n    tag_12:\n      tag_14\n      jump\t// in\n    tag_11:\n      mload(0x40)\n      tag_15\n      swap2\n      swap1\n      tag_16\n      jump\t// in\n    tag_15:\n      mload(0x40)\n      dup1\n      swap2\n      sub\n      swap1\n      return\n        /* \"contracts/roman_converter.sol\":382:855  function intToRoman(uint16 num) public view returns (string memory) {... */\n    tag_8:\n        /* \"contracts/roman_converter.sol\":435:448  string memory */\n      0x60\n        /* \"contracts/roman_converter.sol\":475:476  0 */\n      0x00\n        /* \"contracts/roman_converter.sol\":469:472  num */\n      dup3\n        /* \"contracts/roman_converter.sol\":469:476  num > 0 */\n      0xffff\n      and\n      gt\n        /* \"contracts/roman_converter.sol\":469:490  num > 0 && num < 4000 */\n      dup1\n      iszero\n      tag_18\n      jumpi\n      pop\n        /* \"contracts/roman_converter.sol\":486:490  4000 */\n      0x0fa0\n        /* \"contracts/roman_converter.sol\":480:483  num */\n      dup3\n        /* \"contracts/roman_converter.sol\":480:490  num < 4000 */\n      0xffff\n      and\n      lt\n        /* \"contracts/roman_converter.sol\":469:490  num > 0 && num < 4000 */\n    tag_18:\n        /* \"contracts/roman_converter.sol\":461:529  require(num > 0 && num < 4000, \"Number must be between 1 and 39990\") */\n      tag_19\n      jumpi\n      mload(0x40)\n      0x08c379a000000000000000000000000000000000000000000000000000000000\n      dup2\n      mstore\n      0x04\n      add\n      tag_20\n      swap1\n      tag_21\n      jump\t// in\n    tag_20:\n      mload(0x40)\n      dup1\n      swap2\n      sub\n      swap1\n      revert\n    tag_19:\n        /* \"contracts/roman_converter.sol\":542:562  string memory result */\n      0x00\n        /* \"contracts/roman_converter.sol\":542:567  string memory result = \"\" */\n      mload(0x40)\n      dup1\n      0x20\n      add\n      0x40\n      mstore\n      dup1\n      0x00\n      dup2\n      mstore\n      pop\n      swap1\n      pop\n        /* \"contracts/roman_converter.sol\":578:586  uint16 i */\n      0x00\n        /* \"contracts/roman_converter.sol\":589:590  0 */\n      0x00\n        /* \"contracts/roman_converter.sol\":578:590  uint16 i = 0 */\n      swap1\n      pop\n        /* \"contracts/roman_converter.sol\":601:824  while (num > 0) {... */\n    tag_22:\n        /* \"contracts/roman_converter.sol\":614:615  0 */\n      0x00\n        /* \"contracts/roman_converter.sol\":608:611  num */\n      dup5\n        /* \"contracts/roman_converter.sol\":608:615  num > 0 */\n      0xffff\n      and\n      gt\n        /* \"contracts/roman_converter.sol\":601:824  while (num > 0) {... */\n      iszero\n      tag_23\n      jumpi\n        /* \"contracts/roman_converter.sol\":650:653  num */\n      dup4\n        /* \"contracts/roman_converter.sol\":636:653  _values[i] <= num */\n      0xffff\n      and\n        /* \"contracts/roman_converter.sol\":636:643  _values */\n      0x00\n        /* \"contracts/roman_converter.sol\":644:645  i */\n      dup3\n        /* \"contracts/roman_converter.sol\":636:646  _values[i] */\n      0xffff\n      and\n      dup2\n      sload\n      dup2\n      lt\n      tag_24\n      jumpi\n      tag_25\n      tag_26\n      jump\t// in\n    tag_25:\n    tag_24:\n      swap1\n      0x00\n      mstore\n      keccak256(0x00, 0x20)\n      swap1\n      0x10\n      swap2\n      dup3\n      dup3\n      div\n      add\n      swap2\n      swap1\n      mod\n      0x02\n      mul\n      swap1\n      sload\n      swap1\n      0x0100\n      exp\n      swap1\n      div\n      0xffff\n      and\n        /* \"contracts/roman_converter.sol\":636:653  _values[i] <= num */\n      0xffff\n      and\n      gt\n        /* \"contracts/roman_converter.sol\":632:813  if (_values[i] <= num) {... */\n      tag_28\n      jumpi\n        /* \"contracts/roman_converter.sol\":697:703  result */\n      dup2\n        /* \"contracts/roman_converter.sol\":705:713  _symbols */\n      0x01\n        /* \"contracts/roman_converter.sol\":714:715  i */\n      dup3\n        /* \"contracts/roman_converter.sol\":705:716  _symbols[i] */\n      0xffff\n      and\n      dup2\n      sload\n      dup2\n      lt\n      tag_29\n      jumpi\n      tag_30\n      tag_26\n      jump\t// in\n    tag_30:\n    tag_29:\n      swap1\n      0x00\n      mstore\n      keccak256(0x00, 0x20)\n      add\n        /* \"contracts/roman_converter.sol\":683:717  string.concat(result, _symbols[i]) */\n      add(0x20, mload(0x40))\n      tag_32\n      swap3\n      swap2\n      swap1\n      tag_33\n      jump\t// in\n    tag_32:\n      mload(0x40)\n      0x20\n      dup2\n      dup4\n      sub\n      sub\n      dup2\n      mstore\n      swap1\n      0x40\n      mstore\n        /* \"contracts/roman_converter.sol\":674:717  result = string.concat(result, _symbols[i]) */\n      swap2\n      pop\n        /* \"contracts/roman_converter.sol\":743:750  _values */\n      0x00\n        /* \"contracts/roman_converter.sol\":751:752  i */\n      dup2\n        /* \"contracts/roman_converter.sol\":743:753  _values[i] */\n      0xffff\n      and\n      dup2\n      sload\n      dup2\n      lt\n      tag_34\n      jumpi\n      tag_35\n      tag_26\n      jump\t// in\n    tag_35:\n    tag_34:\n      swap1\n      0x00\n      mstore\n      keccak256(0x00, 0x20)\n      swap1\n      0x10\n      swap2\n      dup3\n      dup3\n      div\n      add\n      swap2\n      swap1\n      mod\n      0x02\n      mul\n      swap1\n      sload\n      swap1\n      0x0100\n      exp\n      swap1\n      div\n      0xffff\n      and\n        /* \"contracts/roman_converter.sol\":736:753  num -= _values[i] */\n      dup5\n      tag_37\n      swap2\n      swap1\n      tag_38\n      jump\t// in\n    tag_37:\n      swap4\n      pop\n        /* \"contracts/roman_converter.sol\":632:813  if (_values[i] <= num) {... */\n      jump(tag_39)\n    tag_28:\n        /* \"contracts/roman_converter.sol\":794:797  i++ */\n      dup1\n      dup1\n      tag_40\n      swap1\n      tag_41\n      jump\t// in\n    tag_40:\n      swap2\n      pop\n      pop\n        /* \"contracts/roman_converter.sol\":632:813  if (_values[i] <= num) {... */\n    tag_39:\n        /* \"contracts/roman_converter.sol\":601:824  while (num > 0) {... */\n      jump(tag_22)\n    tag_23:\n        /* \"contracts/roman_converter.sol\":841:847  result */\n      dup2\n        /* \"contracts/roman_converter.sol\":834:847  return result */\n      swap3\n      pop\n      pop\n      pop\n        /* \"contracts/roman_converter.sol\":382:855  function intToRoman(uint16 num) public view returns (string memory) {... */\n      swap2\n      swap1\n      pop\n      jump\t// out\n        /* \"contracts/roman_converter.sol\":863:1730  function romanToInt(string calldata roman) public pure returns (uint16) {... */\n    tag_14:\n        /* \"contracts/roman_converter.sol\":927:933  uint16 */\n      0x00\n        /* \"contracts/roman_converter.sol\":946:969  bytes memory romanBytes */\n      0x00\n        /* \"contracts/roman_converter.sol\":978:983  roman */\n      dup4\n      dup4\n        /* \"contracts/roman_converter.sol\":946:984  bytes memory romanBytes = bytes(roman) */\n      dup1\n      dup1\n      0x1f\n      add\n      0x20\n      dup1\n      swap2\n      div\n      mul\n      0x20\n      add\n      mload(0x40)\n      swap1\n      dup2\n      add\n      0x40\n      mstore\n      dup1\n      swap4\n      swap3\n      swap2\n      swap1\n      dup2\n      dup2\n      mstore\n      0x20\n      add\n      dup4\n      dup4\n      dup1\n      dup3\n      dup5\n      calldatacopy\n      0x00\n      dup2\n      dup5\n      add\n      mstore\n      not(0x1f)\n      0x1f\n      dup3\n      add\n      and\n      swap1\n      pop\n      dup1\n      dup4\n      add\n      swap3\n      pop\n      pop\n      pop\n      pop\n      pop\n      pop\n      pop\n      swap1\n      pop\n        /* \"contracts/roman_converter.sol\":1023:1024  0 */\n      0x00\n        /* \"contracts/roman_converter.sol\":1003:1013  romanBytes */\n      dup2\n        /* \"contracts/roman_converter.sol\":1003:1020  romanBytes.length */\n      mload\n        /* \"contracts/roman_converter.sol\":1003:1024  romanBytes.length > 0 */\n      gt\n        /* \"contracts/roman_converter.sol\":995:1058  require(romanBytes.length > 0, \"Roman numeral cannot be empty\") */\n      tag_43\n      jumpi\n      mload(0x40)\n      0x08c379a000000000000000000000000000000000000000000000000000000000\n      dup2\n      mstore\n      0x04\n      add\n      tag_44\n      swap1\n      tag_45\n      jump\t// in\n    tag_44:\n      mload(0x40)\n      dup1\n      swap2\n      sub\n      swap1\n      revert\n    tag_43:\n        /* \"contracts/roman_converter.sol\":1071:1084  uint16 result */\n      0x00\n        /* \"contracts/roman_converter.sol\":1087:1088  0 */\n      0x00\n        /* \"contracts/roman_converter.sol\":1071:1088  uint16 result = 0 */\n      swap1\n      pop\n        /* \"contracts/roman_converter.sol\":1099:1113  uint256 length */\n      0x00\n        /* \"contracts/roman_converter.sol\":1116:1126  romanBytes */\n      dup3\n        /* \"contracts/roman_converter.sol\":1116:1133  romanBytes.length */\n      mload\n        /* \"contracts/roman_converter.sol\":1099:1133  uint256 length = romanBytes.length */\n      swap1\n      pop\n        /* \"contracts/roman_converter.sol\":1151:1160  uint256 i */\n      0x00\n        /* \"contracts/roman_converter.sol\":1163:1164  0 */\n      0x00\n        /* \"contracts/roman_converter.sol\":1151:1164  uint256 i = 0 */\n      swap1\n      pop\n        /* \"contracts/roman_converter.sol\":1146:1627  for (uint256 i = 0; i < length; i++) {... */\n    tag_46:\n        /* \"contracts/roman_converter.sol\":1170:1176  length */\n      dup2\n        /* \"contracts/roman_converter.sol\":1166:1167  i */\n      dup2\n        /* \"contracts/roman_converter.sol\":1166:1176  i < length */\n      lt\n        /* \"contracts/roman_converter.sol\":1146:1627  for (uint256 i = 0; i < length; i++) {... */\n      iszero\n      tag_47\n      jumpi\n        /* \"contracts/roman_converter.sol\":1198:1217  uint16 currentValue */\n      0x00\n        /* \"contracts/roman_converter.sol\":1220:1247  _charToValue(romanBytes[i]) */\n      tag_49\n        /* \"contracts/roman_converter.sol\":1233:1243  romanBytes */\n      dup6\n        /* \"contracts/roman_converter.sol\":1244:1245  i */\n      dup4\n        /* \"contracts/roman_converter.sol\":1233:1246  romanBytes[i] */\n      dup2\n      mload\n      dup2\n      lt\n      tag_50\n      jumpi\n      tag_51\n      tag_26\n      jump\t// in\n    tag_51:\n    tag_50:\n      0x20\n      add\n      add\n      mload\n      0xf8\n      shr\n      0xf8\n      shl\n        /* \"contracts/roman_converter.sol\":1220:1232  _charToValue */\n      tag_52\n        /* \"contracts/roman_converter.sol\":1220:1247  _charToValue(romanBytes[i]) */\n      jump\t// in\n    tag_49:\n        /* \"contracts/roman_converter.sol\":1198:1247  uint16 currentValue = _charToValue(romanBytes[i]) */\n      swap1\n      pop\n        /* \"contracts/roman_converter.sol\":1281:1282  1 */\n      0x01\n        /* \"contracts/roman_converter.sol\":1272:1278  length */\n      dup4\n        /* \"contracts/roman_converter.sol\":1272:1282  length - 1 */\n      tag_53\n      swap2\n      swap1\n      tag_54\n      jump\t// in\n    tag_53:\n        /* \"contracts/roman_converter.sol\":1268:1269  i */\n      dup3\n        /* \"contracts/roman_converter.sol\":1268:1282  i < length - 1 */\n      lt\n        /* \"contracts/roman_converter.sol\":1264:1616  if (i < length - 1) {... */\n      iszero\n      tag_55\n      jumpi\n        /* \"contracts/roman_converter.sol\":1303:1319  uint16 nextValue */\n      0x00\n        /* \"contracts/roman_converter.sol\":1322:1353  _charToValue(romanBytes[i + 1]) */\n      tag_56\n        /* \"contracts/roman_converter.sol\":1335:1345  romanBytes */\n      dup7\n        /* \"contracts/roman_converter.sol\":1350:1351  1 */\n      0x01\n        /* \"contracts/roman_converter.sol\":1346:1347  i */\n      dup6\n        /* \"contracts/roman_converter.sol\":1346:1351  i + 1 */\n      tag_57\n      swap2\n      swap1\n      tag_58\n      jump\t// in\n    tag_57:\n        /* \"contracts/roman_converter.sol\":1335:1352  romanBytes[i + 1] */\n      dup2\n      mload\n      dup2\n      lt\n      tag_59\n      jumpi\n      tag_60\n      tag_26\n      jump\t// in\n    tag_60:\n    tag_59:\n      0x20\n      add\n      add\n      mload\n      0xf8\n      shr\n      0xf8\n      shl\n        /* \"contracts/roman_converter.sol\":1322:1334  _charToValue */\n      tag_52\n        /* \"contracts/roman_converter.sol\":1322:1353  _charToValue(romanBytes[i + 1]) */\n      jump\t// in\n    tag_56:\n        /* \"contracts/roman_converter.sol\":1303:1353  uint16 nextValue = _charToValue(romanBytes[i + 1]) */\n      swap1\n      pop\n        /* \"contracts/roman_converter.sol\":1391:1400  nextValue */\n      dup1\n        /* \"contracts/roman_converter.sol\":1376:1400  currentValue < nextValue */\n      0xffff\n      and\n        /* \"contracts/roman_converter.sol\":1376:1388  currentValue */\n      dup3\n        /* \"contracts/roman_converter.sol\":1376:1400  currentValue < nextValue */\n      0xffff\n      and\n      lt\n        /* \"contracts/roman_converter.sol\":1372:1538  if (currentValue < nextValue) {... */\n      iszero\n      tag_61\n      jumpi\n        /* \"contracts/roman_converter.sol\":1435:1447  currentValue */\n      dup2\n        /* \"contracts/roman_converter.sol\":1425:1447  result -= currentValue */\n      dup6\n      tag_62\n      swap2\n      swap1\n      tag_38\n      jump\t// in\n    tag_62:\n      swap5\n      pop\n        /* \"contracts/roman_converter.sol\":1372:1538  if (currentValue < nextValue) {... */\n      jump(tag_63)\n    tag_61:\n        /* \"contracts/roman_converter.sol\":1506:1518  currentValue */\n      dup2\n        /* \"contracts/roman_converter.sol\":1496:1518  result += currentValue */\n      dup6\n      tag_64\n      swap2\n      swap1\n      tag_65\n      jump\t// in\n    tag_64:\n      swap5\n      pop\n        /* \"contracts/roman_converter.sol\":1372:1538  if (currentValue < nextValue) {... */\n    tag_63:\n        /* \"contracts/roman_converter.sol\":1284:1553  {... */\n      pop\n        /* \"contracts/roman_converter.sol\":1264:1616  if (i < length - 1) {... */\n      jump(tag_66)\n    tag_55:\n        /* \"contracts/roman_converter.sol\":1588:1600  currentValue */\n      dup1\n        /* \"contracts/roman_converter.sol\":1578:1600  result += currentValue */\n      dup5\n      tag_67\n      swap2\n      swap1\n      tag_65\n      jump\t// in\n    tag_67:\n      swap4\n      pop\n        /* \"contracts/roman_converter.sol\":1264:1616  if (i < length - 1) {... */\n    tag_66:\n        /* \"contracts/roman_converter.sol\":1183:1627  {... */\n      pop\n        /* \"contracts/roman_converter.sol\":1178:1181  i++ */\n      dup1\n      dup1\n      0x01\n      add\n      swap2\n      pop\n      pop\n        /* \"contracts/roman_converter.sol\":1146:1627  for (uint256 i = 0; i < length; i++) {... */\n      jump(tag_46)\n    tag_47:\n      pop\n        /* \"contracts/roman_converter.sol\":1654:1655  0 */\n      0x00\n        /* \"contracts/roman_converter.sol\":1645:1651  result */\n      dup3\n        /* \"contracts/roman_converter.sol\":1645:1655  result > 0 */\n      0xffff\n      and\n      gt\n        /* \"contracts/roman_converter.sol\":1645:1672  result > 0 && result < 4000 */\n      dup1\n      iszero\n      tag_68\n      jumpi\n      pop\n        /* \"contracts/roman_converter.sol\":1668:1672  4000 */\n      0x0fa0\n        /* \"contracts/roman_converter.sol\":1659:1665  result */\n      dup3\n        /* \"contracts/roman_converter.sol\":1659:1672  result < 4000 */\n      0xffff\n      and\n      lt\n        /* \"contracts/roman_converter.sol\":1645:1672  result > 0 && result < 4000 */\n    tag_68:\n        /* \"contracts/roman_converter.sol\":1637:1698  require(result > 0 && result < 4000, \"Invalid Roman numeral\") */\n      tag_69\n      jumpi\n      mload(0x40)\n      0x08c379a000000000000000000000000000000000000000000000000000000000\n      dup2\n      mstore\n      0x04\n      add\n      tag_70\n      swap1\n      tag_71\n      jump\t// in\n    tag_70:\n      mload(0x40)\n      dup1\n      swap2\n      sub\n      swap1\n      revert\n    tag_69:\n        /* \"contracts/roman_converter.sol\":1716:1722  result */\n      dup2\n        /* \"contracts/roman_converter.sol\":1709:1722  return result */\n      swap4\n      pop\n      pop\n      pop\n      pop\n        /* \"contracts/roman_converter.sol\":863:1730  function romanToInt(string calldata roman) public pure returns (uint16) {... */\n      swap3\n      swap2\n      pop\n      pop\n      jump\t// out\n        /* \"contracts/roman_converter.sol\":1738:2158  function _charToValue(bytes1 char) private pure returns (uint16) {... */\n    tag_52:\n        /* \"contracts/roman_converter.sol\":1795:1801  uint16 */\n      0x00\n        /* \"contracts/roman_converter.sol\":1818:1829  char == 'I' */\n      0x4900000000000000000000000000000000000000000000000000000000000000\n        /* \"contracts/roman_converter.sol\":1818:1822  char */\n      dup3\n        /* \"contracts/roman_converter.sol\":1818:1829  char == 'I' */\n      not(0xffffffffffffffffffffffffffffffffffffffffffffffffffffffffffffff)\n      and\n      sub\n        /* \"contracts/roman_converter.sol\":1814:1839  if (char == 'I') return 1 */\n      tag_73\n      jumpi\n        /* \"contracts/roman_converter.sol\":1838:1839  1 */\n      0x01\n        /* \"contracts/roman_converter.sol\":1831:1839  return 1 */\n      swap1\n      pop\n      jump(tag_72)\n        /* \"contracts/roman_converter.sol\":1814:1839  if (char == 'I') return 1 */\n    tag_73:\n        /* \"contracts/roman_converter.sol\":1854:1865  char == 'V' */\n      0x5600000000000000000000000000000000000000000000000000000000000000\n        /* \"contracts/roman_converter.sol\":1854:1858  char */\n      dup3\n        /* \"contracts/roman_converter.sol\":1854:1865  char == 'V' */\n      not(0xffffffffffffffffffffffffffffffffffffffffffffffffffffffffffffff)\n      and\n      sub\n        /* \"contracts/roman_converter.sol\":1850:1875  if (char == 'V') return 5 */\n      tag_74\n      jumpi\n        /* \"contracts/roman_converter.sol\":1874:1875  5 */\n      0x05\n        /* \"contracts/roman_converter.sol\":1867:1875  return 5 */\n      swap1\n      pop\n      jump(tag_72)\n        /* \"contracts/roman_converter.sol\":1850:1875  if (char == 'V') return 5 */\n    tag_74:\n        /* \"contracts/roman_converter.sol\":1890:1901  char == 'X' */\n      0x5800000000000000000000000000000000000000000000000000000000000000\n        /* \"contracts/roman_converter.sol\":1890:1894  char */\n      dup3\n        /* \"contracts/roman_converter.sol\":1890:1901  char == 'X' */\n      not(0xffffffffffffffffffffffffffffffffffffffffffffffffffffffffffffff)\n      and\n      sub\n        /* \"contracts/roman_converter.sol\":1886:1912  if (char == 'X') return 10 */\n      tag_75\n      jumpi\n        /* \"contracts/roman_converter.sol\":1910:1912  10 */\n      0x0a\n        /* \"contracts/roman_converter.sol\":1903:1912  return 10 */\n      swap1\n      pop\n      jump(tag_72)\n        /* \"contracts/roman_converter.sol\":1886:1912  if (char == 'X') return 10 */\n    tag_75:\n        /* \"contracts/roman_converter.sol\":1927:1938  char == 'L' */\n      0x4c00000000000000000000000000000000000000000000000000000000000000\n        /* \"contracts/roman_converter.sol\":1927:1931  char */\n      dup3\n        /* \"contracts/roman_converter.sol\":1927:1938  char == 'L' */\n      not(0xffffffffffffffffffffffffffffffffffffffffffffffffffffffffffffff)\n      and\n      sub\n        /* \"contracts/roman_converter.sol\":1923:1949  if (char == 'L') return 50 */\n      tag_76\n      jumpi\n        /* \"contracts/roman_converter.sol\":1947:1949  50 */\n      0x32\n        /* \"contracts/roman_converter.sol\":1940:1949  return 50 */\n      swap1\n      pop\n      jump(tag_72)\n        /* \"contracts/roman_converter.sol\":1923:1949  if (char == 'L') return 50 */\n    tag_76:\n        /* \"contracts/roman_converter.sol\":1964:1975  char == 'C' */\n      0x4300000000000000000000000000000000000000000000000000000000000000\n        /* \"contracts/roman_converter.sol\":1964:1968  char */\n      dup3\n        /* \"contracts/roman_converter.sol\":1964:1975  char == 'C' */\n      not(0xffffffffffffffffffffffffffffffffffffffffffffffffffffffffffffff)\n      and\n      sub\n        /* \"contracts/roman_converter.sol\":1960:1987  if (char == 'C') return 100 */\n      tag_77\n      jumpi\n        /* \"contracts/roman_converter.sol\":1984:1987  100 */\n      0x64\n        /* \"contracts/roman_converter.sol\":1977:1987  return 100 */\n      swap1\n      pop\n      jump(tag_72)\n        /* \"contracts/roman_converter.sol\":1960:1987  if (char == 'C') return 100 */\n    tag_77:\n        /* \"contracts/roman_converter.sol\":2002:2013  char == 'D' */\n      0x4400000000000000000000000000000000000000000000000000000000000000\n        /* \"contracts/roman_converter.sol\":2002:2006  char */\n      dup3\n        /* \"contracts/roman_converter.sol\":2002:2013  char == 'D' */\n      not(0xffffffffffffffffffffffffffffffffffffffffffffffffffffffffffffff)\n      and\n      sub\n        /* \"contracts/roman_converter.sol\":1998:2025  if (char == 'D') return 500 */\n      tag_78\n      jumpi\n        /* \"contracts/roman_converter.sol\":2022:2025  500 */\n      0x01f4\n        /* \"contracts/roman_converter.sol\":2015:2025  return 500 */\n      swap1\n      pop\n      jump(tag_72)\n        /* \"contracts/roman_converter.sol\":1998:2025  if (char == 'D') return 500 */\n    tag_78:\n        /* \"contracts/roman_converter.sol\":2040:2051  char == 'M' */\n      0x4d00000000000000000000000000000000000000000000000000000000000000\n        /* \"contracts/roman_converter.sol\":2040:2044  char */\n      dup3\n        /* \"contracts/roman_converter.sol\":2040:2051  char == 'M' */\n      not(0xffffffffffffffffffffffffffffffffffffffffffffffffffffffffffffff)\n      and\n      sub\n        /* \"contracts/roman_converter.sol\":2036:2064  if (char == 'M') return 1000 */\n      tag_79\n      jumpi\n        /* \"contracts/roman_converter.sol\":2060:2064  1000 */\n      0x03e8\n        /* \"contracts/roman_converter.sol\":2053:2064  return 1000 */\n      swap1\n      pop\n      jump(tag_72)\n        /* \"contracts/roman_converter.sol\":2036:2064  if (char == 'M') return 1000 */\n    tag_79:\n        /* \"contracts/roman_converter.sol\":2109:2150  revert(\"Invalid Roman numeral character\") */\n      mload(0x40)\n      0x08c379a000000000000000000000000000000000000000000000000000000000\n      dup2\n      mstore\n      0x04\n      add\n      tag_80\n      swap1\n      tag_81\n      jump\t// in\n    tag_80:\n      mload(0x40)\n      dup1\n      swap2\n      sub\n      swap1\n      revert\n        /* \"contracts/roman_converter.sol\":1738:2158  function _charToValue(bytes1 char) private pure returns (uint16) {... */\n    tag_72:\n      swap2\n      swap1\n      pop\n      jump\t// out\n        /* \"#utility.yul\":88:205   */\n    tag_83:\n        /* \"#utility.yul\":197:198   */\n      0x00\n        /* \"#utility.yul\":194:195   */\n      0x00\n        /* \"#utility.yul\":187:199   */\n      revert\n        /* \"#utility.yul\":211:328   */\n    tag_84:\n        /* \"#utility.yul\":320:321   */\n      0x00\n        /* \"#utility.yul\":317:318   */\n      0x00\n        /* \"#utility.yul\":310:322   */\n      revert\n        /* \"#utility.yul\":334:423   */\n    tag_85:\n        /* \"#utility.yul\":370:377   */\n      0x00\n        /* \"#utility.yul\":410:416   */\n      0xffff\n        /* \"#utility.yul\":403:408   */\n      dup3\n        /* \"#utility.yul\":399:417   */\n      and\n        /* \"#utility.yul\":388:417   */\n      swap1\n      pop\n        /* \"#utility.yul\":334:423   */\n      swap2\n      swap1\n      pop\n      jump\t// out\n        /* \"#utility.yul\":429:549   */\n    tag_86:\n        /* \"#utility.yul\":501:524   */\n      tag_120\n        /* \"#utility.yul\":518:523   */\n      dup2\n        /* \"#utility.yul\":501:524   */\n      tag_85\n      jump\t// in\n    tag_120:\n        /* \"#utility.yul\":494:499   */\n      dup2\n        /* \"#utility.yul\":491:525   */\n      eq\n        /* \"#utility.yul\":481:543   */\n      tag_121\n      jumpi\n        /* \"#utility.yul\":539:540   */\n      0x00\n        /* \"#utility.yul\":536:537   */\n      0x00\n        /* \"#utility.yul\":529:541   */\n      revert\n        /* \"#utility.yul\":481:543   */\n    tag_121:\n        /* \"#utility.yul\":429:549   */\n      pop\n      jump\t// out\n        /* \"#utility.yul\":555:692   */\n    tag_87:\n        /* \"#utility.yul\":600:605   */\n      0x00\n        /* \"#utility.yul\":638:644   */\n      dup2\n        /* \"#utility.yul\":625:645   */\n      calldataload\n        /* \"#utility.yul\":616:645   */\n      swap1\n      pop\n        /* \"#utility.yul\":654:686   */\n      tag_123\n        /* \"#utility.yul\":680:685   */\n      dup2\n        /* \"#utility.yul\":654:686   */\n      tag_86\n      jump\t// in\n    tag_123:\n        /* \"#utility.yul\":555:692   */\n      swap3\n      swap2\n      pop\n      pop\n      jump\t// out\n        /* \"#utility.yul\":698:1025   */\n    tag_7:\n        /* \"#utility.yul\":756:762   */\n      0x00\n        /* \"#utility.yul\":805:807   */\n      0x20\n        /* \"#utility.yul\":793:802   */\n      dup3\n        /* \"#utility.yul\":784:791   */\n      dup5\n        /* \"#utility.yul\":780:803   */\n      sub\n        /* \"#utility.yul\":776:808   */\n      slt\n        /* \"#utility.yul\":773:892   */\n      iszero\n      tag_125\n      jumpi\n        /* \"#utility.yul\":811:890   */\n      tag_126\n      tag_83\n      jump\t// in\n    tag_126:\n        /* \"#utility.yul\":773:892   */\n    tag_125:\n        /* \"#utility.yul\":931:932   */\n      0x00\n        /* \"#utility.yul\":956:1008   */\n      tag_127\n        /* \"#utility.yul\":1000:1007   */\n      dup5\n        /* \"#utility.yul\":991:997   */\n      dup3\n        /* \"#utility.yul\":980:989   */\n      dup6\n        /* \"#utility.yul\":976:998   */\n      add\n        /* \"#utility.yul\":956:1008   */\n      tag_87\n      jump\t// in\n    tag_127:\n        /* \"#utility.yul\":946:1008   */\n      swap2\n      pop\n        /* \"#utility.yul\":902:1018   */\n      pop\n        /* \"#utility.yul\":698:1025   */\n      swap3\n      swap2\n      pop\n      pop\n      jump\t// out\n        /* \"#utility.yul\":1031:1130   */\n    tag_88:\n        /* \"#utility.yul\":1083:1089   */\n      0x00\n        /* \"#utility.yul\":1117:1122   */\n      dup2\n        /* \"#utility.yul\":1111:1123   */\n      mload\n        /* \"#utility.yul\":1101:1123   */\n      swap1\n      pop\n        /* \"#utility.yul\":1031:1130   */\n      swap2\n      swap1\n      pop\n      jump\t// out\n        /* \"#utility.yul\":1136:1305   */\n    tag_89:\n        /* \"#utility.yul\":1220:1231   */\n      0x00\n        /* \"#utility.yul\":1254:1260   */\n      dup3\n        /* \"#utility.yul\":1249:1252   */\n      dup3\n        /* \"#utility.yul\":1242:1261   */\n      mstore\n        /* \"#utility.yul\":1294:1298   */\n      0x20\n        /* \"#utility.yul\":1289:1292   */\n      dup3\n        /* \"#utility.yul\":1285:1299   */\n      add\n        /* \"#utility.yul\":1270:1299   */\n      swap1\n      pop\n        /* \"#utility.yul\":1136:1305   */\n      swap3\n      swap2\n      pop\n      pop\n      jump\t// out\n        /* \"#utility.yul\":1311:1559   */\n    tag_90:\n        /* \"#utility.yul\":1393:1394   */\n      0x00\n        /* \"#utility.yul\":1403:1516   */\n    tag_131:\n        /* \"#utility.yul\":1417:1423   */\n      dup4\n        /* \"#utility.yul\":1414:1415   */\n      dup2\n        /* \"#utility.yul\":1411:1424   */\n      lt\n        /* \"#utility.yul\":1403:1516   */\n      iszero\n      tag_133\n      jumpi\n        /* \"#utility.yul\":1502:1503   */\n      dup1\n        /* \"#utility.yul\":1497:1500   */\n      dup3\n        /* \"#utility.yul\":1493:1504   */\n      add\n        /* \"#utility.yul\":1487:1505   */\n      mload\n        /* \"#utility.yul\":1483:1484   */\n      dup2\n        /* \"#utility.yul\":1478:1481   */\n      dup5\n        /* \"#utility.yul\":1474:1485   */\n      add\n        /* \"#utility.yul\":1467:1506   */\n      mstore\n        /* \"#utility.yul\":1439:1441   */\n      0x20\n        /* \"#utility.yul\":1436:1437   */\n      dup2\n        /* \"#utility.yul\":1432:1442   */\n      add\n        /* \"#utility.yul\":1427:1442   */\n      swap1\n      pop\n        /* \"#utility.yul\":1403:1516   */\n      jump(tag_131)\n    tag_133:\n        /* \"#utility.yul\":1550:1551   */\n      0x00\n        /* \"#utility.yul\":1541:1547   */\n      dup5\n        /* \"#utility.yul\":1536:1539   */\n      dup5\n        /* \"#utility.yul\":1532:1548   */\n      add\n        /* \"#utility.yul\":1525:1552   */\n      mstore\n        /* \"#utility.yul\":1373:1559   */\n      pop\n        /* \"#utility.yul\":1311:1559   */\n      pop\n      pop\n      pop\n      jump\t// out\n        /* \"#utility.yul\":1565:1667   */\n    tag_91:\n        /* \"#utility.yul\":1606:1612   */\n      0x00\n        /* \"#utility.yul\":1657:1659   */\n      0x1f\n        /* \"#utility.yul\":1653:1660   */\n      not\n        /* \"#utility.yul\":1648:1650   */\n      0x1f\n        /* \"#utility.yul\":1641:1646   */\n      dup4\n        /* \"#utility.yul\":1637:1651   */\n      add\n        /* \"#utility.yul\":1633:1661   */\n      and\n        /* \"#utility.yul\":1623:1661   */\n      swap1\n      pop\n        /* \"#utility.yul\":1565:1667   */\n      swap2\n      swap1\n      pop\n      jump\t// out\n        /* \"#utility.yul\":1673:2050   */\n    tag_92:\n        /* \"#utility.yul\":1761:1764   */\n      0x00\n        /* \"#utility.yul\":1789:1828   */\n      tag_136\n        /* \"#utility.yul\":1822:1827   */\n      dup3\n        /* \"#utility.yul\":1789:1828   */\n      tag_88\n      jump\t// in\n    tag_136:\n        /* \"#utility.yul\":1844:1915   */\n      tag_137\n        /* \"#utility.yul\":1908:1914   */\n      dup2\n        /* \"#utility.yul\":1903:1906   */\n      dup6\n        /* \"#utility.yul\":1844:1915   */\n      tag_89\n      jump\t// in\n    tag_137:\n        /* \"#utility.yul\":1837:1915   */\n      swap4\n      pop\n        /* \"#utility.yul\":1924:1989   */\n      tag_138\n        /* \"#utility.yul\":1982:1988   */\n      dup2\n        /* \"#utility.yul\":1977:1980   */\n      dup6\n        /* \"#utility.yul\":1970:1974   */\n      0x20\n        /* \"#utility.yul\":1963:1968   */\n      dup7\n        /* \"#utility.yul\":1959:1975   */\n      add\n        /* \"#utility.yul\":1924:1989   */\n      tag_90\n      jump\t// in\n    tag_138:\n        /* \"#utility.yul\":2014:2043   */\n      tag_139\n        /* \"#utility.yul\":2036:2042   */\n      dup2\n        /* \"#utility.yul\":2014:2043   */\n      tag_91\n      jump\t// in\n    tag_139:\n        /* \"#utility.yul\":2009:2012   */\n      dup5\n        /* \"#utility.yul\":2005:2044   */\n      add\n        /* \"#utility.yul\":1998:2044   */\n      swap2\n      pop\n        /* \"#utility.yul\":1765:2050   */\n      pop\n        /* \"#utility.yul\":1673:2050   */\n      swap3\n      swap2\n      pop\n      pop\n      jump\t// out\n        /* \"#utility.yul\":2056:2369   */\n    tag_10:\n        /* \"#utility.yul\":2169:2173   */\n      0x00\n        /* \"#utility.yul\":2207:2209   */\n      0x20\n        /* \"#utility.yul\":2196:2205   */\n      dup3\n        /* \"#utility.yul\":2192:2210   */\n      add\n        /* \"#utility.yul\":2184:2210   */\n      swap1\n      pop\n        /* \"#utility.yul\":2256:2265   */\n      dup2\n        /* \"#utility.yul\":2250:2254   */\n      dup2\n        /* \"#utility.yul\":2246:2266   */\n      sub\n        /* \"#utility.yul\":2242:2243   */\n      0x00\n        /* \"#utility.yul\":2231:2240   */\n      dup4\n        /* \"#utility.yul\":2227:2244   */\n      add\n        /* \"#utility.yul\":2220:2267   */\n      mstore\n        /* \"#utility.yul\":2284:2362   */\n      tag_141\n        /* \"#utility.yul\":2357:2361   */\n      dup2\n        /* \"#utility.yul\":2348:2354   */\n      dup5\n        /* \"#utility.yul\":2284:2362   */\n      tag_92\n      jump\t// in\n    tag_141:\n        /* \"#utility.yul\":2276:2362   */\n      swap1\n      pop\n        /* \"#utility.yul\":2056:2369   */\n      swap3\n      swap2\n      pop\n      pop\n      jump\t// out\n        /* \"#utility.yul\":2375:2492   */\n    tag_93:\n        /* \"#utility.yul\":2484:2485   */\n      0x00\n        /* \"#utility.yul\":2481:2482   */\n      0x00\n        /* \"#utility.yul\":2474:2486   */\n      revert\n        /* \"#utility.yul\":2498:2615   */\n    tag_94:\n        /* \"#utility.yul\":2607:2608   */\n      0x00\n        /* \"#utility.yul\":2604:2605   */\n      0x00\n        /* \"#utility.yul\":2597:2609   */\n      revert\n        /* \"#utility.yul\":2621:2738   */\n    tag_95:\n        /* \"#utility.yul\":2730:2731   */\n      0x00\n        /* \"#utility.yul\":2727:2728   */\n      0x00\n        /* \"#utility.yul\":2720:2732   */\n      revert\n        /* \"#utility.yul\":2758:3311   */\n    tag_96:\n        /* \"#utility.yul\":2816:2824   */\n      0x00\n        /* \"#utility.yul\":2826:2832   */\n      0x00\n        /* \"#utility.yul\":2876:2879   */\n      dup4\n        /* \"#utility.yul\":2869:2873   */\n      0x1f\n        /* \"#utility.yul\":2861:2867   */\n      dup5\n        /* \"#utility.yul\":2857:2874   */\n      add\n        /* \"#utility.yul\":2853:2880   */\n      slt\n        /* \"#utility.yul\":2843:2965   */\n      tag_146\n      jumpi\n        /* \"#utility.yul\":2884:2963   */\n      tag_147\n      tag_93\n      jump\t// in\n    tag_147:\n        /* \"#utility.yul\":2843:2965   */\n    tag_146:\n        /* \"#utility.yul\":2997:3003   */\n      dup3\n        /* \"#utility.yul\":2984:3004   */\n      calldataload\n        /* \"#utility.yul\":2974:3004   */\n      swap1\n      pop\n        /* \"#utility.yul\":3027:3045   */\n      0xffffffffffffffff\n        /* \"#utility.yul\":3019:3025   */\n      dup2\n        /* \"#utility.yul\":3016:3046   */\n      gt\n        /* \"#utility.yul\":3013:3130   */\n      iszero\n      tag_148\n      jumpi\n        /* \"#utility.yul\":3049:3128   */\n      tag_149\n      tag_94\n      jump\t// in\n    tag_149:\n        /* \"#utility.yul\":3013:3130   */\n    tag_148:\n        /* \"#utility.yul\":3163:3167   */\n      0x20\n        /* \"#utility.yul\":3155:3161   */\n      dup4\n        /* \"#utility.yul\":3151:3168   */\n      add\n        /* \"#utility.yul\":3139:3168   */\n      swap2\n      pop\n        /* \"#utility.yul\":3217:3220   */\n      dup4\n        /* \"#utility.yul\":3209:3213   */\n      0x01\n        /* \"#utility.yul\":3201:3207   */\n      dup3\n        /* \"#utility.yul\":3197:3214   */\n      mul\n        /* \"#utility.yul\":3187:3195   */\n      dup4\n        /* \"#utility.yul\":3183:3215   */\n      add\n        /* \"#utility.yul\":3180:3221   */\n      gt\n        /* \"#utility.yul\":3177:3305   */\n      iszero\n      tag_150\n      jumpi\n        /* \"#utility.yul\":3224:3303   */\n      tag_151\n      tag_95\n      jump\t// in\n    tag_151:\n        /* \"#utility.yul\":3177:3305   */\n    tag_150:\n        /* \"#utility.yul\":2758:3311   */\n      swap3\n      pop\n      swap3\n      swap1\n      pop\n      jump\t// out\n        /* \"#utility.yul\":3317:3846   */\n    tag_13:\n        /* \"#utility.yul\":3388:3394   */\n      0x00\n        /* \"#utility.yul\":3396:3402   */\n      0x00\n        /* \"#utility.yul\":3445:3447   */\n      0x20\n        /* \"#utility.yul\":3433:3442   */\n      dup4\n        /* \"#utility.yul\":3424:3431   */\n      dup6\n        /* \"#utility.yul\":3420:3443   */\n      sub\n        /* \"#utility.yul\":3416:3448   */\n      slt\n        /* \"#utility.yul\":3413:3532   */\n      iszero\n      tag_153\n      jumpi\n        /* \"#utility.yul\":3451:3530   */\n      tag_154\n      tag_83\n      jump\t// in\n    tag_154:\n        /* \"#utility.yul\":3413:3532   */\n    tag_153:\n        /* \"#utility.yul\":3599:3600   */\n      0x00\n        /* \"#utility.yul\":3588:3597   */\n      dup4\n        /* \"#utility.yul\":3584:3601   */\n      add\n        /* \"#utility.yul\":3571:3602   */\n      calldataload\n        /* \"#utility.yul\":3629:3647   */\n      0xffffffffffffffff\n        /* \"#utility.yul\":3621:3627   */\n      dup2\n        /* \"#utility.yul\":3618:3648   */\n      gt\n        /* \"#utility.yul\":3615:3732   */\n      iszero\n      tag_155\n      jumpi\n        /* \"#utility.yul\":3651:3730   */\n      tag_156\n      tag_84\n      jump\t// in\n    tag_156:\n        /* \"#utility.yul\":3615:3732   */\n    tag_155:\n        /* \"#utility.yul\":3764:3829   */\n      tag_157\n        /* \"#utility.yul\":3821:3828   */\n      dup6\n        /* \"#utility.yul\":3812:3818   */\n      dup3\n        /* \"#utility.yul\":3801:3810   */\n      dup7\n        /* \"#utility.yul\":3797:3819   */\n      add\n        /* \"#utility.yul\":3764:3829   */\n      tag_96\n      jump\t// in\n    tag_157:\n        /* \"#utility.yul\":3746:3829   */\n      swap3\n      pop\n      swap3\n      pop\n        /* \"#utility.yul\":3542:3839   */\n      pop\n        /* \"#utility.yul\":3317:3846   */\n      swap3\n      pop\n      swap3\n      swap1\n      pop\n      jump\t// out\n        /* \"#utility.yul\":3852:3967   */\n    tag_97:\n        /* \"#utility.yul\":3937:3960   */\n      tag_159\n        /* \"#utility.yul\":3954:3959   */\n      dup2\n        /* \"#utility.yul\":3937:3960   */\n      tag_85\n      jump\t// in\n    tag_159:\n        /* \"#utility.yul\":3932:3935   */\n      dup3\n        /* \"#utility.yul\":3925:3961   */\n      mstore\n        /* \"#utility.yul\":3852:3967   */\n      pop\n      pop\n      jump\t// out\n        /* \"#utility.yul\":3973:4191   */\n    tag_16:\n        /* \"#utility.yul\":4064:4068   */\n      0x00\n        /* \"#utility.yul\":4102:4104   */\n      0x20\n        /* \"#utility.yul\":4091:4100   */\n      dup3\n        /* \"#utility.yul\":4087:4105   */\n      add\n        /* \"#utility.yul\":4079:4105   */\n      swap1\n      pop\n        /* \"#utility.yul\":4115:4184   */\n      tag_161\n        /* \"#utility.yul\":4181:4182   */\n      0x00\n        /* \"#utility.yul\":4170:4179   */\n      dup4\n        /* \"#utility.yul\":4166:4183   */\n      add\n        /* \"#utility.yul\":4157:4163   */\n      dup5\n        /* \"#utility.yul\":4115:4184   */\n      tag_97\n      jump\t// in\n    tag_161:\n        /* \"#utility.yul\":3973:4191   */\n      swap3\n      swap2\n      pop\n      pop\n      jump\t// out\n        /* \"#utility.yul\":4197:4418   */\n    tag_98:\n        /* \"#utility.yul\":4337:4371   */\n      0x4e756d626572206d757374206265206265747765656e203120616e6420333939\n        /* \"#utility.yul\":4333:4334   */\n      0x00\n        /* \"#utility.yul\":4325:4331   */\n      dup3\n        /* \"#utility.yul\":4321:4335   */\n      add\n        /* \"#utility.yul\":4314:4372   */\n      mstore\n        /* \"#utility.yul\":4406:4410   */\n      0x3930000000000000000000000000000000000000000000000000000000000000\n        /* \"#utility.yul\":4401:4403   */\n      0x20\n        /* \"#utility.yul\":4393:4399   */\n      dup3\n        /* \"#utility.yul\":4389:4404   */\n      add\n        /* \"#utility.yul\":4382:4411   */\n      mstore\n        /* \"#utility.yul\":4197:4418   */\n      pop\n      jump\t// out\n        /* \"#utility.yul\":4424:4790   */\n    tag_99:\n        /* \"#utility.yul\":4566:4569   */\n      0x00\n        /* \"#utility.yul\":4587:4654   */\n      tag_164\n        /* \"#utility.yul\":4651:4653   */\n      0x22\n        /* \"#utility.yul\":4646:4649   */\n      dup4\n        /* \"#utility.yul\":4587:4654   */\n      tag_89\n      jump\t// in\n    tag_164:\n        /* \"#utility.yul\":4580:4654   */\n      swap2\n      pop\n        /* \"#utility.yul\":4663:4756   */\n      tag_165\n        /* \"#utility.yul\":4752:4755   */\n      dup3\n        /* \"#utility.yul\":4663:4756   */\n      tag_98\n      jump\t// in\n    tag_165:\n        /* \"#utility.yul\":4781:4783   */\n      0x40\n        /* \"#utility.yul\":4776:4779   */\n      dup3\n        /* \"#utility.yul\":4772:4784   */\n      add\n        /* \"#utility.yul\":4765:4784   */\n      swap1\n      pop\n        /* \"#utility.yul\":4424:4790   */\n      swap2\n      swap1\n      pop\n      jump\t// out\n        /* \"#utility.yul\":4796:5215   */\n    tag_21:\n        /* \"#utility.yul\":4962:4966   */\n      0x00\n        /* \"#utility.yul\":5000:5002   */\n      0x20\n        /* \"#utility.yul\":4989:4998   */\n      dup3\n        /* \"#utility.yul\":4985:5003   */\n      add\n        /* \"#utility.yul\":4977:5003   */\n      swap1\n      pop\n        /* \"#utility.yul\":5049:5058   */\n      dup2\n        /* \"#utility.yul\":5043:5047   */\n      dup2\n        /* \"#utility.yul\":5039:5059   */\n      sub\n        /* \"#utility.yul\":5035:5036   */\n      0x00\n        /* \"#utility.yul\":5024:5033   */\n      dup4\n        /* \"#utility.yul\":5020:5037   */\n      add\n        /* \"#utility.yul\":5013:5060   */\n      mstore\n        /* \"#utility.yul\":5077:5208   */\n      tag_167\n        /* \"#utility.yul\":5203:5207   */\n      dup2\n        /* \"#utility.yul\":5077:5208   */\n      tag_99\n      jump\t// in\n    tag_167:\n        /* \"#utility.yul\":5069:5208   */\n      swap1\n      pop\n        /* \"#utility.yul\":4796:5215   */\n      swap2\n      swap1\n      pop\n      jump\t// out\n        /* \"#utility.yul\":5221:5401   */\n    tag_26:\n        /* \"#utility.yul\":5269:5346   */\n      0x4e487b7100000000000000000000000000000000000000000000000000000000\n        /* \"#utility.yul\":5266:5267   */\n      0x00\n        /* \"#utility.yul\":5259:5347   */\n      mstore\n        /* \"#utility.yul\":5366:5370   */\n      0x32\n        /* \"#utility.yul\":5363:5364   */\n      0x04\n        /* \"#utility.yul\":5356:5371   */\n      mstore\n        /* \"#utility.yul\":5390:5394   */\n      0x24\n        /* \"#utility.yul\":5387:5388   */\n      0x00\n        /* \"#utility.yul\":5380:5395   */\n      revert\n        /* \"#utility.yul\":5407:5555   */\n    tag_100:\n        /* \"#utility.yul\":5509:5520   */\n      0x00\n        /* \"#utility.yul\":5546:5549   */\n      dup2\n        /* \"#utility.yul\":5531:5549   */\n      swap1\n      pop\n        /* \"#utility.yul\":5407:5555   */\n      swap3\n      swap2\n      pop\n      pop\n      jump\t// out\n        /* \"#utility.yul\":5561:5951   */\n    tag_101:\n        /* \"#utility.yul\":5667:5670   */\n      0x00\n        /* \"#utility.yul\":5695:5734   */\n      tag_171\n        /* \"#utility.yul\":5728:5733   */\n      dup3\n        /* \"#utility.yul\":5695:5734   */\n      tag_88\n      jump\t// in\n    tag_171:\n        /* \"#utility.yul\":5750:5839   */\n      tag_172\n        /* \"#utility.yul\":5832:5838   */\n      dup2\n        /* \"#utility.yul\":5827:5830   */\n      dup6\n        /* \"#utility.yul\":5750:5839   */\n      tag_100\n      jump\t// in\n    tag_172:\n        /* \"#utility.yul\":5743:5839   */\n      swap4\n      pop\n        /* \"#utility.yul\":5848:5913   */\n      tag_173\n        /* \"#utility.yul\":5906:5912   */\n      dup2\n        /* \"#utility.yul\":5901:5904   */\n      dup6\n        /* \"#utility.yul\":5894:5898   */\n      0x20\n        /* \"#utility.yul\":5887:5892   */\n      dup7\n        /* \"#utility.yul\":5883:5899   */\n      add\n        /* \"#utility.yul\":5848:5913   */\n      tag_90\n      jump\t// in\n    tag_173:\n        /* \"#utility.yul\":5938:5944   */\n      dup1\n        /* \"#utility.yul\":5933:5936   */\n      dup5\n        /* \"#utility.yul\":5929:5945   */\n      add\n        /* \"#utility.yul\":5922:5945   */\n      swap2\n      pop\n        /* \"#utility.yul\":5671:5951   */\n      pop\n        /* \"#utility.yul\":5561:5951   */\n      swap3\n      swap2\n      pop\n      pop\n      jump\t// out\n        /* \"#utility.yul\":5957:6137   */\n    tag_102:\n        /* \"#utility.yul\":6005:6082   */\n      0x4e487b7100000000000000000000000000000000000000000000000000000000\n        /* \"#utility.yul\":6002:6003   */\n      0x00\n        /* \"#utility.yul\":5995:6083   */\n      mstore\n        /* \"#utility.yul\":6102:6106   */\n      0x22\n        /* \"#utility.yul\":6099:6100   */\n      0x04\n        /* \"#utility.yul\":6092:6107   */\n      mstore\n        /* \"#utility.yul\":6126:6130   */\n      0x24\n        /* \"#utility.yul\":6123:6124   */\n      0x00\n        /* \"#utility.yul\":6116:6131   */\n      revert\n        /* \"#utility.yul\":6143:6463   */\n    tag_103:\n        /* \"#utility.yul\":6187:6193   */\n      0x00\n        /* \"#utility.yul\":6224:6225   */\n      0x02\n        /* \"#utility.yul\":6218:6222   */\n      dup3\n        /* \"#utility.yul\":6214:6226   */\n      div\n        /* \"#utility.yul\":6204:6226   */\n      swap1\n      pop\n        /* \"#utility.yul\":6271:6272   */\n      0x01\n        /* \"#utility.yul\":6265:6269   */\n      dup3\n        /* \"#utility.yul\":6261:6273   */\n      and\n        /* \"#utility.yul\":6292:6310   */\n      dup1\n        /* \"#utility.yul\":6282:6363   */\n      tag_176\n      jumpi\n        /* \"#utility.yul\":6348:6352   */\n      0x7f\n        /* \"#utility.yul\":6340:6346   */\n      dup3\n        /* \"#utility.yul\":6336:6353   */\n      and\n        /* \"#utility.yul\":6326:6353   */\n      swap2\n      pop\n        /* \"#utility.yul\":6282:6363   */\n    tag_176:\n        /* \"#utility.yul\":6410:6412   */\n      0x20\n        /* \"#utility.yul\":6402:6408   */\n      dup3\n        /* \"#utility.yul\":6399:6413   */\n      lt\n        /* \"#utility.yul\":6379:6397   */\n      dup2\n        /* \"#utility.yul\":6376:6414   */\n      sub\n        /* \"#utility.yul\":6373:6457   */\n      tag_177\n      jumpi\n        /* \"#utility.yul\":6429:6447   */\n      tag_178\n      tag_102\n      jump\t// in\n    tag_178:\n        /* \"#utility.yul\":6373:6457   */\n    tag_177:\n        /* \"#utility.yul\":6194:6463   */\n      pop\n        /* \"#utility.yul\":6143:6463   */\n      swap2\n      swap1\n      pop\n      jump\t// out\n        /* \"#utility.yul\":6469:6610   */\n    tag_104:\n        /* \"#utility.yul\":6518:6522   */\n      0x00\n        /* \"#utility.yul\":6541:6544   */\n      dup2\n        /* \"#utility.yul\":6533:6544   */\n      swap1\n      pop\n        /* \"#utility.yul\":6564:6567   */\n      dup2\n        /* \"#utility.yul\":6561:6562   */\n      0x00\n        /* \"#utility.yul\":6554:6568   */\n      mstore\n        /* \"#utility.yul\":6598:6602   */\n      0x20\n        /* \"#utility.yul\":6595:6596   */\n      0x00\n        /* \"#utility.yul\":6585:6603   */\n      keccak256\n        /* \"#utility.yul\":6577:6603   */\n      swap1\n      pop\n        /* \"#utility.yul\":6469:6610   */\n      swap2\n      swap1\n      pop\n      jump\t// out\n        /* \"#utility.yul\":6640:7514   */\n    tag_105:\n        /* \"#utility.yul\":6743:6746   */\n      0x00\n        /* \"#utility.yul\":6780:6785   */\n      dup2\n        /* \"#utility.yul\":6774:6786   */\n      sload\n        /* \"#utility.yul\":6809:6845   */\n      tag_181\n        /* \"#utility.yul\":6835:6844   */\n      dup2\n        /* \"#utility.yul\":6809:6845   */\n      tag_103\n      jump\t// in\n    tag_181:\n        /* \"#utility.yul\":6861:6950   */\n      tag_182\n        /* \"#utility.yul\":6943:6949   */\n      dup2\n        /* \"#utility.yul\":6938:6941   */\n      dup7\n        /* \"#utility.yul\":6861:6950   */\n      tag_100\n      jump\t// in\n    tag_182:\n        /* \"#utility.yul\":6854:6950   */\n      swap5\n      pop\n        /* \"#utility.yul\":6981:6982   */\n      0x01\n        /* \"#utility.yul\":6970:6979   */\n      dup3\n        /* \"#utility.yul\":6966:6983   */\n      and\n        /* \"#utility.yul\":6997:6998   */\n      0x00\n        /* \"#utility.yul\":6992:7158   */\n      dup2\n      eq\n      tag_184\n      jumpi\n        /* \"#utility.yul\":7172:7173   */\n      0x01\n        /* \"#utility.yul\":7167:7508   */\n      dup2\n      eq\n      tag_185\n      jumpi\n        /* \"#utility.yul\":6959:7508   */\n      jump(tag_183)\n        /* \"#utility.yul\":6992:7158   */\n    tag_184:\n        /* \"#utility.yul\":7076:7080   */\n      0xff\n        /* \"#utility.yul\":7072:7081   */\n      not\n        /* \"#utility.yul\":7061:7070   */\n      dup4\n        /* \"#utility.yul\":7057:7082   */\n      and\n        /* \"#utility.yul\":7052:7055   */\n      dup7\n        /* \"#utility.yul\":7045:7083   */\n      mstore\n        /* \"#utility.yul\":7138:7144   */\n      dup2\n        /* \"#utility.yul\":7131:7145   */\n      iszero\n        /* \"#utility.yul\":7124:7146   */\n      iszero\n        /* \"#utility.yul\":7116:7122   */\n      dup3\n        /* \"#utility.yul\":7112:7147   */\n      mul\n        /* \"#utility.yul\":7107:7110   */\n      dup7\n        /* \"#utility.yul\":7103:7148   */\n      add\n        /* \"#utility.yul\":7096:7148   */\n      swap4\n      pop\n        /* \"#utility.yul\":6992:7158   */\n      jump(tag_183)\n        /* \"#utility.yul\":7167:7508   */\n    tag_185:\n        /* \"#utility.yul\":7234:7272   */\n      tag_186\n        /* \"#utility.yul\":7266:7271   */\n      dup6\n        /* \"#utility.yul\":7234:7272   */\n      tag_104\n      jump\t// in\n    tag_186:\n        /* \"#utility.yul\":7294:7295   */\n      0x00\n        /* \"#utility.yul\":7308:7462   */\n    tag_187:\n        /* \"#utility.yul\":7322:7328   */\n      dup4\n        /* \"#utility.yul\":7319:7320   */\n      dup2\n        /* \"#utility.yul\":7316:7329   */\n      lt\n        /* \"#utility.yul\":7308:7462   */\n      iszero\n      tag_189\n      jumpi\n        /* \"#utility.yul\":7396:7403   */\n      dup2\n        /* \"#utility.yul\":7390:7404   */\n      sload\n        /* \"#utility.yul\":7386:7387   */\n      dup2\n        /* \"#utility.yul\":7381:7384   */\n      dup10\n        /* \"#utility.yul\":7377:7388   */\n      add\n        /* \"#utility.yul\":7370:7405   */\n      mstore\n        /* \"#utility.yul\":7446:7447   */\n      0x01\n        /* \"#utility.yul\":7437:7444   */\n      dup3\n        /* \"#utility.yul\":7433:7448   */\n      add\n        /* \"#utility.yul\":7422:7448   */\n      swap2\n      pop\n        /* \"#utility.yul\":7344:7348   */\n      0x20\n        /* \"#utility.yul\":7341:7342   */\n      dup2\n        /* \"#utility.yul\":7337:7349   */\n      add\n        /* \"#utility.yul\":7332:7349   */\n      swap1\n      pop\n        /* \"#utility.yul\":7308:7462   */\n      jump(tag_187)\n    tag_189:\n        /* \"#utility.yul\":7491:7497   */\n      dup4\n        /* \"#utility.yul\":7486:7489   */\n      dup9\n        /* \"#utility.yul\":7482:7498   */\n      add\n        /* \"#utility.yul\":7475:7498   */\n      swap6\n      pop\n        /* \"#utility.yul\":7174:7508   */\n      pop\n      pop\n        /* \"#utility.yul\":6959:7508   */\n    tag_183:\n      pop\n        /* \"#utility.yul\":6747:7514   */\n      pop\n      pop\n        /* \"#utility.yul\":6640:7514   */\n      swap3\n      swap2\n      pop\n      pop\n      jump\t// out\n        /* \"#utility.yul\":7520:7949   */\n    tag_33:\n        /* \"#utility.yul\":7697:7700   */\n      0x00\n        /* \"#utility.yul\":7719:7814   */\n      tag_191\n        /* \"#utility.yul\":7810:7813   */\n      dup3\n        /* \"#utility.yul\":7801:7807   */\n      dup6\n        /* \"#utility.yul\":7719:7814   */\n      tag_101\n      jump\t// in\n    tag_191:\n        /* \"#utility.yul\":7712:7814   */\n      swap2\n      pop\n        /* \"#utility.yul\":7831:7923   */\n      tag_192\n        /* \"#utility.yul\":7919:7922   */\n      dup3\n        /* \"#utility.yul\":7910:7916   */\n      dup5\n        /* \"#utility.yul\":7831:7923   */\n      tag_105\n      jump\t// in\n    tag_192:\n        /* \"#utility.yul\":7824:7923   */\n      swap2\n      pop\n        /* \"#utility.yul\":7940:7943   */\n      dup2\n        /* \"#utility.yul\":7933:7943   */\n      swap1\n      pop\n        /* \"#utility.yul\":7520:7949   */\n      swap4\n      swap3\n      pop\n      pop\n      pop\n      jump\t// out\n        /* \"#utility.yul\":7955:8135   */\n    tag_106:\n        /* \"#utility.yul\":8003:8080   */\n      0x4e487b7100000000000000000000000000000000000000000000000000000000\n        /* \"#utility.yul\":8000:8001   */\n      0x00\n        /* \"#utility.yul\":7993:8081   */\n      mstore\n        /* \"#utility.yul\":8100:8104   */\n      0x11\n        /* \"#utility.yul\":8097:8098   */\n      0x04\n        /* \"#utility.yul\":8090:8105   */\n      mstore\n        /* \"#utility.yul\":8124:8128   */\n      0x24\n        /* \"#utility.yul\":8121:8122   */\n      0x00\n        /* \"#utility.yul\":8114:8129   */\n      revert\n        /* \"#utility.yul\":8141:8337   */\n    tag_38:\n        /* \"#utility.yul\":8180:8184   */\n      0x00\n        /* \"#utility.yul\":8200:8219   */\n      tag_195\n        /* \"#utility.yul\":8217:8218   */\n      dup3\n        /* \"#utility.yul\":8200:8219   */\n      tag_85\n      jump\t// in\n    tag_195:\n        /* \"#utility.yul\":8195:8219   */\n      swap2\n      pop\n        /* \"#utility.yul\":8233:8252   */\n      tag_196\n        /* \"#utility.yul\":8250:8251   */\n      dup4\n        /* \"#utility.yul\":8233:8252   */\n      tag_85\n      jump\t// in\n    tag_196:\n        /* \"#utility.yul\":8228:8252   */\n      swap3\n      pop\n        /* \"#utility.yul\":8276:8277   */\n      dup3\n        /* \"#utility.yul\":8273:8274   */\n      dup3\n        /* \"#utility.yul\":8269:8278   */\n      sub\n        /* \"#utility.yul\":8261:8278   */\n      swap1\n      pop\n        /* \"#utility.yul\":8300:8306   */\n      0xffff\n        /* \"#utility.yul\":8294:8298   */\n      dup2\n        /* \"#utility.yul\":8291:8307   */\n      gt\n        /* \"#utility.yul\":8288:8330   */\n      iszero\n      tag_197\n      jumpi\n        /* \"#utility.yul\":8310:8328   */\n      tag_198\n      tag_106\n      jump\t// in\n    tag_198:\n        /* \"#utility.yul\":8288:8330   */\n    tag_197:\n        /* \"#utility.yul\":8141:8337   */\n      swap3\n      swap2\n      pop\n      pop\n      jump\t// out\n        /* \"#utility.yul\":8343:8514   */\n    tag_41:\n        /* \"#utility.yul\":8381:8384   */\n      0x00\n        /* \"#utility.yul\":8404:8427   */\n      tag_200\n        /* \"#utility.yul\":8421:8426   */\n      dup3\n        /* \"#utility.yul\":8404:8427   */\n      tag_85\n      jump\t// in\n    tag_200:\n        /* \"#utility.yul\":8395:8427   */\n      swap2\n      pop\n        /* \"#utility.yul\":8449:8455   */\n      0xffff\n        /* \"#utility.yul\":8442:8447   */\n      dup3\n        /* \"#utility.yul\":8439:8456   */\n      sub\n        /* \"#utility.yul\":8436:8479   */\n      tag_201\n      jumpi\n        /* \"#utility.yul\":8459:8477   */\n      tag_202\n      tag_106\n      jump\t// in\n    tag_202:\n        /* \"#utility.yul\":8436:8479   */\n    tag_201:\n        /* \"#utility.yul\":8506:8507   */\n      0x01\n        /* \"#utility.yul\":8499:8504   */\n      dup3\n        /* \"#utility.yul\":8495:8508   */\n      add\n        /* \"#utility.yul\":8488:8508   */\n      swap1\n      pop\n        /* \"#utility.yul\":8343:8514   */\n      swap2\n      swap1\n      pop\n      jump\t// out\n        /* \"#utility.yul\":8520:8699   */\n    tag_107:\n        /* \"#utility.yul\":8660:8691   */\n      0x526f6d616e206e756d6572616c2063616e6e6f7420626520656d707479000000\n        /* \"#utility.yul\":8656:8657   */\n      0x00\n        /* \"#utility.yul\":8648:8654   */\n      dup3\n        /* \"#utility.yul\":8644:8658   */\n      add\n        /* \"#utility.yul\":8637:8692   */\n      mstore\n        /* \"#utility.yul\":8520:8699   */\n      pop\n      jump\t// out\n        /* \"#utility.yul\":8705:9071   */\n    tag_108:\n        /* \"#utility.yul\":8847:8850   */\n      0x00\n        /* \"#utility.yul\":8868:8935   */\n      tag_205\n        /* \"#utility.yul\":8932:8934   */\n      0x1d\n        /* \"#utility.yul\":8927:8930   */\n      dup4\n        /* \"#utility.yul\":8868:8935   */\n      tag_89\n      jump\t// in\n    tag_205:\n        /* \"#utility.yul\":8861:8935   */\n      swap2\n      pop\n        /* \"#utility.yul\":8944:9037   */\n      tag_206\n        /* \"#utility.yul\":9033:9036   */\n      dup3\n        /* \"#utility.yul\":8944:9037   */\n      tag_107\n      jump\t// in\n    tag_206:\n        /* \"#utility.yul\":9062:9064   */\n      0x20\n        /* \"#utility.yul\":9057:9060   */\n      dup3\n        /* \"#utility.yul\":9053:9065   */\n      add\n        /* \"#utility.yul\":9046:9065   */\n      swap1\n      pop\n        /* \"#utility.yul\":8705:9071   */\n      swap2\n      swap1\n      pop\n      jump\t// out\n        /* \"#utility.yul\":9077:9496   */\n    tag_45:\n        /* \"#utility.yul\":9243:9247   */\n      0x00\n        /* \"#utility.yul\":9281:9283   */\n      0x20\n        /* \"#utility.yul\":9270:9279   */\n      dup3\n        /* \"#utility.yul\":9266:9284   */\n      add\n        /* \"#utility.yul\":9258:9284   */\n      swap1\n      pop\n        /* \"#utility.yul\":9330:9339   */\n      dup2\n        /* \"#utility.yul\":9324:9328   */\n      dup2\n        /* \"#utility.yul\":9320:9340   */\n      sub\n        /* \"#utility.yul\":9316:9317   */\n      0x00\n        /* \"#utility.yul\":9305:9314   */\n      dup4\n        /* \"#utility.yul\":9301:9318   */\n      add\n        /* \"#utility.yul\":9294:9341   */\n      mstore\n        /* \"#utility.yul\":9358:9489   */\n      tag_208\n        /* \"#utility.yul\":9484:9488   */\n      dup2\n        /* \"#utility.yul\":9358:9489   */\n      tag_108\n      jump\t// in\n    tag_208:\n        /* \"#utility.yul\":9350:9489   */\n      swap1\n      pop\n        /* \"#utility.yul\":9077:9496   */\n      swap2\n      swap1\n      pop\n      jump\t// out\n        /* \"#utility.yul\":9502:9579   */\n    tag_109:\n        /* \"#utility.yul\":9539:9546   */\n      0x00\n        /* \"#utility.yul\":9568:9573   */\n      dup2\n        /* \"#utility.yul\":9557:9573   */\n      swap1\n      pop\n        /* \"#utility.yul\":9502:9579   */\n      swap2\n      swap1\n      pop\n      jump\t// out\n        /* \"#utility.yul\":9585:9779   */\n    tag_54:\n        /* \"#utility.yul\":9625:9629   */\n      0x00\n        /* \"#utility.yul\":9645:9665   */\n      tag_211\n        /* \"#utility.yul\":9663:9664   */\n      dup3\n        /* \"#utility.yul\":9645:9665   */\n      tag_109\n      jump\t// in\n    tag_211:\n        /* \"#utility.yul\":9640:9665   */\n      swap2\n      pop\n        /* \"#utility.yul\":9679:9699   */\n      tag_212\n        /* \"#utility.yul\":9697:9698   */\n      dup4\n        /* \"#utility.yul\":9679:9699   */\n      tag_109\n      jump\t// in\n    tag_212:\n        /* \"#utility.yul\":9674:9699   */\n      swap3\n      pop\n        /* \"#utility.yul\":9723:9724   */\n      dup3\n        /* \"#utility.yul\":9720:9721   */\n      dup3\n        /* \"#utility.yul\":9716:9725   */\n      sub\n        /* \"#utility.yul\":9708:9725   */\n      swap1\n      pop\n        /* \"#utility.yul\":9747:9748   */\n      dup2\n        /* \"#utility.yul\":9741:9745   */\n      dup2\n        /* \"#utility.yul\":9738:9749   */\n      gt\n        /* \"#utility.yul\":9735:9772   */\n      iszero\n      tag_213\n      jumpi\n        /* \"#utility.yul\":9752:9770   */\n      tag_214\n      tag_106\n      jump\t// in\n    tag_214:\n        /* \"#utility.yul\":9735:9772   */\n    tag_213:\n        /* \"#utility.yul\":9585:9779   */\n      swap3\n      swap2\n      pop\n      pop\n      jump\t// out\n        /* \"#utility.yul\":9785:9976   */\n    tag_58:\n        /* \"#utility.yul\":9825:9828   */\n      0x00\n        /* \"#utility.yul\":9844:9864   */\n      tag_216\n        /* \"#utility.yul\":9862:9863   */\n      dup3\n        /* \"#utility.yul\":9844:9864   */\n      tag_109\n      jump\t// in\n    tag_216:\n        /* \"#utility.yul\":9839:9864   */\n      swap2\n      pop\n        /* \"#utility.yul\":9878:9898   */\n      tag_217\n        /* \"#utility.yul\":9896:9897   */\n      dup4\n        /* \"#utility.yul\":9878:9898   */\n      tag_109\n      jump\t// in\n    tag_217:\n        /* \"#utility.yul\":9873:9898   */\n      swap3\n      pop\n        /* \"#utility.yul\":9921:9922   */\n      dup3\n        /* \"#utility.yul\":9918:9919   */\n      dup3\n        /* \"#utility.yul\":9914:9923   */\n      add\n        /* \"#utility.yul\":9907:9923   */\n      swap1\n      pop\n        /* \"#utility.yul\":9942:9945   */\n      dup1\n        /* \"#utility.yul\":9939:9940   */\n      dup3\n        /* \"#utility.yul\":9936:9946   */\n      gt\n        /* \"#utility.yul\":9933:9969   */\n      iszero\n      tag_218\n      jumpi\n        /* \"#utility.yul\":9949:9967   */\n      tag_219\n      tag_106\n      jump\t// in\n    tag_219:\n        /* \"#utility.yul\":9933:9969   */\n    tag_218:\n        /* \"#utility.yul\":9785:9976   */\n      swap3\n      swap2\n      pop\n      pop\n      jump\t// out\n        /* \"#utility.yul\":9982:10175   */\n    tag_65:\n        /* \"#utility.yul\":10021:10024   */\n      0x00\n        /* \"#utility.yul\":10040:10059   */\n      tag_221\n        /* \"#utility.yul\":10057:10058   */\n      dup3\n        /* \"#utility.yul\":10040:10059   */\n      tag_85\n      jump\t// in\n    tag_221:\n        /* \"#utility.yul\":10035:10059   */\n      swap2\n      pop\n        /* \"#utility.yul\":10073:10092   */\n      tag_222\n        /* \"#utility.yul\":10090:10091   */\n      dup4\n        /* \"#utility.yul\":10073:10092   */\n      tag_85\n      jump\t// in\n    tag_222:\n        /* \"#utility.yul\":10068:10092   */\n      swap3\n      pop\n        /* \"#utility.yul\":10115:10116   */\n      dup3\n        /* \"#utility.yul\":10112:10113   */\n      dup3\n        /* \"#utility.yul\":10108:10117   */\n      add\n        /* \"#utility.yul\":10101:10117   */\n      swap1\n      pop\n        /* \"#utility.yul\":10138:10144   */\n      0xffff\n        /* \"#utility.yul\":10133:10136   */\n      dup2\n        /* \"#utility.yul\":10130:10145   */\n      gt\n        /* \"#utility.yul\":10127:10168   */\n      iszero\n      tag_223\n      jumpi\n        /* \"#utility.yul\":10148:10166   */\n      tag_224\n      tag_106\n      jump\t// in\n    tag_224:\n        /* \"#utility.yul\":10127:10168   */\n    tag_223:\n        /* \"#utility.yul\":9982:10175   */\n      swap3\n      swap2\n      pop\n      pop\n      jump\t// out\n        /* \"#utility.yul\":10181:10352   */\n    tag_110:\n        /* \"#utility.yul\":10321:10344   */\n      0x496e76616c696420526f6d616e206e756d6572616c0000000000000000000000\n        /* \"#utility.yul\":10317:10318   */\n      0x00\n        /* \"#utility.yul\":10309:10315   */\n      dup3\n        /* \"#utility.yul\":10305:10319   */\n      add\n        /* \"#utility.yul\":10298:10345   */\n      mstore\n        /* \"#utility.yul\":10181:10352   */\n      pop\n      jump\t// out\n        /* \"#utility.yul\":10358:10724   */\n    tag_111:\n        /* \"#utility.yul\":10500:10503   */\n      0x00\n        /* \"#utility.yul\":10521:10588   */\n      tag_227\n        /* \"#utility.yul\":10585:10587   */\n      0x15\n        /* \"#utility.yul\":10580:10583   */\n      dup4\n        /* \"#utility.yul\":10521:10588   */\n      tag_89\n      jump\t// in\n    tag_227:\n        /* \"#utility.yul\":10514:10588   */\n      swap2\n      pop\n        /* \"#utility.yul\":10597:10690   */\n      tag_228\n        /* \"#utility.yul\":10686:10689   */\n      dup3\n        /* \"#utility.yul\":10597:10690   */\n      tag_110\n      jump\t// in\n    tag_228:\n        /* \"#utility.yul\":10715:10717   */\n      0x20\n        /* \"#utility.yul\":10710:10713   */\n      dup3\n        /* \"#utility.yul\":10706:10718   */\n      add\n        /* \"#utility.yul\":10699:10718   */\n      swap1\n      pop\n        /* \"#utility.yul\":10358:10724   */\n      swap2\n      swap1\n      pop\n      jump\t// out\n        /* \"#utility.yul\":10730:11149   */\n    tag_71:\n        /* \"#utility.yul\":10896:10900   */\n      0x00\n        /* \"#utility.yul\":10934:10936   */\n      0x20\n        /* \"#utility.yul\":10923:10932   */\n      dup3\n        /* \"#utility.yul\":10919:10937   */\n      add\n        /* \"#utility.yul\":10911:10937   */\n      swap1\n      pop\n        /* \"#utility.yul\":10983:10992   */\n      dup2\n        /* \"#utility.yul\":10977:10981   */\n      dup2\n        /* \"#utility.yul\":10973:10993   */\n      sub\n        /* \"#utility.yul\":10969:10970   */\n      0x00\n        /* \"#utility.yul\":10958:10967   */\n      dup4\n        /* \"#utility.yul\":10954:10971   */\n      add\n        /* \"#utility.yul\":10947:10994   */\n      mstore\n        /* \"#utility.yul\":11011:11142   */\n      tag_230\n        /* \"#utility.yul\":11137:11141   */\n      dup2\n        /* \"#utility.yul\":11011:11142   */\n      tag_111\n      jump\t// in\n    tag_230:\n        /* \"#utility.yul\":11003:11142   */\n      swap1\n      pop\n        /* \"#utility.yul\":10730:11149   */\n      swap2\n      swap1\n      pop\n      jump\t// out\n        /* \"#utility.yul\":11155:11336   */\n    tag_112:\n        /* \"#utility.yul\":11295:11328   */\n      0x496e76616c696420526f6d616e206e756d6572616c2063686172616374657200\n        /* \"#utility.yul\":11291:11292   */\n      0x00\n        /* \"#utility.yul\":11283:11289   */\n      dup3\n        /* \"#utility.yul\":11279:11293   */\n      add\n        /* \"#utility.yul\":11272:11329   */\n      mstore\n        /* \"#utility.yul\":11155:11336   */\n      pop\n      jump\t// out\n        /* \"#utility.yul\":11342:11708   */\n    tag_113:\n        /* \"#utility.yul\":11484:11487   */\n      0x00\n        /* \"#utility.yul\":11505:11572   */\n      tag_233\n        /* \"#utility.yul\":11569:11571   */\n      0x1f\n        /* \"#utility.yul\":11564:11567   */\n      dup4\n        /* \"#utility.yul\":11505:11572   */\n      tag_89\n      jump\t// in\n    tag_233:\n        /* \"#utility.yul\":11498:11572   */\n      swap2\n      pop\n        /* \"#utility.yul\":11581:11674   */\n      tag_234\n        /* \"#utility.yul\":11670:11673   */\n      dup3\n        /* \"#utility.yul\":11581:11674   */\n      tag_112\n      jump\t// in\n    tag_234:\n        /* \"#utility.yul\":11699:11701   */\n      0x20\n        /* \"#utility.yul\":11694:11697   */\n      dup3\n        /* \"#utility.yul\":11690:11702   */\n      add\n        /* \"#utility.yul\":11683:11702   */\n      swap1\n      pop\n        /* \"#utility.yul\":11342:11708   */\n      swap2\n      swap1\n      pop\n      jump\t// out\n        /* \"#utility.yul\":11714:12133   */\n    tag_81:\n        /* \"#utility.yul\":11880:11884   */\n      0x00\n        /* \"#utility.yul\":11918:11920   */\n      0x20\n        /* \"#utility.yul\":11907:11916   */\n      dup3\n        /* \"#utility.yul\":11903:11921   */\n      add\n        /* \"#utility.yul\":11895:11921   */\n      swap1\n      pop\n        /* \"#utility.yul\":11967:11976   */\n      dup2\n        /* \"#utility.yul\":11961:11965   */\n      dup2\n        /* \"#utility.yul\":11957:11977   */\n      sub\n        /* \"#utility.yul\":11953:11954   */\n      0x00\n        /* \"#utility.yul\":11942:11951   */\n      dup4\n        /* \"#utility.yul\":11938:11955   */\n      add\n        /* \"#utility.yul\":11931:11978   */\n      mstore\n        /* \"#utility.yul\":11995:12126   */\n      tag_236\n        /* \"#utility.yul\":12121:12125   */\n      dup2\n        /* \"#utility.yul\":11995:12126   */\n      tag_113\n      jump\t// in\n    tag_236:\n        /* \"#utility.yul\":11987:12126   */\n      swap1\n      pop\n        /* \"#utility.yul\":11714:12133   */\n      swap2\n      swap1\n      pop\n      jump\t// out\n\n    auxdata: 0xa26469706673582212207a90eddd70a8176c5bcc1ceee90d070d74fb58904db1091d22a90c2dd093b4c964736f6c634300081e0033\n}\n",
				"bytecode": {
					"linkReferences": {},
					"object": "6080604052604051806101c001604052806103e861ffff16815260200161038461ffff1681526020016101f461ffff16815260200161019061ffff168152602001606461ffff168152602001605a61ffff168152602001603261ffff168152602001602861ffff168152602001600a61ffff168152602001600961ffff168152602001600561ffff168152602001600461ffff168152602001600161ffff1681526020015f61ffff168152505f90600e6100ba9291906103fa565b50604051806101c001604052806040518060400160405280600181526020017f4d0000000000000000000000000000000000000000000000000000000000000081525081526020016040518060400160405280600281526020017f434d00000000000000000000000000000000000000000000000000000000000081525081526020016040518060400160405280600181526020017f440000000000000000000000000000000000000000000000000000000000000081525081526020016040518060400160405280600281526020017f434400000000000000000000000000000000000000000000000000000000000081525081526020016040518060400160405280600181526020017f430000000000000000000000000000000000000000000000000000000000000081525081526020016040518060400160405280600281526020017f584300000000000000000000000000000000000000000000000000000000000081525081526020016040518060400160405280600181526020017f4c0000000000000000000000000000000000000000000000000000000000000081525081526020016040518060400160405280600281526020017f584c00000000000000000000000000000000000000000000000000000000000081525081526020016040518060400160405280600181526020017f580000000000000000000000000000000000000000000000000000000000000081525081526020016040518060400160405280600281526020017f495800000000000000000000000000000000000000000000000000000000000081525081526020016040518060400160405280600181526020017f560000000000000000000000000000000000000000000000000000000000000081525081526020016040518060400160405280600281526020017f495600000000000000000000000000000000000000000000000000000000000081525081526020016040518060400160405280600181526020017f4900000000000000000000000000000000000000000000000000000000000000815250815260200160405180602001604052805f815250815250600190600e6103e89291906104a1565b503480156103f4575f5ffd5b5061087f565b828054828255905f5260205f2090600f01601090048101928215610490579160200282015f5b8382111561046057835183826101000a81548161ffff021916908361ffff1602179055509260200192600201602081600101049283019260010302610420565b801561048e5782816101000a81549061ffff0219169055600201602081600101049283019260010302610460565b505b50905061049d91906104f8565b5090565b828054828255905f5260205f209081019282156104e7579160200282015b828111156104e65782518290816104d691906107b0565b50916020019190600101906104bf565b5b5090506104f49190610513565b5090565b5b8082111561050f575f815f9055506001016104f9565b5090565b5b80821115610532575f81816105299190610536565b50600101610514565b5090565b508054610542906105d7565b5f825580601f106105535750610570565b601f0160209004905f5260205f209081019061056f91906104f8565b5b50565b5f81519050919050565b7f4e487b71000000000000000000000000000000000000000000000000000000005f52604160045260245ffd5b7f4e487b71000000000000000000000000000000000000000000000000000000005f52602260045260245ffd5b5f60028204905060018216806105ee57607f821691505b602082108103610601576106006105aa565b5b50919050565b5f819050815f5260205f209050919050565b5f6020601f8301049050919050565b5f82821b905092915050565b5f600883026106637fffffffffffffffffffffffffffffffffffffffffffffffffffffffffffffffff82610628565b61066d8683610628565b95508019841693508086168417925050509392505050565b5f819050919050565b5f819050919050565b5f6106b16106ac6106a784610685565b61068e565b610685565b9050919050565b5f819050919050565b6106ca83610697565b6106de6106d6826106b8565b848454610634565b825550505050565b5f5f905090565b6106f56106e6565b6107008184846106c1565b505050565b5b81811015610723576107185f826106ed565b600181019050610706565b5050565b601f8211156107685761073981610607565b61074284610619565b81016020851015610751578190505b61076561075d85610619565b830182610705565b50505b505050565b5f82821c905092915050565b5f6107885f198460080261076d565b1980831691505092915050565b5f6107a08383610779565b9150826002028217905092915050565b6107b982610573565b67ffffffffffffffff8111156107d2576107d161057d565b5b6107dc82546105d7565b6107e7828285610727565b5f60209050601f831160018114610818575f8415610806578287015190505b6108108582610795565b865550610877565b601f19841661082686610607565b5f5b8281101561084d57848901518255600182019150602085019450602081019050610828565b8683101561086a5784890151610866601f891682610779565b8355505b6001600288020188555050505b505050505050565b610ce08061088c5f395ff3fe608060405234801561000f575f5ffd5b5060043610610034575f3560e01c80631e17ecea14610038578063cb159dfe14610068575b5f5ffd5b610052600480360381019061004d9190610693565b610098565b60405161005f9190610748565b60405180910390f35b610082600480360381019061007d91906107c9565b610207565b60405161008f9190610823565b60405180910390f35b60605f8261ffff161180156100b25750610fa08261ffff16105b6100f1576040517f08c379a00000000000000000000000000000000000000000000000000000000081526004016100e8906108ac565b60405180910390fd5b5f60405180602001604052805f81525090505f5f90505b5f8461ffff1611156101fd578361ffff165f8261ffff16815481106101305761012f6108ca565b5b905f5260205f2090601091828204019190066002029054906101000a900461ffff1661ffff16116101e9578160018261ffff1681548110610174576101736108ca565b5b905f5260205f200160405160200161018d929190610a20565b60405160208183030381529060405291505f8161ffff16815481106101b5576101b46108ca565b5b905f5260205f2090601091828204019190066002029054906101000a900461ffff16846101e29190610a70565b93506101f8565b80806101f490610aa5565b9150505b610108565b8192505050919050565b5f5f83838080601f0160208091040260200160405190810160405280939291908181526020018383808284375f81840152601f19601f8201169050808301925050505050505090505f815111610292576040517f08c379a000000000000000000000000000000000000000000000000000000000815260040161028990610b18565b60405180910390fd5b5f5f90505f825190505f5f90505b8181101561036f575f6102cf8583815181106102bf576102be6108ca565b5b602001015160f81c60f81b6103d3565b90506001836102de9190610b3f565b821015610352575f610318866001856102f79190610b72565b81518110610308576103076108ca565b5b602001015160f81c60f81b6103d3565b90508061ffff168261ffff16101561033d5781856103369190610a70565b945061034c565b81856103499190610ba5565b94505b50610361565b808461035e9190610ba5565b93505b5080806001019150506102a0565b505f8261ffff161180156103885750610fa08261ffff16105b6103c7576040517f08c379a00000000000000000000000000000000000000000000000000000000081526004016103be90610c24565b60405180910390fd5b81935050505092915050565b5f7f4900000000000000000000000000000000000000000000000000000000000000827effffffffffffffffffffffffffffffffffffffffffffffffffffffffffffff191603610426576001905061064f565b7f5600000000000000000000000000000000000000000000000000000000000000827effffffffffffffffffffffffffffffffffffffffffffffffffffffffffffff191603610478576005905061064f565b7f5800000000000000000000000000000000000000000000000000000000000000827effffffffffffffffffffffffffffffffffffffffffffffffffffffffffffff1916036104ca57600a905061064f565b7f4c00000000000000000000000000000000000000000000000000000000000000827effffffffffffffffffffffffffffffffffffffffffffffffffffffffffffff19160361051c576032905061064f565b7f4300000000000000000000000000000000000000000000000000000000000000827effffffffffffffffffffffffffffffffffffffffffffffffffffffffffffff19160361056e576064905061064f565b7f4400000000000000000000000000000000000000000000000000000000000000827effffffffffffffffffffffffffffffffffffffffffffffffffffffffffffff1916036105c1576101f4905061064f565b7f4d00000000000000000000000000000000000000000000000000000000000000827effffffffffffffffffffffffffffffffffffffffffffffffffffffffffffff191603610614576103e8905061064f565b6040517f08c379a000000000000000000000000000000000000000000000000000000000815260040161064690610c8c565b60405180910390fd5b919050565b5f5ffd5b5f5ffd5b5f61ffff82169050919050565b6106728161065c565b811461067c575f5ffd5b50565b5f8135905061068d81610669565b92915050565b5f602082840312156106a8576106a7610654565b5b5f6106b58482850161067f565b91505092915050565b5f81519050919050565b5f82825260208201905092915050565b5f5b838110156106f55780820151818401526020810190506106da565b5f8484015250505050565b5f601f19601f8301169050919050565b5f61071a826106be565b61072481856106c8565b93506107348185602086016106d8565b61073d81610700565b840191505092915050565b5f6020820190508181035f8301526107608184610710565b905092915050565b5f5ffd5b5f5ffd5b5f5ffd5b5f5f83601f84011261078957610788610768565b5b8235905067ffffffffffffffff8111156107a6576107a561076c565b5b6020830191508360018202830111156107c2576107c1610770565b5b9250929050565b5f5f602083850312156107df576107de610654565b5b5f83013567ffffffffffffffff8111156107fc576107fb610658565b5b61080885828601610774565b92509250509250929050565b61081d8161065c565b82525050565b5f6020820190506108365f830184610814565b92915050565b7f4e756d626572206d757374206265206265747765656e203120616e64203339395f8201527f3930000000000000000000000000000000000000000000000000000000000000602082015250565b5f6108966022836106c8565b91506108a18261083c565b604082019050919050565b5f6020820190508181035f8301526108c38161088a565b9050919050565b7f4e487b71000000000000000000000000000000000000000000000000000000005f52603260045260245ffd5b5f81905092915050565b5f61090b826106be565b61091581856108f7565b93506109258185602086016106d8565b80840191505092915050565b7f4e487b71000000000000000000000000000000000000000000000000000000005f52602260045260245ffd5b5f600282049050600182168061097557607f821691505b60208210810361098857610987610931565b5b50919050565b5f819050815f5260205f209050919050565b5f81546109ac8161095e565b6109b681866108f7565b9450600182165f81146109d057600181146109e557610a17565b60ff1983168652811515820286019350610a17565b6109ee8561098e565b5f5b83811015610a0f578154818901526001820191506020810190506109f0565b838801955050505b50505092915050565b5f610a2b8285610901565b9150610a3782846109a0565b91508190509392505050565b7f4e487b71000000000000000000000000000000000000000000000000000000005f52601160045260245ffd5b5f610a7a8261065c565b9150610a858361065c565b9250828203905061ffff811115610a9f57610a9e610a43565b5b92915050565b5f610aaf8261065c565b915061ffff8203610ac357610ac2610a43565b5b600182019050919050565b7f526f6d616e206e756d6572616c2063616e6e6f7420626520656d7074790000005f82015250565b5f610b02601d836106c8565b9150610b0d82610ace565b602082019050919050565b5f6020820190508181035f830152610b2f81610af6565b9050919050565b5f819050919050565b5f610b4982610b36565b9150610b5483610b36565b9250828203905081811115610b6c57610b6b610a43565b5b92915050565b5f610b7c82610b36565b9150610b8783610b36565b9250828201905080821115610b9f57610b9e610a43565b5b92915050565b5f610baf8261065c565b9150610bba8361065c565b9250828201905061ffff811115610bd457610bd3610a43565b5b92915050565b7f496e76616c696420526f6d616e206e756d6572616c00000000000000000000005f82015250565b5f610c0e6015836106c8565b9150610c1982610bda565b602082019050919050565b5f6020820190508181035f830152610c3b81610c02565b9050919050565b7f496e76616c696420526f6d616e206e756d6572616c20636861726163746572005f82015250565b5f610c76601f836106c8565b9150610c8182610c42565b602082019050919050565b5f6020820190508181035f830152610ca381610c6a565b905091905056fea26469706673582212207a90eddd70a8176c5bcc1ceee90d070d74fb58904db1091d22a90c2dd093b4c964736f6c634300081e0033",
					"opcodes": "PUSH1 0x80 PUSH1 0x40 MSTORE PUSH1 0x40 MLOAD DUP1 PUSH2 0x1C0 ADD PUSH1 0x40 MSTORE DUP1 PUSH2 0x3E8 PUSH2 0xFFFF AND DUP2 MSTORE PUSH1 0x20 ADD PUSH2 0x384 PUSH2 0xFFFF AND DUP2 MSTORE PUSH1 0x20 ADD PUSH2 0x1F4 PUSH2 0xFFFF AND DUP2 MSTORE PUSH1 0x20 ADD PUSH2 0x190 PUSH2 0xFFFF AND DUP2 MSTORE PUSH1 0x20 ADD PUSH1 0x64 PUSH2 0xFFFF AND DUP2 MSTORE PUSH1 0x20 ADD PUSH1 0x5A PUSH2 0xFFFF AND DUP2 MSTORE PUSH1 0x20 ADD PUSH1 0x32 PUSH2 0xFFFF AND DUP2 MSTORE PUSH1 0x20 ADD PUSH1 0x28 PUSH2 0xFFFF AND DUP2 MSTORE PUSH1 0x20 ADD PUSH1 0xA PUSH2 0xFFFF AND DUP2 MSTORE PUSH1 0x20 ADD PUSH1 0x9 PUSH2 0xFFFF AND DUP2 MSTORE PUSH1 0x20 ADD PUSH1 0x5 PUSH2 0xFFFF AND DUP2 MSTORE PUSH1 0x20 ADD PUSH1 0x4 PUSH2 0xFFFF AND DUP2 MSTORE PUSH1 0x20 ADD PUSH1 0x1 PUSH2 0xFFFF AND DUP2 MSTORE PUSH1 0x20 ADD PUSH0 PUSH2 0xFFFF AND DUP2 MSTORE POP PUSH0 SWAP1 PUSH1 0xE PUSH2 0xBA SWAP3 SWAP2 SWAP1 PUSH2 0x3FA JUMP JUMPDEST POP PUSH1 0x40 MLOAD DUP1 PUSH2 0x1C0 ADD PUSH1 0x40 MSTORE DUP1 PUSH1 0x40 MLOAD DUP1 PUSH1 0x40 ADD PUSH1 0x40 MSTORE DUP1 PUSH1 0x1 DUP2 MSTORE PUSH1 0x20 ADD PUSH32 0x4D00000000000000000000000000000000000000000000000000000000000000 DUP2 MSTORE POP DUP2 MSTORE PUSH1 0x20 ADD PUSH1 0x40 MLOAD DUP1 PUSH1 0x40 ADD PUSH1 0x40 MSTORE DUP1 PUSH1 0x2 DUP2 MSTORE PUSH1 0x20 ADD PUSH32 0x434D000000000000000000000000000000000000000000000000000000000000 DUP2 MSTORE POP DUP2 MSTORE PUSH1 0x20 ADD PUSH1 0x40 MLOAD DUP1 PUSH1 0x40 ADD PUSH1 0x40 MSTORE DUP1 PUSH1 0x1 DUP2 MSTORE PUSH1 0x20 ADD PUSH32 0x4400000000000000000000000000000000000000000000000000000000000000 DUP2 MSTORE POP DUP2 MSTORE PUSH1 0x20 ADD PUSH1 0x40 MLOAD DUP1 PUSH1 0x40 ADD PUSH1 0x40 MSTORE DUP1 PUSH1 0x2 DUP2 MSTORE PUSH1 0x20 ADD PUSH32 0x4344000000000000000000000000000000000000000000000000000000000000 DUP2 MSTORE POP DUP2 MSTORE PUSH1 0x20 ADD PUSH1 0x40 MLOAD DUP1 PUSH1 0x40 ADD PUSH1 0x40 MSTORE DUP1 PUSH1 0x1 DUP2 MSTORE PUSH1 0x20 ADD PUSH32 0x4300000000000000000000000000000000000000000000000000000000000000 DUP2 MSTORE POP DUP2 MSTORE PUSH1 0x20 ADD PUSH1 0x40 MLOAD DUP1 PUSH1 0x40 ADD PUSH1 0x40 MSTORE DUP1 PUSH1 0x2 DUP2 MSTORE PUSH1 0x20 ADD PUSH32 0x5843000000000000000000000000000000000000000000000000000000000000 DUP2 MSTORE POP DUP2 MSTORE PUSH1 0x20 ADD PUSH1 0x40 MLOAD DUP1 PUSH1 0x40 ADD PUSH1 0x40 MSTORE DUP1 PUSH1 0x1 DUP2 MSTORE PUSH1 0x20 ADD PUSH32 0x4C00000000000000000000000000000000000000000000000000000000000000 DUP2 MSTORE POP DUP2 MSTORE PUSH1 0x20 ADD PUSH1 0x40 MLOAD DUP1 PUSH1 0x40 ADD PUSH1 0x40 MSTORE DUP1 PUSH1 0x2 DUP2 MSTORE PUSH1 0x20 ADD PUSH32 0x584C000000000000000000000000000000000000000000000000000000000000 DUP2 MSTORE POP DUP2 MSTORE PUSH1 0x20 ADD PUSH1 0x40 MLOAD DUP1 PUSH1 0x40 ADD PUSH1 0x40 MSTORE DUP1 PUSH1 0x1 DUP2 MSTORE PUSH1 0x20 ADD PUSH32 0x5800000000000000000000000000000000000000000000000000000000000000 DUP2 MSTORE POP DUP2 MSTORE PUSH1 0x20 ADD PUSH1 0x40 MLOAD DUP1 PUSH1 0x40 ADD PUSH1 0x40 MSTORE DUP1 PUSH1 0x2 DUP2 MSTORE PUSH1 0x20 ADD PUSH32 0x4958000000000000000000000000000000000000000000000000000000000000 DUP2 MSTORE POP DUP2 MSTORE PUSH1 0x20 ADD PUSH1 0x40 MLOAD DUP1 PUSH1 0x40 ADD PUSH1 0x40 MSTORE DUP1 PUSH1 0x1 DUP2 MSTORE PUSH1 0x20 ADD PUSH32 0x5600000000000000000000000000000000000000000000000000000000000000 DUP2 MSTORE POP DUP2 MSTORE PUSH1 0x20 ADD PUSH1 0x40 MLOAD DUP1 PUSH1 0x40 ADD PUSH1 0x40 MSTORE DUP1 PUSH1 0x2 DUP2 MSTORE PUSH1 0x20 ADD PUSH32 0x4956000000000000000000000000000000000000000000000000000000000000 DUP2 MSTORE POP DUP2 MSTORE PUSH1 0x20 ADD PUSH1 0x40 MLOAD DUP1 PUSH1 0x40 ADD PUSH1 0x40 MSTORE DUP1 PUSH1 0x1 DUP2 MSTORE PUSH1 0x20 ADD PUSH32 0x4900000000000000000000000000000000000000000000000000000000000000 DUP2 MSTORE POP DUP2 MSTORE PUSH1 0x20 ADD PUSH1 0x40 MLOAD DUP1 PUSH1 0x20 ADD PUSH1 0x40 MSTORE DUP1 PUSH0 DUP2 MSTORE POP DUP2 MSTORE POP PUSH1 0x1 SWAP1 PUSH1 0xE PUSH2 0x3E8 SWAP3 SWAP2 SWAP1 PUSH2 0x4A1 JUMP JUMPDEST POP CALLVALUE DUP1 ISZERO PUSH2 0x3F4 JUMPI PUSH0 PUSH0 REVERT JUMPDEST POP PUSH2 0x87F JUMP JUMPDEST DUP3 DUP1 SLOAD DUP3 DUP3 SSTORE SWAP1 PUSH0 MSTORE PUSH1 0x20 PUSH0 KECCAK256 SWAP1 PUSH1 0xF ADD PUSH1 0x10 SWAP1 DIV DUP2 ADD SWAP3 DUP3 ISZERO PUSH2 0x490 JUMPI SWAP2 PUSH1 0x20 MUL DUP3 ADD PUSH0 JUMPDEST DUP4 DUP3 GT ISZERO PUSH2 0x460 JUMPI DUP4 MLOAD DUP4 DUP3 PUSH2 0x100 EXP DUP2 SLOAD DUP2 PUSH2 0xFFFF MUL NOT AND SWAP1 DUP4 PUSH2 0xFFFF AND MUL OR SWAP1 SSTORE POP SWAP3 PUSH1 0x20 ADD SWAP3 PUSH1 0x2 ADD PUSH1 0x20 DUP2 PUSH1 0x1 ADD DIV SWAP3 DUP4 ADD SWAP3 PUSH1 0x1 SUB MUL PUSH2 0x420 JUMP JUMPDEST DUP1 ISZERO PUSH2 0x48E JUMPI DUP3 DUP2 PUSH2 0x100 EXP DUP2 SLOAD SWAP1 PUSH2 0xFFFF MUL NOT AND SWAP1 SSTORE PUSH1 0x2 ADD PUSH1 0x20 DUP2 PUSH1 0x1 ADD DIV SWAP3 DUP4 ADD SWAP3 PUSH1 0x1 SUB MUL PUSH2 0x460 JUMP JUMPDEST POP JUMPDEST POP SWAP1 POP PUSH2 0x49D SWAP2 SWAP1 PUSH2 0x4F8 JUMP JUMPDEST POP SWAP1 JUMP JUMPDEST DUP3 DUP1 SLOAD DUP3 DUP3 SSTORE SWAP1 PUSH0 MSTORE PUSH1 0x20 PUSH0 KECCAK256 SWAP1 DUP2 ADD SWAP3 DUP3 ISZERO PUSH2 0x4E7 JUMPI SWAP2 PUSH1 0x20 MUL DUP3 ADD JUMPDEST DUP3 DUP2 GT ISZERO PUSH2 0x4E6 JUMPI DUP3 MLOAD DUP3 SWAP1 DUP2 PUSH2 0x4D6 SWAP2 SWAP1 PUSH2 0x7B0 JUMP JUMPDEST POP SWAP2 PUSH1 0x20 ADD SWAP2 SWAP1 PUSH1 0x1 ADD SWAP1 PUSH2 0x4BF JUMP JUMPDEST JUMPDEST POP SWAP1 POP PUSH2 0x4F4 SWAP2 SWAP1 PUSH2 0x513 JUMP JUMPDEST POP SWAP1 JUMP JUMPDEST JUMPDEST DUP1 DUP3 GT ISZERO PUSH2 0x50F JUMPI PUSH0 DUP2 PUSH0 SWAP1 SSTORE POP PUSH1 0x1 ADD PUSH2 0x4F9 JUMP JUMPDEST POP SWAP1 JUMP JUMPDEST JUMPDEST DUP1 DUP3 GT ISZERO PUSH2 0x532 JUMPI PUSH0 DUP2 DUP2 PUSH2 0x529 SWAP2 SWAP1 PUSH2 0x536 JUMP JUMPDEST POP PUSH1 0x1 ADD PUSH2 0x514 JUMP JUMPDEST POP SWAP1 JUMP JUMPDEST POP DUP1 SLOAD PUSH2 0x542 SWAP1 PUSH2 0x5D7 JUMP JUMPDEST PUSH0 DUP3 SSTORE DUP1 PUSH1 0x1F LT PUSH2 0x553 JUMPI POP PUSH2 0x570 JUMP JUMPDEST PUSH1 0x1F ADD PUSH1 0x20 SWAP1 DIV SWAP1 PUSH0 MSTORE PUSH1 0x20 PUSH0 KECCAK256 SWAP1 DUP2 ADD SWAP1 PUSH2 0x56F SWAP2 SWAP1 PUSH2 0x4F8 JUMP JUMPDEST JUMPDEST POP JUMP JUMPDEST PUSH0 DUP2 MLOAD SWAP1 POP SWAP2 SWAP1 POP JUMP JUMPDEST PUSH32 0x4E487B7100000000000000000000000000000000000000000000000000000000 PUSH0 MSTORE PUSH1 0x41 PUSH1 0x4 MSTORE PUSH1 0x24 PUSH0 REVERT JUMPDEST PUSH32 0x4E487B7100000000000000000000000000000000000000000000000000000000 PUSH0 MSTORE PUSH1 0x22 PUSH1 0x4 MSTORE PUSH1 0x24 PUSH0 REVERT JUMPDEST PUSH0 PUSH1 0x2 DUP3 DIV SWAP1 POP PUSH1 0x1 DUP3 AND DUP1 PUSH2 0x5EE JUMPI PUSH1 0x7F DUP3 AND SWAP2 POP JUMPDEST PUSH1 0x20 DUP3 LT DUP2 SUB PUSH2 0x601 JUMPI PUSH2 0x600 PUSH2 0x5AA JUMP JUMPDEST JUMPDEST POP SWAP2 SWAP1 POP JUMP JUMPDEST PUSH0 DUP2 SWAP1 POP DUP2 PUSH0 MSTORE PUSH1 0x20 PUSH0 KECCAK256 SWAP1 POP SWAP2 SWAP1 POP JUMP JUMPDEST PUSH0 PUSH1 0x20 PUSH1 0x1F DUP4 ADD DIV SWAP1 POP SWAP2 SWAP1 POP JUMP JUMPDEST PUSH0 DUP3 DUP3 SHL SWAP1 POP SWAP3 SWAP2 POP POP JUMP JUMPDEST PUSH0 PUSH1 0x8 DUP4 MUL PUSH2 0x663 PUSH32 0xFFFFFFFFFFFFFFFFFFFFFFFFFFFFFFFFFFFFFFFFFFFFFFFFFFFFFFFFFFFFFFFF DUP3 PUSH2 0x628 JUMP JUMPDEST PUSH2 0x66D DUP7 DUP4 PUSH2 0x628 JUMP JUMPDEST SWAP6 POP DUP1 NOT DUP5 AND SWAP4 POP DUP1 DUP7 AND DUP5 OR SWAP3 POP POP POP SWAP4 SWAP3 POP POP POP JUMP JUMPDEST PUSH0 DUP2 SWAP1 POP SWAP2 SWAP1 POP JUMP JUMPDEST PUSH0 DUP2 SWAP1 POP SWAP2 SWAP1 POP JUMP JUMPDEST PUSH0 PUSH2 0x6B1 PUSH2 0x6AC PUSH2 0x6A7 DUP5 PUSH2 0x685 JUMP JUMPDEST PUSH2 0x68E JUMP JUMPDEST PUSH2 0x685 JUMP JUMPDEST SWAP1 POP SWAP2 SWAP1 POP JUMP JUMPDEST PUSH0 DUP2 SWAP1 POP SWAP2 SWAP1 POP JUMP JUMPDEST PUSH2 0x6CA DUP4 PUSH2 0x697 JUMP JUMPDEST PUSH2 0x6DE PUSH2 0x6D6 DUP3 PUSH2 0x6B8 JUMP JUMPDEST DUP5 DUP5 SLOAD PUSH2 0x634 JUMP JUMPDEST DUP3 SSTORE POP POP POP POP JUMP JUMPDEST PUSH0 PUSH0 SWAP1 POP SWAP1 JUMP JUMPDEST PUSH2 0x6F5 PUSH2 0x6E6 JUMP JUMPDEST PUSH2 0x700 DUP2 DUP5 DUP5 PUSH2 0x6C1 JUMP JUMPDEST POP POP POP JUMP JUMPDEST JUMPDEST DUP2 DUP2 LT ISZERO PUSH2 0x723 JUMPI PUSH2 0x718 PUSH0 DUP3 PUSH2 0x6ED JUMP JUMPDEST PUSH1 0x1 DUP2 ADD SWAP1 POP PUSH2 0x706 JUMP JUMPDEST POP POP JUMP JUMPDEST PUSH1 0x1F DUP3 GT ISZERO PUSH2 0x768 JUMPI PUSH2 0x739 DUP2 PUSH2 0x607 JUMP JUMPDEST PUSH2 0x742 DUP5 PUSH2 0x619 JUMP JUMPDEST DUP2 ADD PUSH1 0x20 DUP6 LT ISZERO PUSH2 0x751 JUMPI DUP2 SWAP1 POP JUMPDEST PUSH2 0x765 PUSH2 0x75D DUP6 PUSH2 0x619 JUMP JUMPDEST DUP4 ADD DUP3 PUSH2 0x705 JUMP JUMPDEST POP POP JUMPDEST POP POP POP JUMP JUMPDEST PUSH0 DUP3 DUP3 SHR SWAP1 POP SWAP3 SWAP2 POP POP JUMP JUMPDEST PUSH0 PUSH2 0x788 PUSH0 NOT DUP5 PUSH1 0x8 MUL PUSH2 0x76D JUMP JUMPDEST NOT DUP1 DUP4 AND SWAP2 POP POP SWAP3 SWAP2 POP POP JUMP JUMPDEST PUSH0 PUSH2 0x7A0 DUP4 DUP4 PUSH2 0x779 JUMP JUMPDEST SWAP2 POP DUP3 PUSH1 0x2 MUL DUP3 OR SWAP1 POP SWAP3 SWAP2 POP POP JUMP JUMPDEST PUSH2 0x7B9 DUP3 PUSH2 0x573 JUMP JUMPDEST PUSH8 0xFFFFFFFFFFFFFFFF DUP2 GT ISZERO PUSH2 0x7D2 JUMPI PUSH2 0x7D1 PUSH2 0x57D JUMP JUMPDEST JUMPDEST PUSH2 0x7DC DUP3 SLOAD PUSH2 0x5D7 JUMP JUMPDEST PUSH2 0x7E7 DUP3 DUP3 DUP6 PUSH2 0x727 JUMP JUMPDEST PUSH0 PUSH1 0x20 SWAP1 POP PUSH1 0x1F DUP4 GT PUSH1 0x1 DUP2 EQ PUSH2 0x818 JUMPI PUSH0 DUP5 ISZERO PUSH2 0x806 JUMPI DUP3 DUP8 ADD MLOAD SWAP1 POP JUMPDEST PUSH2 0x810 DUP6 DUP3 PUSH2 0x795 JUMP JUMPDEST DUP7 SSTORE POP PUSH2 0x877 JUMP JUMPDEST PUSH1 0x1F NOT DUP5 AND PUSH2 0x826 DUP7 PUSH2 0x607 JUMP JUMPDEST PUSH0 JUMPDEST DUP3 DUP2 LT ISZERO PUSH2 0x84D JUMPI DUP5 DUP10 ADD MLOAD DUP3 SSTORE PUSH1 0x1 DUP3 ADD SWAP2 POP PUSH1 0x20 DUP6 ADD SWAP5 POP PUSH1 0x20 DUP2 ADD SWAP1 POP PUSH2 0x828 JUMP JUMPDEST DUP7 DUP4 LT ISZERO PUSH2 0x86A JUMPI DUP5 DUP10 ADD MLOAD PUSH2 0x866 PUSH1 0x1F DUP10 AND DUP3 PUSH2 0x779 JUMP JUMPDEST DUP4 SSTORE POP JUMPDEST PUSH1 0x1 PUSH1 0x2 DUP9 MUL ADD DUP9 SSTORE POP POP POP JUMPDEST POP POP POP POP POP POP JUMP JUMPDEST PUSH2 0xCE0 DUP1 PUSH2 0x88C PUSH0 CODECOPY PUSH0 RETURN INVALID PUSH1 0x80 PUSH1 0x40 MSTORE CALLVALUE DUP1 ISZERO PUSH2 0xF JUMPI PUSH0 PUSH0 REVERT JUMPDEST POP PUSH1 0x4 CALLDATASIZE LT PUSH2 0x34 JUMPI PUSH0 CALLDATALOAD PUSH1 0xE0 SHR DUP1 PUSH4 0x1E17ECEA EQ PUSH2 0x38 JUMPI DUP1 PUSH4 0xCB159DFE EQ PUSH2 0x68 JUMPI JUMPDEST PUSH0 PUSH0 REVERT JUMPDEST PUSH2 0x52 PUSH1 0x4 DUP1 CALLDATASIZE SUB DUP2 ADD SWAP1 PUSH2 0x4D SWAP2 SWAP1 PUSH2 0x693 JUMP JUMPDEST PUSH2 0x98 JUMP JUMPDEST PUSH1 0x40 MLOAD PUSH2 0x5F SWAP2 SWAP1 PUSH2 0x748 JUMP JUMPDEST PUSH1 0x40 MLOAD DUP1 SWAP2 SUB SWAP1 RETURN JUMPDEST PUSH2 0x82 PUSH1 0x4 DUP1 CALLDATASIZE SUB DUP2 ADD SWAP1 PUSH2 0x7D SWAP2 SWAP1 PUSH2 0x7C9 JUMP JUMPDEST PUSH2 0x207 JUMP JUMPDEST PUSH1 0x40 MLOAD PUSH2 0x8F SWAP2 SWAP1 PUSH2 0x823 JUMP JUMPDEST PUSH1 0x40 MLOAD DUP1 SWAP2 SUB SWAP1 RETURN JUMPDEST PUSH1 0x60 PUSH0 DUP3 PUSH2 0xFFFF AND GT DUP1 ISZERO PUSH2 0xB2 JUMPI POP PUSH2 0xFA0 DUP3 PUSH2 0xFFFF AND LT JUMPDEST PUSH2 0xF1 JUMPI PUSH1 0x40 MLOAD PUSH32 0x8C379A000000000000000000000000000000000000000000000000000000000 DUP2 MSTORE PUSH1 0x4 ADD PUSH2 0xE8 SWAP1 PUSH2 0x8AC JUMP JUMPDEST PUSH1 0x40 MLOAD DUP1 SWAP2 SUB SWAP1 REVERT JUMPDEST PUSH0 PUSH1 0x40 MLOAD DUP1 PUSH1 0x20 ADD PUSH1 0x40 MSTORE DUP1 PUSH0 DUP2 MSTORE POP SWAP1 POP PUSH0 PUSH0 SWAP1 POP JUMPDEST PUSH0 DUP5 PUSH2 0xFFFF AND GT ISZERO PUSH2 0x1FD JUMPI DUP4 PUSH2 0xFFFF AND PUSH0 DUP3 PUSH2 0xFFFF AND DUP2 SLOAD DUP2 LT PUSH2 0x130 JUMPI PUSH2 0x12F PUSH2 0x8CA JUMP JUMPDEST JUMPDEST SWAP1 PUSH0 MSTORE PUSH1 0x20 PUSH0 KECCAK256 SWAP1 PUSH1 0x10 SWAP2 DUP3 DUP3 DIV ADD SWAP2 SWAP1 MOD PUSH1 0x2 MUL SWAP1 SLOAD SWAP1 PUSH2 0x100 EXP SWAP1 DIV PUSH2 0xFFFF AND PUSH2 0xFFFF AND GT PUSH2 0x1E9 JUMPI DUP2 PUSH1 0x1 DUP3 PUSH2 0xFFFF AND DUP2 SLOAD DUP2 LT PUSH2 0x174 JUMPI PUSH2 0x173 PUSH2 0x8CA JUMP JUMPDEST JUMPDEST SWAP1 PUSH0 MSTORE PUSH1 0x20 PUSH0 KECCAK256 ADD PUSH1 0x40 MLOAD PUSH1 0x20 ADD PUSH2 0x18D SWAP3 SWAP2 SWAP1 PUSH2 0xA20 JUMP JUMPDEST PUSH1 0x40 MLOAD PUSH1 0x20 DUP2 DUP4 SUB SUB DUP2 MSTORE SWAP1 PUSH1 0x40 MSTORE SWAP2 POP PUSH0 DUP2 PUSH2 0xFFFF AND DUP2 SLOAD DUP2 LT PUSH2 0x1B5 JUMPI PUSH2 0x1B4 PUSH2 0x8CA JUMP JUMPDEST JUMPDEST SWAP1 PUSH0 MSTORE PUSH1 0x20 PUSH0 KECCAK256 SWAP1 PUSH1 0x10 SWAP2 DUP3 DUP3 DIV ADD SWAP2 SWAP1 MOD PUSH1 0x2 MUL SWAP1 SLOAD SWAP1 PUSH2 0x100 EXP SWAP1 DIV PUSH2 0xFFFF AND DUP5 PUSH2 0x1E2 SWAP2 SWAP1 PUSH2 0xA70 JUMP JUMPDEST SWAP4 POP PUSH2 0x1F8 JUMP JUMPDEST DUP1 DUP1 PUSH2 0x1F4 SWAP1 PUSH2 0xAA5 JUMP JUMPDEST SWAP2 POP POP JUMPDEST PUSH2 0x108 JUMP JUMPDEST DUP2 SWAP3 POP POP POP SWAP2 SWAP1 POP JUMP JUMPDEST PUSH0 PUSH0 DUP4 DUP4 DUP1 DUP1 PUSH1 0x1F ADD PUSH1 0x20 DUP1 SWAP2 DIV MUL PUSH1 0x20 ADD PUSH1 0x40 MLOAD SWAP1 DUP2 ADD PUSH1 0x40 MSTORE DUP1 SWAP4 SWAP3 SWAP2 SWAP1 DUP2 DUP2 MSTORE PUSH1 0x20 ADD DUP4 DUP4 DUP1 DUP3 DUP5 CALLDATACOPY PUSH0 DUP2 DUP5 ADD MSTORE PUSH1 0x1F NOT PUSH1 0x1F DUP3 ADD AND SWAP1 POP DUP1 DUP4 ADD SWAP3 POP POP POP POP POP POP POP SWAP1 POP PUSH0 DUP2 MLOAD GT PUSH2 0x292 JUMPI PUSH1 0x40 MLOAD PUSH32 0x8C379A000000000000000000000000000000000000000000000000000000000 DUP2 MSTORE PUSH1 0x4 ADD PUSH2 0x289 SWAP1 PUSH2 0xB18 JUMP JUMPDEST PUSH1 0x40 MLOAD DUP1 SWAP2 SUB SWAP1 REVERT JUMPDEST PUSH0 PUSH0 SWAP1 POP PUSH0 DUP3 MLOAD SWAP1 POP PUSH0 PUSH0 SWAP1 POP JUMPDEST DUP2 DUP2 LT ISZERO PUSH2 0x36F JUMPI PUSH0 PUSH2 0x2CF DUP6 DUP4 DUP2 MLOAD DUP2 LT PUSH2 0x2BF JUMPI PUSH2 0x2BE PUSH2 0x8CA JUMP JUMPDEST JUMPDEST PUSH1 0x20 ADD ADD MLOAD PUSH1 0xF8 SHR PUSH1 0xF8 SHL PUSH2 0x3D3 JUMP JUMPDEST SWAP1 POP PUSH1 0x1 DUP4 PUSH2 0x2DE SWAP2 SWAP1 PUSH2 0xB3F JUMP JUMPDEST DUP3 LT ISZERO PUSH2 0x352 JUMPI PUSH0 PUSH2 0x318 DUP7 PUSH1 0x1 DUP6 PUSH2 0x2F7 SWAP2 SWAP1 PUSH2 0xB72 JUMP JUMPDEST DUP2 MLOAD DUP2 LT PUSH2 0x308 JUMPI PUSH2 0x307 PUSH2 0x8CA JUMP JUMPDEST JUMPDEST PUSH1 0x20 ADD ADD MLOAD PUSH1 0xF8 SHR PUSH1 0xF8 SHL PUSH2 0x3D3 JUMP JUMPDEST SWAP1 POP DUP1 PUSH2 0xFFFF AND DUP3 PUSH2 0xFFFF AND LT ISZERO PUSH2 0x33D JUMPI DUP2 DUP6 PUSH2 0x336 SWAP2 SWAP1 PUSH2 0xA70 JUMP JUMPDEST SWAP5 POP PUSH2 0x34C JUMP JUMPDEST DUP2 DUP6 PUSH2 0x349 SWAP2 SWAP1 PUSH2 0xBA5 JUMP JUMPDEST SWAP5 POP JUMPDEST POP PUSH2 0x361 JUMP JUMPDEST DUP1 DUP5 PUSH2 0x35E SWAP2 SWAP1 PUSH2 0xBA5 JUMP JUMPDEST SWAP4 POP JUMPDEST POP DUP1 DUP1 PUSH1 0x1 ADD SWAP2 POP POP PUSH2 0x2A0 JUMP JUMPDEST POP PUSH0 DUP3 PUSH2 0xFFFF AND GT DUP1 ISZERO PUSH2 0x388 JUMPI POP PUSH2 0xFA0 DUP3 PUSH2 0xFFFF AND LT JUMPDEST PUSH2 0x3C7 JUMPI PUSH1 0x40 MLOAD PUSH32 0x8C379A000000000000000000000000000000000000000000000000000000000 DUP2 MSTORE PUSH1 0x4 ADD PUSH2 0x3BE SWAP1 PUSH2 0xC24 JUMP JUMPDEST PUSH1 0x40 MLOAD DUP1 SWAP2 SUB SWAP1 REVERT JUMPDEST DUP2 SWAP4 POP POP POP POP SWAP3 SWAP2 POP POP JUMP JUMPDEST PUSH0 PUSH32 0x4900000000000000000000000000000000000000000000000000000000000000 DUP3 PUSH31 0xFFFFFFFFFFFFFFFFFFFFFFFFFFFFFFFFFFFFFFFFFFFFFFFFFFFFFFFFFFFFFF NOT AND SUB PUSH2 0x426 JUMPI PUSH1 0x1 SWAP1 POP PUSH2 0x64F JUMP JUMPDEST PUSH32 0x5600000000000000000000000000000000000000000000000000000000000000 DUP3 PUSH31 0xFFFFFFFFFFFFFFFFFFFFFFFFFFFFFFFFFFFFFFFFFFFFFFFFFFFFFFFFFFFFFF NOT AND SUB PUSH2 0x478 JUMPI PUSH1 0x5 SWAP1 POP PUSH2 0x64F JUMP JUMPDEST PUSH32 0x5800000000000000000000000000000000000000000000000000000000000000 DUP3 PUSH31 0xFFFFFFFFFFFFFFFFFFFFFFFFFFFFFFFFFFFFFFFFFFFFFFFFFFFFFFFFFFFFFF NOT AND SUB PUSH2 0x4CA JUMPI PUSH1 0xA SWAP1 POP PUSH2 0x64F JUMP JUMPDEST PUSH32 0x4C00000000000000000000000000000000000000000000000000000000000000 DUP3 PUSH31 0xFFFFFFFFFFFFFFFFFFFFFFFFFFFFFFFFFFFFFFFFFFFFFFFFFFFFFFFFFFFFFF NOT AND SUB PUSH2 0x51C JUMPI PUSH1 0x32 SWAP1 POP PUSH2 0x64F JUMP JUMPDEST PUSH32 0x4300000000000000000000000000000000000000000000000000000000000000 DUP3 PUSH31 0xFFFFFFFFFFFFFFFFFFFFFFFFFFFFFFFFFFFFFFFFFFFFFFFFFFFFFFFFFFFFFF NOT AND SUB PUSH2 0x56E JUMPI PUSH1 0x64 SWAP1 POP PUSH2 0x64F JUMP JUMPDEST PUSH32 0x4400000000000000000000000000000000000000000000000000000000000000 DUP3 PUSH31 0xFFFFFFFFFFFFFFFFFFFFFFFFFFFFFFFFFFFFFFFFFFFFFFFFFFFFFFFFFFFFFF NOT AND SUB PUSH2 0x5C1 JUMPI PUSH2 0x1F4 SWAP1 POP PUSH2 0x64F JUMP JUMPDEST PUSH32 0x4D00000000000000000000000000000000000000000000000000000000000000 DUP3 PUSH31 0xFFFFFFFFFFFFFFFFFFFFFFFFFFFFFFFFFFFFFFFFFFFFFFFFFFFFFFFFFFFFFF NOT AND SUB PUSH2 0x614 JUMPI PUSH2 0x3E8 SWAP1 POP PUSH2 0x64F JUMP JUMPDEST PUSH1 0x40 MLOAD PUSH32 0x8C379A000000000000000000000000000000000000000000000000000000000 DUP2 MSTORE PUSH1 0x4 ADD PUSH2 0x646 SWAP1 PUSH2 0xC8C JUMP JUMPDEST PUSH1 0x40 MLOAD DUP1 SWAP2 SUB SWAP1 REVERT JUMPDEST SWAP2 SWAP1 POP JUMP JUMPDEST PUSH0 PUSH0 REVERT JUMPDEST PUSH0 PUSH0 REVERT JUMPDEST PUSH0 PUSH2 0xFFFF DUP3 AND SWAP1 POP SWAP2 SWAP1 POP JUMP JUMPDEST PUSH2 0x672 DUP2 PUSH2 0x65C JUMP JUMPDEST DUP2 EQ PUSH2 0x67C JUMPI PUSH0 PUSH0 REVERT JUMPDEST POP JUMP JUMPDEST PUSH0 DUP2 CALLDATALOAD SWAP1 POP PUSH2 0x68D DUP2 PUSH2 0x669 JUMP JUMPDEST SWAP3 SWAP2 POP POP JUMP JUMPDEST PUSH0 PUSH1 0x20 DUP3 DUP5 SUB SLT ISZERO PUSH2 0x6A8 JUMPI PUSH2 0x6A7 PUSH2 0x654 JUMP JUMPDEST JUMPDEST PUSH0 PUSH2 0x6B5 DUP5 DUP3 DUP6 ADD PUSH2 0x67F JUMP JUMPDEST SWAP2 POP POP SWAP3 SWAP2 POP POP JUMP JUMPDEST PUSH0 DUP2 MLOAD SWAP1 POP SWAP2 SWAP1 POP JUMP JUMPDEST PUSH0 DUP3 DUP3 MSTORE PUSH1 0x20 DUP3 ADD SWAP1 POP SWAP3 SWAP2 POP POP JUMP JUMPDEST PUSH0 JUMPDEST DUP4 DUP2 LT ISZERO PUSH2 0x6F5 JUMPI DUP1 DUP3 ADD MLOAD DUP2 DUP5 ADD MSTORE PUSH1 0x20 DUP2 ADD SWAP1 POP PUSH2 0x6DA JUMP JUMPDEST PUSH0 DUP5 DUP5 ADD MSTORE POP POP POP POP JUMP JUMPDEST PUSH0 PUSH1 0x1F NOT PUSH1 0x1F DUP4 ADD AND SWAP1 POP SWAP2 SWAP1 POP JUMP JUMPDEST PUSH0 PUSH2 0x71A DUP3 PUSH2 0x6BE JUMP JUMPDEST PUSH2 0x724 DUP2 DUP6 PUSH2 0x6C8 JUMP JUMPDEST SWAP4 POP PUSH2 0x734 DUP2 DUP6 PUSH1 0x20 DUP7 ADD PUSH2 0x6D8 JUMP JUMPDEST PUSH2 0x73D DUP2 PUSH2 0x700 JUMP JUMPDEST DUP5 ADD SWAP2 POP POP SWAP3 SWAP2 POP POP JUMP JUMPDEST PUSH0 PUSH1 0x20 DUP3 ADD SWAP1 POP DUP2 DUP2 SUB PUSH0 DUP4 ADD MSTORE PUSH2 0x760 DUP2 DUP5 PUSH2 0x710 JUMP JUMPDEST SWAP1 POP SWAP3 SWAP2 POP POP JUMP JUMPDEST PUSH0 PUSH0 REVERT JUMPDEST PUSH0 PUSH0 REVERT JUMPDEST PUSH0 PUSH0 REVERT JUMPDEST PUSH0 PUSH0 DUP4 PUSH1 0x1F DUP5 ADD SLT PUSH2 0x789 JUMPI PUSH2 0x788 PUSH2 0x768 JUMP JUMPDEST JUMPDEST DUP3 CALLDATALOAD SWAP1 POP PUSH8 0xFFFFFFFFFFFFFFFF DUP2 GT ISZERO PUSH2 0x7A6 JUMPI PUSH2 0x7A5 PUSH2 0x76C JUMP JUMPDEST JUMPDEST PUSH1 0x20 DUP4 ADD SWAP2 POP DUP4 PUSH1 0x1 DUP3 MUL DUP4 ADD GT ISZERO PUSH2 0x7C2 JUMPI PUSH2 0x7C1 PUSH2 0x770 JUMP JUMPDEST JUMPDEST SWAP3 POP SWAP3 SWAP1 POP JUMP JUMPDEST PUSH0 PUSH0 PUSH1 0x20 DUP4 DUP6 SUB SLT ISZERO PUSH2 0x7DF JUMPI PUSH2 0x7DE PUSH2 0x654 JUMP JUMPDEST JUMPDEST PUSH0 DUP4 ADD CALLDATALOAD PUSH8 0xFFFFFFFFFFFFFFFF DUP2 GT ISZERO PUSH2 0x7FC JUMPI PUSH2 0x7FB PUSH2 0x658 JUMP JUMPDEST JUMPDEST PUSH2 0x808 DUP6 DUP3 DUP7 ADD PUSH2 0x774 JUMP JUMPDEST SWAP3 POP SWAP3 POP POP SWAP3 POP SWAP3 SWAP1 POP JUMP JUMPDEST PUSH2 0x81D DUP2 PUSH2 0x65C JUMP JUMPDEST DUP3 MSTORE POP POP JUMP JUMPDEST PUSH0 PUSH1 0x20 DUP3 ADD SWAP1 POP PUSH2 0x836 PUSH0 DUP4 ADD DUP5 PUSH2 0x814 JUMP JUMPDEST SWAP3 SWAP2 POP POP JUMP JUMPDEST PUSH32 0x4E756D626572206D757374206265206265747765656E203120616E6420333939 PUSH0 DUP3 ADD MSTORE PUSH32 0x3930000000000000000000000000000000000000000000000000000000000000 PUSH1 0x20 DUP3 ADD MSTORE POP JUMP JUMPDEST PUSH0 PUSH2 0x896 PUSH1 0x22 DUP4 PUSH2 0x6C8 JUMP JUMPDEST SWAP2 POP PUSH2 0x8A1 DUP3 PUSH2 0x83C JUMP JUMPDEST PUSH1 0x40 DUP3 ADD SWAP1 POP SWAP2 SWAP1 POP JUMP JUMPDEST PUSH0 PUSH1 0x20 DUP3 ADD SWAP1 POP DUP2 DUP2 SUB PUSH0 DUP4 ADD MSTORE PUSH2 0x8C3 DUP2 PUSH2 0x88A JUMP JUMPDEST SWAP1 POP SWAP2 SWAP1 POP JUMP JUMPDEST PUSH32 0x4E487B7100000000000000000000000000000000000000000000000000000000 PUSH0 MSTORE PUSH1 0x32 PUSH1 0x4 MSTORE PUSH1 0x24 PUSH0 REVERT JUMPDEST PUSH0 DUP2 SWAP1 POP SWAP3 SWAP2 POP POP JUMP JUMPDEST PUSH0 PUSH2 0x90B DUP3 PUSH2 0x6BE JUMP JUMPDEST PUSH2 0x915 DUP2 DUP6 PUSH2 0x8F7 JUMP JUMPDEST SWAP4 POP PUSH2 0x925 DUP2 DUP6 PUSH1 0x20 DUP7 ADD PUSH2 0x6D8 JUMP JUMPDEST DUP1 DUP5 ADD SWAP2 POP POP SWAP3 SWAP2 POP POP JUMP JUMPDEST PUSH32 0x4E487B7100000000000000000000000000000000000000000000000000000000 PUSH0 MSTORE PUSH1 0x22 PUSH1 0x4 MSTORE PUSH1 0x24 PUSH0 REVERT JUMPDEST PUSH0 PUSH1 0x2 DUP3 DIV SWAP1 POP PUSH1 0x1 DUP3 AND DUP1 PUSH2 0x975 JUMPI PUSH1 0x7F DUP3 AND SWAP2 POP JUMPDEST PUSH1 0x20 DUP3 LT DUP2 SUB PUSH2 0x988 JUMPI PUSH2 0x987 PUSH2 0x931 JUMP JUMPDEST JUMPDEST POP SWAP2 SWAP1 POP JUMP JUMPDEST PUSH0 DUP2 SWAP1 POP DUP2 PUSH0 MSTORE PUSH1 0x20 PUSH0 KECCAK256 SWAP1 POP SWAP2 SWAP1 POP JUMP JUMPDEST PUSH0 DUP2 SLOAD PUSH2 0x9AC DUP2 PUSH2 0x95E JUMP JUMPDEST PUSH2 0x9B6 DUP2 DUP7 PUSH2 0x8F7 JUMP JUMPDEST SWAP5 POP PUSH1 0x1 DUP3 AND PUSH0 DUP2 EQ PUSH2 0x9D0 JUMPI PUSH1 0x1 DUP2 EQ PUSH2 0x9E5 JUMPI PUSH2 0xA17 JUMP JUMPDEST PUSH1 0xFF NOT DUP4 AND DUP7 MSTORE DUP2 ISZERO ISZERO DUP3 MUL DUP7 ADD SWAP4 POP PUSH2 0xA17 JUMP JUMPDEST PUSH2 0x9EE DUP6 PUSH2 0x98E JUMP JUMPDEST PUSH0 JUMPDEST DUP4 DUP2 LT ISZERO PUSH2 0xA0F JUMPI DUP2 SLOAD DUP2 DUP10 ADD MSTORE PUSH1 0x1 DUP3 ADD SWAP2 POP PUSH1 0x20 DUP2 ADD SWAP1 POP PUSH2 0x9F0 JUMP JUMPDEST DUP4 DUP9 ADD SWAP6 POP POP POP JUMPDEST POP POP POP SWAP3 SWAP2 POP POP JUMP JUMPDEST PUSH0 PUSH2 0xA2B DUP3 DUP6 PUSH2 0x901 JUMP JUMPDEST SWAP2 POP PUSH2 0xA37 DUP3 DUP5 PUSH2 0x9A0 JUMP JUMPDEST SWAP2 POP DUP2 SWAP1 POP SWAP4 SWAP3 POP POP POP JUMP JUMPDEST PUSH32 0x4E487B7100000000000000000000000000000000000000000000000000000000 PUSH0 MSTORE PUSH1 0x11 PUSH1 0x4 MSTORE PUSH1 0x24 PUSH0 REVERT JUMPDEST PUSH0 PUSH2 0xA7A DUP3 PUSH2 0x65C JUMP JUMPDEST SWAP2 POP PUSH2 0xA85 DUP4 PUSH2 0x65C JUMP JUMPDEST SWAP3 POP DUP3 DUP3 SUB SWAP1 POP PUSH2 0xFFFF DUP2 GT ISZERO PUSH2 0xA9F JUMPI PUSH2 0xA9E PUSH2 0xA43 JUMP JUMPDEST JUMPDEST SWAP3 SWAP2 POP POP JUMP JUMPDEST PUSH0 PUSH2 0xAAF DUP3 PUSH2 0x65C JUMP JUMPDEST SWAP2 POP PUSH2 0xFFFF DUP3 SUB PUSH2 0xAC3 JUMPI PUSH2 0xAC2 PUSH2 0xA43 JUMP JUMPDEST JUMPDEST PUSH1 0x1 DUP3 ADD SWAP1 POP SWAP2 SWAP1 POP JUMP JUMPDEST PUSH32 0x526F6D616E206E756D6572616C2063616E6E6F7420626520656D707479000000 PUSH0 DUP3 ADD MSTORE POP JUMP JUMPDEST PUSH0 PUSH2 0xB02 PUSH1 0x1D DUP4 PUSH2 0x6C8 JUMP JUMPDEST SWAP2 POP PUSH2 0xB0D DUP3 PUSH2 0xACE JUMP JUMPDEST PUSH1 0x20 DUP3 ADD SWAP1 POP SWAP2 SWAP1 POP JUMP JUMPDEST PUSH0 PUSH1 0x20 DUP3 ADD SWAP1 POP DUP2 DUP2 SUB PUSH0 DUP4 ADD MSTORE PUSH2 0xB2F DUP2 PUSH2 0xAF6 JUMP JUMPDEST SWAP1 POP SWAP2 SWAP1 POP JUMP JUMPDEST PUSH0 DUP2 SWAP1 POP SWAP2 SWAP1 POP JUMP JUMPDEST PUSH0 PUSH2 0xB49 DUP3 PUSH2 0xB36 JUMP JUMPDEST SWAP2 POP PUSH2 0xB54 DUP4 PUSH2 0xB36 JUMP JUMPDEST SWAP3 POP DUP3 DUP3 SUB SWAP1 POP DUP2 DUP2 GT ISZERO PUSH2 0xB6C JUMPI PUSH2 0xB6B PUSH2 0xA43 JUMP JUMPDEST JUMPDEST SWAP3 SWAP2 POP POP JUMP JUMPDEST PUSH0 PUSH2 0xB7C DUP3 PUSH2 0xB36 JUMP JUMPDEST SWAP2 POP PUSH2 0xB87 DUP4 PUSH2 0xB36 JUMP JUMPDEST SWAP3 POP DUP3 DUP3 ADD SWAP1 POP DUP1 DUP3 GT ISZERO PUSH2 0xB9F JUMPI PUSH2 0xB9E PUSH2 0xA43 JUMP JUMPDEST JUMPDEST SWAP3 SWAP2 POP POP JUMP JUMPDEST PUSH0 PUSH2 0xBAF DUP3 PUSH2 0x65C JUMP JUMPDEST SWAP2 POP PUSH2 0xBBA DUP4 PUSH2 0x65C JUMP JUMPDEST SWAP3 POP DUP3 DUP3 ADD SWAP1 POP PUSH2 0xFFFF DUP2 GT ISZERO PUSH2 0xBD4 JUMPI PUSH2 0xBD3 PUSH2 0xA43 JUMP JUMPDEST JUMPDEST SWAP3 SWAP2 POP POP JUMP JUMPDEST PUSH32 0x496E76616C696420526F6D616E206E756D6572616C0000000000000000000000 PUSH0 DUP3 ADD MSTORE POP JUMP JUMPDEST PUSH0 PUSH2 0xC0E PUSH1 0x15 DUP4 PUSH2 0x6C8 JUMP JUMPDEST SWAP2 POP PUSH2 0xC19 DUP3 PUSH2 0xBDA JUMP JUMPDEST PUSH1 0x20 DUP3 ADD SWAP1 POP SWAP2 SWAP1 POP JUMP JUMPDEST PUSH0 PUSH1 0x20 DUP3 ADD SWAP1 POP DUP2 DUP2 SUB PUSH0 DUP4 ADD MSTORE PUSH2 0xC3B DUP2 PUSH2 0xC02 JUMP JUMPDEST SWAP1 POP SWAP2 SWAP1 POP JUMP JUMPDEST PUSH32 0x496E76616C696420526F6D616E206E756D6572616C2063686172616374657200 PUSH0 DUP3 ADD MSTORE POP JUMP JUMPDEST PUSH0 PUSH2 0xC76 PUSH1 0x1F DUP4 PUSH2 0x6C8 JUMP JUMPDEST SWAP2 POP PUSH2 0xC81 DUP3 PUSH2 0xC42 JUMP JUMPDEST PUSH1 0x20 DUP3 ADD SWAP1 POP SWAP2 SWAP1 POP JUMP JUMPDEST PUSH0 PUSH1 0x20 DUP3 ADD SWAP1 POP DUP2 DUP2 SUB PUSH0 DUP4 ADD MSTORE PUSH2 0xCA3 DUP2 PUSH2 0xC6A JUMP JUMPDEST SWAP1 POP SWAP2 SWAP1 POP JUMP INVALID LOG2 PUSH5 0x6970667358 0x22 SLT KECCAK256 PUSH27 0x90EDDD70A8176C5BCC1CEEE90D070D74FB58904DB1091D22A90C2D 0xD0 SWAP4 0xB4 0xC9 PUSH5 0x736F6C6343 STOP ADDMOD 0x1E STOP CALLER "
				},
				"gasEstimates": {
					"creation": {
						"codeDepositCost": "659200",
						"executionCost": "infinite",
						"totalCost": "infinite"
					},
					"external": {
						"intToRoman(uint16)": "infinite",
						"romanToInt(string)": "infinite"
					},
					"internal": {
						"_charToValue(bytes1)": "infinite"
					}
				},
				"methodIdentifiers": {
					"intToRoman(uint16)": "1e17ecea",
					"romanToInt(string)": "cb159dfe"
				}
			},
			"storageLayout": {
				"storage": [
					{
						"astId": 19,
						"contract": "contracts/roman_converter.sol:RomanConverter",
						"label": "_values",
						"offset": 0,
						"slot": "0",
						"type": "t_array(t_uint16)dyn_storage"
					},
					{
						"astId": 37,
						"contract": "contracts/roman_converter.sol:RomanConverter",
						"label": "_symbols",
						"offset": 0,
						"slot": "1",
						"type": "t_array(t_string_storage)dyn_storage"
					}
				],
				"types": {
					"t_array(t_string_storage)dyn_storage": {
						"base": "t_string_storage",
						"encoding": "dynamic_array",
						"label": "string[]",
						"numberOfBytes": "32"
					},
					"t_array(t_uint16)dyn_storage": {
						"base": "t_uint16",
						"encoding": "dynamic_array",
						"label": "uint16[]",
						"numberOfBytes": "32"
					},
					"t_string_storage": {
						"encoding": "bytes",
						"label": "string",
						"numberOfBytes": "32"
					},
					"t_uint16": {
						"encoding": "inplace",
						"label": "uint16",
						"numberOfBytes": "2"
					}
				}
			},
			"userdoc": {
				"kind": "user",
				"methods": {},
				"version": 1
			}
		}
	}
}