{
	"data": {
		"bytecode": {
			"linkReferences": {},
			"object": "6080604052348015600e575f5ffd5b506104438061001c5f395ff3fe608060405234801561000f575f5ffd5b5060043610610029575f3560e01c8063b12601da1461002d575b5f5ffd5b610047600480360381019061004291906101e7565b61005e565b60405161005592919061026d565b60405180910390f35b5f5f5f8585905003610075575f5f91509150610143565b5f5f90505f60018787905061008a91906102ca565b90505b80821361013a575f600283836100a391906102ca565b6100ad9190610337565b836100b8919061039f565b90505f819050868989838181106100d2576100d16103e0565b5b90506020020135036100ee576001819550955050505050610143565b86898983818110610102576101016103e0565b5b9050602002013510156101235760018261011c919061039f565b9350610133565b60018261013091906102ca565b92505b505061008d565b5f5f9350935050505b935093915050565b5f5ffd5b5f5ffd5b5f5ffd5b5f5ffd5b5f5ffd5b5f5f83601f84011261017457610173610153565b5b8235905067ffffffffffffffff81111561019157610190610157565b5b6020830191508360208202830111156101ad576101ac61015b565b5b9250929050565b5f819050919050565b6101c6816101b4565b81146101d0575f5ffd5b50565b5f813590506101e1816101bd565b92915050565b5f5f5f604084860312156101fe576101fd61014b565b5b5f84013567ffffffffffffffff81111561021b5761021a61014f565b5b6102278682870161015f565b9350935050602061023a868287016101d3565b9150509250925092565b5f8115159050919050565b61025881610244565b82525050565b610267816101b4565b82525050565b5f6040820190506102805f83018561024f565b61028d602083018461025e565b9392505050565b5f819050919050565b7f4e487b71000000000000000000000000000000000000000000000000000000005f52601160045260245ffd5b5f6102d482610294565b91506102df83610294565b925082820390508181125f8412168282135f8512151617156103045761030361029d565b5b92915050565b7f4e487b71000000000000000000000000000000000000000000000000000000005f52601260045260245ffd5b5f61034182610294565b915061034c83610294565b92508261035c5761035b61030a565b5b60015f0383147f8000000000000000000000000000000000000000000000000000000000000000831416156103945761039361029d565b5b828205905092915050565b5f6103a982610294565b91506103b483610294565b92508282019050828112155f8312168382125f8412151617156103da576103d961029d565b5b92915050565b7f4e487b71000000000000000000000000000000000000000000000000000000005f52603260045260245ffdfea264697066735822122067a570647a2ea0eca29633e28a73fc4542a22279365a27dcff6ebaa6613c553a64736f6c634300081e0033",
			"opcodes": "PUSH1 0x80 PUSH1 0x40 MSTORE CALLVALUE DUP1 ISZERO PUSH1 0xE JUMPI PUSH0 PUSH0 REVERT JUMPDEST POP PUSH2 0x443 DUP1 PUSH2 0x1C PUSH0 CODECOPY PUSH0 RETURN INVALID PUSH1 0x80 PUSH1 0x40 MSTORE CALLVALUE DUP1 ISZERO PUSH2 0xF JUMPI PUSH0 PUSH0 REVERT JUMPDEST POP PUSH1 0x4 CALLDATASIZE LT PUSH2 0x29 JUMPI PUSH0 CALLDATALOAD PUSH1 0xE0 SHR DUP1 PUSH4 0xB12601DA EQ PUSH2 0x2D JUMPI JUMPDEST PUSH0 PUSH0 REVERT JUMPDEST PUSH2 0x47 PUSH1 0x4 DUP1 CALLDATASIZE SUB DUP2 ADD SWAP1 PUSH2 0x42 SWAP2 SWAP1 PUSH2 0x1E7 JUMP JUMPDEST PUSH2 0x5E JUMP JUMPDEST PUSH1 0x40 MLOAD PUSH2 0x55 SWAP3 SWAP2 SWAP1 PUSH2 0x26D JUMP JUMPDEST PUSH1 0x40 MLOAD DUP1 SWAP2 SUB SWAP1 RETURN JUMPDEST PUSH0 PUSH0 PUSH0 DUP6 DUP6 SWAP1 POP SUB PUSH2 0x75 JUMPI PUSH0 PUSH0 SWAP2 POP SWAP2 POP PUSH2 0x143 JUMP JUMPDEST PUSH0 PUSH0 SWAP1 POP PUSH0 PUSH1 0x1 DUP8 DUP8 SWAP1 POP PUSH2 0x8A SWAP2 SWAP1 PUSH2 0x2CA JUMP JUMPDEST SWAP1 POP JUMPDEST DUP1 DUP3 SGT PUSH2 0x13A JUMPI PUSH0 PUSH1 0x2 DUP4 DUP4 PUSH2 0xA3 SWAP2 SWAP1 PUSH2 0x2CA JUMP JUMPDEST PUSH2 0xAD SWAP2 SWAP1 PUSH2 0x337 JUMP JUMPDEST DUP4 PUSH2 0xB8 SWAP2 SWAP1 PUSH2 0x39F JUMP JUMPDEST SWAP1 POP PUSH0 DUP2 SWAP1 POP DUP7 DUP10 DUP10 DUP4 DUP2 DUP2 LT PUSH2 0xD2 JUMPI PUSH2 0xD1 PUSH2 0x3E0 JUMP JUMPDEST JUMPDEST SWAP1 POP PUSH1 0x20 MUL ADD CALLDATALOAD SUB PUSH2 0xEE JUMPI PUSH1 0x1 DUP2 SWAP6 POP SWAP6 POP POP POP POP POP PUSH2 0x143 JUMP JUMPDEST DUP7 DUP10 DUP10 DUP4 DUP2 DUP2 LT PUSH2 0x102 JUMPI PUSH2 0x101 PUSH2 0x3E0 JUMP JUMPDEST JUMPDEST SWAP1 POP PUSH1 0x20 MUL ADD CALLDATALOAD LT ISZERO PUSH2 0x123 JUMPI PUSH1 0x1 DUP3 PUSH2 0x11C SWAP2 SWAP1 PUSH2 0x39F JUMP JUMPDEST SWAP4 POP PUSH2 0x133 JUMP JUMPDEST PUSH1 0x1 DUP3 PUSH2 0x130 SWAP2 SWAP1 PUSH2 0x2CA JUMP JUMPDEST SWAP3 POP JUMPDEST POP POP PUSH2 0x8D JUMP JUMPDEST PUSH0 PUSH0 SWAP4 POP SWAP4 POP POP POP JUMPDEST SWAP4 POP SWAP4 SWAP2 POP POP JUMP JUMPDEST PUSH0 PUSH0 REVERT JUMPDEST PUSH0 PUSH0 REVERT JUMPDEST PUSH0 PUSH0 REVERT JUMPDEST PUSH0 PUSH0 REVERT JUMPDEST PUSH0 PUSH0 REVERT JUMPDEST PUSH0 PUSH0 DUP4 PUSH1 0x1F DUP5 ADD SLT PUSH2 0x174 JUMPI PUSH2 0x173 PUSH2 0x153 JUMP JUMPDEST JUMPDEST DUP3 CALLDATALOAD SWAP1 POP PUSH8 0xFFFFFFFFFFFFFFFF DUP2 GT ISZERO PUSH2 0x191 JUMPI PUSH2 0x190 PUSH2 0x157 JUMP JUMPDEST JUMPDEST PUSH1 0x20 DUP4 ADD SWAP2 POP DUP4 PUSH1 0x20 DUP3 MUL DUP4 ADD GT ISZERO PUSH2 0x1AD JUMPI PUSH2 0x1AC PUSH2 0x15B JUMP JUMPDEST JUMPDEST SWAP3 POP SWAP3 SWAP1 POP JUMP JUMPDEST PUSH0 DUP2 SWAP1 POP SWAP2 SWAP1 POP JUMP JUMPDEST PUSH2 0x1C6 DUP2 PUSH2 0x1B4 JUMP JUMPDEST DUP2 EQ PUSH2 0x1D0 JUMPI PUSH0 PUSH0 REVERT JUMPDEST POP JUMP JUMPDEST PUSH0 DUP2 CALLDATALOAD SWAP1 POP PUSH2 0x1E1 DUP2 PUSH2 0x1BD JUMP JUMPDEST SWAP3 SWAP2 POP POP JUMP JUMPDEST PUSH0 PUSH0 PUSH0 PUSH1 0x40 DUP5 DUP7 SUB SLT ISZERO PUSH2 0x1FE JUMPI PUSH2 0x1FD PUSH2 0x14B JUMP JUMPDEST JUMPDEST PUSH0 DUP5 ADD CALLDATALOAD PUSH8 0xFFFFFFFFFFFFFFFF DUP2 GT ISZERO PUSH2 0x21B JUMPI PUSH2 0x21A PUSH2 0x14F JUMP JUMPDEST JUMPDEST PUSH2 0x227 DUP7 DUP3 DUP8 ADD PUSH2 0x15F JUMP JUMPDEST SWAP4 POP SWAP4 POP POP PUSH1 0x20 PUSH2 0x23A DUP7 DUP3 DUP8 ADD PUSH2 0x1D3 JUMP JUMPDEST SWAP2 POP POP SWAP3 POP SWAP3 POP SWAP3 JUMP JUMPDEST PUSH0 DUP2 ISZERO ISZERO SWAP1 POP SWAP2 SWAP1 POP JUMP JUMPDEST PUSH2 0x258 DUP2 PUSH2 0x244 JUMP JUMPDEST DUP3 MSTORE POP POP JUMP JUMPDEST PUSH2 0x267 DUP2 PUSH2 0x1B4 JUMP JUMPDEST DUP3 MSTORE POP POP JUMP JUMPDEST PUSH0 PUSH1 0x40 DUP3 ADD SWAP1 POP PUSH2 0x280 PUSH0 DUP4 ADD DUP6 PUSH2 0x24F JUMP JUMPDEST PUSH2 0x28D PUSH1 0x20 DUP4 ADD DUP5 PUSH2 0x25E JUMP JUMPDEST SWAP4 SWAP3 POP POP POP JUMP JUMPDEST PUSH0 DUP2 SWAP1 POP SWAP2 SWAP1 POP JUMP JUMPDEST PUSH32 0x4E487B7100000000000000000000000000000000000000000000000000000000 PUSH0 MSTORE PUSH1 0x11 PUSH1 0x4 MSTORE PUSH1 0x24 PUSH0 REVERT JUMPDEST PUSH0 PUSH2 0x2D4 DUP3 PUSH2 0x294 JUMP JUMPDEST SWAP2 POP PUSH2 0x2DF DUP4 PUSH2 0x294 JUMP JUMPDEST SWAP3 POP DUP3 DUP3 SUB SWAP1 POP DUP2 DUP2 SLT PUSH0 DUP5 SLT AND DUP3 DUP3 SGT PUSH0 DUP6 SLT ISZERO AND OR ISZERO PUSH2 0x304 JUMPI PUSH2 0x303 PUSH2 0x29D JUMP JUMPDEST JUMPDEST SWAP3 SWAP2 POP POP JUMP JUMPDEST PUSH32 0x4E487B7100000000000000000000000000000000000000000000000000000000 PUSH0 MSTORE PUSH1 0x12 PUSH1 0x4 MSTORE PUSH1 0x24 PUSH0 REVERT JUMPDEST PUSH0 PUSH2 0x341 DUP3 PUSH2 0x294 JUMP JUMPDEST SWAP2 POP PUSH2 0x34C DUP4 PUSH2 0x294 JUMP JUMPDEST SWAP3 POP DUP3 PUSH2 0x35C JUMPI PUSH2 0x35B PUSH2 0x30A JUMP JUMPDEST JUMPDEST PUSH1 0x1 PUSH0 SUB DUP4 EQ PUSH32 0x8000000000000000000000000000000000000000000000000000000000000000 DUP4 EQ AND ISZERO PUSH2 0x394 JUMPI PUSH2 0x393 PUSH2 0x29D JUMP JUMPDEST JUMPDEST DUP3 DUP3 SDIV SWAP1 POP SWAP3 SWAP2 POP POP JUMP JUMPDEST PUSH0 PUSH2 0x3A9 DUP3 PUSH2 0x294 JUMP JUMPDEST SWAP2 POP PUSH2 0x3B4 DUP4 PUSH2 0x294 JUMP JUMPDEST SWAP3 POP DUP3 DUP3 ADD SWAP1 POP DUP3 DUP2 SLT ISZERO PUSH0 DUP4 SLT AND DUP4 DUP3 SLT PUSH0 DUP5 SLT ISZERO AND OR ISZERO PUSH2 0x3DA JUMPI PUSH2 0x3D9 PUSH2 0x29D JUMP JUMPDEST JUMPDEST SWAP3 SWAP2 POP POP JUMP JUMPDEST PUSH32 0x4E487B7100000000000000000000000000000000000000000000000000000000 PUSH0 MSTORE PUSH1 0x32 PUSH1 0x4 MSTORE PUSH1 0x24 PUSH0 REVERT INVALID LOG2 PUSH5 0x6970667358 0x22 SLT KECCAK256 PUSH8 0xA570647A2EA0ECA2 SWAP7 CALLER 0xE2 DUP11 PUSH20 0xFC4542A22279365A27DCFF6EBAA6613C553A6473 PUSH16 0x6C634300081E00330000000000000000 "
		},
		"gasEstimates": {
			"creation": {
				"codeDepositCost": "218200",
				"executionCost": "261",
				"totalCost": "218461"
			},
			"external": {
				"binarySearch(uint256[],uint256)": "infinite"
			}
		},
		"methodIdentifiers": {
			"binarySearch(uint256[],uint256)": "b12601da"
		}
	},
	"abi": [
		{
			"inputs": [
				{
					"internalType": "uint256[]",
					"name": "arr",
					"type": "uint256[]"
				},
				{
					"internalType": "uint256",
					"name": "target",
					"type": "uint256"
				}
			],
			"name": "binarySearch",
			"outputs": [
				{
					"internalType": "bool",
					"name": "found",
					"type": "bool"
				},
				{
					"internalType": "uint256",
					"name": "index",
					"type": "uint256"
				}
			],
			"stateMutability": "pure",
			"type": "function"
		}
	]
}